:020000041028C2
:1000000000000C280D332810B13728104136281075
:10001000B5372810B9372810BD3728100000000068
:10002000000000000000000000000000D53628108D
:10003000C137281000000000C5372810C937281024
:10004000532F2810792F28109F2F2810C52F2810E4
:10005000EB2F281011302810373028105D30281071
:10006000CD372810D1372810D5372810D937281088
:10007000DD372810E1372810E5372810E937281038
:1000800040F0200070472DE9F14FB0B09246049146
:100090000DF142013A9A2B9199464A7000200AE0EC
:1000A0001AF8011B0498309A90470028049000F039
:1000B00034860D98401C0D909AF8000050B1252808
:1000C000EED1002100220791089209910A920B912A
:1000D0000C9204E00D9800F022BE41F001011AF8E4
:1000E000010F2028F9D023280CD02B2804D02D284C
:1000F00005D0302809D00BE041F00201EFE741F0D4
:100100000401ECE741F00801E9E741F01001E6E7FE
:100110002A280FD1D9F8002052F8040BC9F8002082
:1001200000280F9003D540420F9041F004010AF1DE
:10013000010A14E00F92DFF8EC3B0AE00F989842B6
:1001400005DA00EB800402EB4402303A0F920AF128
:10015000010A9AF80020A2F130000A28EED39AF89A
:1001600000002E2803D04FF0FF320E9229E01AF83B
:10017000010F2A2809D1D9F8000050F8042BC9F83A
:1001800000000E920AF1010A1BE02D280CBF0AF1B3
:10019000010A002000220E92DFF8884B0BE040B9E4
:1001A0000E9AA24205DA02EB820503EB4503303BCF
:1001B0000E930AF1010A9AF80030A3F130020A2ADC
:1001C000EDD3ADF840100FF660309AF8001000F053
:1001D000EDFE08B11AF8010B8DF842009DF84200BF
:1001E000682805D19AF8000068280CD1622106E041
:1001F0006C2804BF9AF800006C2804D171218DF896
:1002000042100AF1010A12A806901AF801BBBBF1CC
:1002100025012CD01C3900F09481091F022940F2DD
:100220009081133900F0AB84093900F08A81891E6E
:1002300000F04085491E00F0ED84491E022940F27D
:100240008081091F00F0E684491F00F0EF80491EFD
:1002500000F09584491E00F0D780C91E0CD0891E7D
:1002600000F08D84C91E00F08A8400F02EBD0123A9
:100270000793252100F026BDD9F8000050F8044B63
:10028000C9F80000002C059440F0AB802B99487809
:10029000002800F0A1804FF0FF340FF6942000F00A
:1002A00091FE241A40F0398500F01BBD01236A46F7
:1002B00002A9304600F000FE002840F02E85641EA2
:1002C000F4D13096079C12AF74B1309E17F8011B21
:1002D0000498B0470028049000F01F850D98401C3A
:1002E000641E0D90F2D130960A9C3021002C8DF8BE
:1002F00000100CDD309E01236A4602A9304600F052
:10030000DBFD002840F00985641EF4D13096059F7E
:10031000089C74B1309E17F8011B0498B047002860
:10032000049000F0FA840D98401C641E0D90F2D1E8
:1003300030960B9C3021002C8DF800100CDD309E87
:1003400001236A4602A9304600F0B6FD002840F0BD
:10035000E484641EF4D1309605980899099C4718E6
:1003600074B1309E17F8011B0498B0470028049020
:1003700000F0D3840D98401C641E0D90F2D130968D
:100380000C9C3021002C8DF800100CDD309E0123D8
:100390006A4602A9304600F08FFD002840F0BD8477
:1003A000641EF4D130969DF8400041077FF584AE7D
:1003B0002020002D8DF800007FF77EAE309C0123B9
:1003C0006A4602A9204600F077FD002840F0A58487
:1003D0006D1EF4D130946FE60FF63C30059000F0BE
:1003E00080BC0E9D002D04D5204600F00BFE044677
:1003F00007E02A46204600F021FE002814BF041B17
:100400002C46089400F06DBCD9F8001051F8040B8C
:10041000C9F8001020F00004002121F0FF35CDE9DB
:10042000024512AB0593782100F040BC2B99487827
:1004300020B14FF0FF340FF6B02030E79DF84200B6
:10044000622860D0682817D06A283FD06C2806D070
:10045000712847D074282CD07A281DD062E0D9F8B2
:10046000001051F8040BC9F80010002866D14FF0B5
:10047000FF340FF68C2012E7D9F8001051F8040B66
:10048000C9F8001020B94FF0FF340FF6742006E7CA
:100490000D99018000F025BCD9F8001051F8040B2B
:1004A000C9F80010002849D14FF0FF340FF6502052
:1004B000F5E6D9F8001051F8040BC9F8001000282F
:1004C0003CD14FF0FF340FF63820E8E6D9F80010A1
:1004D00051F8040BC9F8001080B94FF0FF340FF643
:1004E0002020DCE6D9F8001051F8040BC9F8001000
:1004F00020B94FF0FF340FF60820D0E60D9AD3173D
:10050000C0E90023EDE3D9F8001051F8040BC9F855
:10051000001020B94FF0FF340FF6E410BFE60D993C
:100520000170DEE3D9F8001051F8040BC9F800108F
:1005300020B94FF0FF340FF6C810B0E60D990160F6
:10054000CFE39DF842004C2807BFD9F80010CA1D20
:10055000D9F80000C21D22F00702C9F80020D2E934
:1005600000010832C9F80020CDE90201C80F02D00D
:1005700007982D210AE0BDF84000810702D50798B1
:100580002B2103E0C00705D50798202112AA11549A
:10059000401C079012A807994BF0200300EB010CB8
:1005A000DDE90201CDE92C01612BCDF814C021ACAD
:1005B0000BD00E98002848BF062105D404BF4BF08D
:1005C0002000672801D101210E91DDE902014F00D1
:1005D00047EAD0777E15FF174FF0FF32974208BFEA
:1005E000964210D1090341EA10510003002908BFC7
:1005F000002808D0ABF1610503211A2D089118D30A
:100600000FF61C1110E0DDE902014A00521512F14B
:10061000010F11D108030FD1ABF1610503211A2D90
:1006200008911FD30FF600110322604600F032FD3F
:1006300057E30FF6E801F7E7DDE902016A4600F04B
:100640007DFDCDE902014BF02000612811D1059814
:1006500030210170821C0592BBF1610F0CBF782123
:10066000582102E00FF6BC01DEE741700798801CBC
:100670000790DDE9020120F0000231F0004308BFDD
:10068000002A02D10026002542E14BF02008B8F1F3
:10069000610F40F092800E98002847BF2121019100
:1006A000401C0190019FDDE92C017F1C00220023EA
:1006B000DDE9024500F07AFD38BF85F0004500997C
:1006C0008DF88420091F002F00910DF1850632DD81
:1006D000204629460022002300F082FD2BD21C2256
:1006E00000F098FD04460D4600F016FEFF1F002F97
:1006F000804609DD00F017FE02460B4620462946DB
:1007000000F018FE04460D46F01D0721B8F1000F59
:100710000CDD491E5EBF08F00F0200F8012D4FEA04
:100720002818F3D502E0002200F8012D491EFAD561
:10073000C61D002FCCDC0DF18500361A01980DF195
:1007400085048642D8BF304600282FD4B04206DA4E
:100750000DF185010A5C082AA8BF0F2100DA0021EB
:10076000024621AB134400E0401E13F80159521E0B
:100770008D42F9D00F2904D10DF185018B5C5B1CF2
:100780008B54002A04D50099091D21AC401C00910E
:10079000411E0BD4621813783033DDB23A2DA4BF5A
:1007A0005B443A3B491E02F80139F4D50E99002901
:1007B00040F1AC80421E0E92A8E00099DFF8E826D6
:1007C00047F29750414391FBF2F20092DDE92C454C
:1007D000C2F10702002A25F0004504DD2046294623
:1007E00000F03EFB0BE052420020DFF8C01600F0A4
:1007F00037FB02460B462046294600F0A4FD04467E
:100800000D46B8F1660F06BF009F0A3706270E98FF
:100810003F18142FC8BF142730208DF884000DF125
:100820008506002F34DD2046294600F095FD01465F
:100830000A4606F1080304200A26B2FBF6F606EB88
:10084000860EA2EB4E02303203F8012C0A22B6FBD0
:10085000F2F202EB820EA6EB4E063036401E03F893
:10086000026DE9D1083F002F03F10806D9DD0846E3
:1008700000F079FD02460B462046294600F05AFD5D
:100880000022DFF82C3600F075FD04460D46CAE75D
:100890000DF18500361A0DF1850404E00098401E24
:1008A000761E0090641C20783028F7D0B8F1660FCF
:1008B00002D10098401C04E0B8F1650F0CBF012084
:1008C00000200E9940188642B8BF701E00281DD423
:1008D000B04204DA215C3429C8BF392100DC302160
:1008E0000246631E9D1800E0401E15F80169521E65
:1008F0008E42F9D0392902D1A15C491CA154002AA9
:1009000004D50099491C1C46401C00910646009DD8
:100910000E9F30B2002802DC01260FF210644BF06B
:100920002000662808BF6D1C15D067280FFA85F8CF
:1009300041D118F1040F44DBB84542DA9DF840007C
:100940006D1C010703D430B2B842D8BF074628B2A5
:100950003F1A48BF00270FFA85F8B8F1000F00F3DF
:10096000AF800898411C0891302205990A54002F45
:1009700003DC9DF84000010705D50898411C08914B
:100980002E2205990A5417EB080FB8BF7D422DB2ED
:100990006842ED1932B20B909542B8BF2E46059BC6
:1009A000089836B2099632462146184400F072FB88
:1009B000AD1B0C95CCE0BBF1610F15D14FF0700B66
:1009C00017E030B2B84204DA9DF840100A0758BF69
:1009D00007467F1E48BF0027BBF1670F14BF4FF0CB
:1009E000450B4FF0650B04E0BBF1410F08BF4FF022
:1009F000500B0898411C0891002F059914F8012B01
:100A00000A5403DC9DF84000010719D50898411CE1
:100A100008912E2205990A54002F11DD761E30B25E
:100A20008742B8BF3E460598089B32B2214618441B
:100A300000F030FB089836B23018BF1B08900B97B7
:100A4000059808990844B8F1000F80F800B003D465
:100A50002B224270821C04E02D2145464170821CED
:100A60006D4200212CAB28460AE004460A2094FB84
:100A7000F0F000EB8005A4EB450403F8014B491CA2
:100A800000B20028F1DC012906DC4BF020006528CB
:100A900004BF302002F8010B00292CAB08D1302014
:100AA00002F8010B06E0491E585C303002F8010BD9
:100AB0000029F8DC059908980844121A099247E0C1
:100AC00030B229B288421BDA0598089B32B221461F
:100AD000184400F0DFFA089936B271180891A8EBB3
:100AE0000600002F0B9003DC9DF84000020705D59F
:100AF000059A2E2050540999491C09910C9727E01A
:100B00000598089B2AB22146184400F0C3FA0898B9
:100B1000761B4044002F089003DC9DF840100A0724
:100B200004D5411C08912E2205990A5430B28742FF
:100B3000B8BF3E460598089B32B204EB0801184442
:100B400000F0A8FA089836B23018BE1B08900B9631
:100B50009DF8400000F01400102840F0C280079A71
:100B600008980B99821809988A1882180C980F997E
:100B70008018884280F2B580081A0A90B1E09DF88A
:100B80004200622808D068280ED06A2814D06C2849
:100B90001FD0712810D01CE0D9F8001051F8040BB8
:100BA000C9F80010C0B21AE0D9F8001051F8040BCF
:100BB000C9F8001080B212E0D9F80000C21D22F07E
:100BC0000702C9F80020D2E900010832C9F8002064
:100BD00006E0D9F8001051F8040BC9F80010002104
:100BE000CDE902019DF8400001075AD5DDE9022355
:100BF000002B08BF002A54D04BF02000782850D199
:100C0000079812A930220A54401C431C079301F88C
:100C100000B046E09DF84200622808D068280ED057
:100C20006A2814D06C281FD0712810D01CE0D9F885
:100C3000001051F8040BC9F8001040B21AE0D9F8BE
:100C4000001051F8040BC9F8001000B212E0D9F8F6
:100C50000000C21D22F00702C9F80020D2E90001FD
:100C60000832C9F8002006E0D9F8001051F8040B4A
:100C7000C9F80010C117CDE90201002902D5079873
:100C80002D210AE0BDF84000810702D507982B21ED
:100C900003E0C00705D50798202112AA1154401C73
:100CA000079012A8079901440591594602A800F03F
:100CB0004DF816E001200790D9F8000050F8041B09
:100CC000C9F800008DF848100BE001212522BBF186
:100CD000000F07918DF8482003D0022207928DF86B
:100CE00049B00F9D07990A986D1A08992D1A0B980B
:100CF0006D1A09992D1A0C986D1A9DF840102D1A2D
:100D000048073FF5DFAA2021002D8DF800107FF75E
:100D1000D9AA309E2C46FFF7C9BA4FF0FF3031B048
:100D2000BDE8F08FCBCCCC0C686A6C747A4C0000B8
:100D30007072696E74665F733A2062616420257315
:100D400020617267756D656E740000002DE9FC47C7
:100D500007468A463C6950466F2808BF082505D0DB
:100D6000FFF78EF9782814BF0A251025D7E900016E
:100D70003C2680468946BAF1640F18BFBAF1690F64
:100D800005D1002903D5D8F1000869EB4909B9F16B
:100D9000000F08BFB8F1000F0CD1386B50B9082D07
:100DA0003AD197F83800010736D530223B2684F82F
:100DB0003B2031E08DF800A0404649462A46EB171B
:100DC00000F0E2FA3032D0B2761E3A2801960EDAFE
:100DD000A255404649462A46EB1700F0D5FA804610
:100DE0005FEA010908BFB8F1000F05D108E09DF8DE
:100DF00000001218513AEBE7F868A1198842DBD3DA
:100E0000082D09D197F83800010705D5A05D3028D5
:100E100002D0761E3020A055C6F13C03BB61A1195B
:100E2000F960386B834208DAC31A3B624FF6EF7001
:100E3000398F01403987BDE8F38700280ED597F830
:100E4000380000F01400102808D17A6B7969386AEC
:100E5000521A121AD21A002AC8BF3A62BDE8F387A2
:100E60002DE9D04306460F4614464FF00008DFF840
:100E7000449012E0E00707D542464B4630463946DB
:100E800000F078FA06460F464046494642464B4631
:100E900000F070FA641080468946002CEAD1304692
:100EA0003946BDE8D0830000A08601000000F03F75
:100EB00084D7974100002440F8B505460E461746F2
:100EC0001C4600205CB117F8011BB068A847B06051
:100ED00030B1F06A401CF0620020641EF3D1F2BD14
:100EE0004FF0FF30F2BD00007072696E74665F7380
:100EF0003A20256E20646973616C6C6F77656400BD
:100F00007072696E74663A2062616420256E206199
:100F10007267756D656E7400000000006E616E0092
:100F20004E414E00696E6600494E46003000F0B4F6
:100F30000246106895681318506803EB5004C00708
:100F400048BF4D44A3422DD013F8016B16F00300A7
:100F500004BF13F8010BC01C31090F2907D113F886
:100F6000011B0F3103E013F8017B05F8017B401EE4
:100F7000F9D10029E6D013F8010BC6F38106032E40
:100F800008BF13F8016B00EB0620404228440026FE
:100F9000B71E8F421EBF10F8017B05F8017B761C3F
:100FA000F6D1CFE7F0BC02F10C007047C9B202786D
:100FB0008A421AB11CBF10F8012FF9E718BF0020B0
:100FC0007047000080B500B906A005490B681BB149
:100FD00022220021984701E000F0EEFA222002BD13
:100FE000FC070828636F6E73747261696E74206801
:100FF000616E646C65723A20626164206D65737322
:101000006167650000F10103810704D010F8011B3E
:10101000820781B1FAD10268A2F10131914311F046
:10102000803104BF50F8042FF6E709BAB1FA81F114
:1010300000EBD100401CC01A70470000C9B2830702
:1010400006D0521E22D310F8013B9942F7D11FE07F
:10105000083A13D302F1040241EA012141EA0141B5
:1010600050F8043B121F21BF4B40A3F1013C2CEA76
:10107000030C1CF0803FF3D0C9B2001F083210F8F7
:10108000013B521E28BF91EA030FF8D818BF012078
:10109000401E704762B38B0708D0521E11F8013B07
:1010A00000F8013B00F024808B07F6D1830740F065
:1010B000208000BF103A07D330B4B1E83810103A9E
:1010C000A0E83810F9D230BC530724BFB1E80810AB
:1010D000A0E8081044BF51F8043B40F8043BD20795
:1010E00024BF31F8022B20F8022B44BF0B78037089
:1010F0007047121F17D35B0009D151F8043B20F849
:10110000023B1B0C121F20F8023BF6D20BE051F8F9
:10111000043B00F8013B1B0A20F8023B1B0C121F8A
:1011200000F8013BF3D238BF121D521E24BF11F844
:10113000013B00F8013BF8D87047000010B5144699
:1011400000F002F8226010BDC1F30A5343B14A0017
:1011500012F5001F28D2A3F2FE32A1EB0251704714
:1011600050EA410C20D001F0004C31EA0C01B1FAF8
:1011700081F204BFB0FA80F3D2180B3AB2F1200327
:101180002CBF00FA03F1914041EA0C013EBFC2F1CD
:10119000200C20FA0CF319439040524240F2FD33E8
:1011A000D21A01EB035170470022704741EA030C49
:1011B00050EA4C0C52EA0C0C4FF4001C09D307D037
:1011C0001CEB410F9CBF1CEB430F8B4208BF8242BC
:1011D00070471CEB430FFBD8994208BF9042704701
:1011E00041EA030C50EA4C0C52EA0C0C4FF4001C80
:1011F00009D307D01CEB410F9CBF1CEB430F994256
:1012000008BF904270471CEB410FFBD88B4208BFD0
:101210008242704700B541EC100B104600F004F814
:1012200051EC100B00BD00BF020030EE101B40F26D
:10123000FF7C37D41CEA115313D063456BD09B1845
:10124000634504D201EB025120EE101B704701F000
:10125000004141EA0C51002041EC100BAFF300803B
:10126000704710EE100B50EA410054D0B2F57F7F6A
:1012700008D202EB5C010905002041EC110B20EEC5
:10128000010B70474FF0FE41002341EC113B20EE73
:10129000010BB2F57E7230EE101B4FEA410342EBB8
:1012A0005353CDE752421CEA115316D0634532D056
:1012B0009A4204D2A1EB025120EE101B70475B1E34
:1012C000D21AA1EB035120EE101B372A0CD30020B9
:1012D00001F0004141EC100BC0E710EE100B50EA9A
:1012E000410018D0372AF2D2C2EB5C02110500206F
:1012F00041EC110BF1EE100A20F01F0121F4F8511E
:10130000E1EE101A20EE010BF1EE101AE1EE100AD8
:1013100011F0080FA2D1704741EC100BBDEEC00BCD
:1013200010EE100A704700EE100AB8EEC00B51EC38
:10133000100B704741EC100B43EC112B30EE410BBE
:1013400051EC100B704741EC100B43EC112B80EE6D
:10135000010B51EC100B704741EC100BBCEEC00BB5
:1013600010EE100A704700EE100AB8EE400B51EC78
:10137000100B704741EC100B43EC112B20EE010BCE
:1013800051EC100B70470000BBBBE1B1B2F5803FE0
:1013900080F07E80022A1ED98C46B1FBF2F102FB5E
:1013A00011C31B0443EA1043B3FBF2FC02FB1C33E2
:1013B00080B240EA0343B3FBF2F002FB103240EA92
:1013C0000C4000237047022A05D98446B0FBF2F096
:1013D00002FB10C270474AB105D100F00102490872
:1013E0005FEA3000704700220023704700F0E8B841
:1013F0000B000200002100207047904271EB030CAB
:10140000F6D3B3F5803F2FD2F0B5B3FA83F7B1FA34
:1014100081F4A7F10F0E3D1B5340CEF1200602FAD6
:101420000EF2F3415340B5F10F0746D80F3C2C4460
:101430004140C4F12006A040F1414140B1FBF3F628
:1014400003FB1611A2FB0645001BA94102D2761E22
:101450008018594180EA010221FA0EF362FA0EF275
:1014600000215A403046F0BD30B4B1FBF3FC03FB21
:101470001C11A2FB0C45001BA94103D2ACF1010CCD
:101480008018594130BC02460B4660460021704727
:10149000B2F1807F65D3F0B5B2FA82F7B1FA81F488
:1014A000C7F10F063D1B22FA06F307F1110EF241B8
:1014B00020355A40B5F10F07B8D94140C4F1200694
:1014C000A040F1414140B1FBF3FC03FB1C11A2FB26
:1014D0000C45001BA94103D2BCF1010C80185941F5
:1014E0000F2F12D30F3FC90341EA5041B1FBF3F66E
:1014F00003FB1611A2FB0645D4EBC030A94102D272
:10150000761E8018594146EACC3C07B34140C7F1EA
:101510002006B840F1414140B1FBF3F603FB161140
:10152000A2FB0645001BA94102D2761E8018594134
:1015300080EA010221FA0EF3C7F1200462FA0EF2EA
:101540000CFA07F05A402CFA04F13043F0BD80EA5F
:10155000010221FA0EF3002162FA0EF260465A40AF
:10156000F0BD8C46B1FBF2F102FB11C31B0243EA52
:101570001063B3FBF2FC02FB1C331B024CEA00209D
:1015800043EA1063B3FBF2FC02FB1C331B024CEA80
:10159000002043EA1063B3FBF2FC02FB1C331B0286
:1015A0004CEA002043EA1063B3FBF2FC02FB1C325E
:1015B0004CEA002000237047012000F003B800002F
:1015C0007047000080B5AFF30080024A1100182078
:1015D000ABBEFBE726000200DFF8C4110868C0F3C9
:1015E0004000002801D0022002E0086810F001004D
:1015F0007047DFF8B001006810F00100704700008C
:10160000C21E022A01D3012002E0C01E0860002091
:1016100070471CB5FF246946FFF7F2FFC0B20028EF
:1016200002D02000C0B207E0DFF8FC01009950F8BA
:10163000210010F00100C0B216BD0000002801D04A
:10164000032801D3012002E0401E086000207047FB
:101650001CB5FF246946FFF7F1FFC0B2002802D095
:101660002000C0B208E0DFF8C40100990901084475
:10167000C06810F00100C0B216BD0000DFF8BC0168
:101680000068800810F00100704738B504002000A1
:10169000C0B2082811D3DFF898511822DFF894114E
:1016A000280000F00DFC0020E87540F65B00DFF834
:1016B00088110860002000F03BFCDFF8CC1120000E
:1016C000C0B251F82000C0F30020002805D0E4B2D9
:1016D00051F8240010F00F0000E0FF2032BD38B5B3
:1016E00004002000C0B2082811D3DFF844511822AA
:1016F000DFF84011280000F0E3FB0020E8754FF40C
:101700000960DFF834110860002000F011FCDFF8F8
:101710007801E4B250F82400C0F30110C0B232BD29
:10172000DFF868211368C3F3072303601068C0F370
:10173000C40008607047DFF858211368C3F307231B
:1017400003601068C0F3C4000860704738B5040037
:10175000072C11D3DFF8D8501822DFF8C411280065
:1017600000F0AEFB0020E8754FF4CE70DFF8C81033
:101770000860002000F0DCFBDFF8A00150F8240036
:1017800010F00700010009B2042907D1DFF8880131
:1017900050F8240010F01F0050F4807000B232BDE9
:1017A0002415264040152640DFF8B01209688A0348
:1017B000920B0260090E11F00101C171DFF8A01255
:1017C00009680A00D204D20C82800A00120C02F0CE
:1017D000FF020281090C01F0FF014181DFF8441191
:1017E000096811F00F0202730A00C2F30312427378
:1017F0000A00120AD204D20CC281090F11F00301AF
:101800000174DFF8641309680A00120A12F0070273
:1018100082710A00120CD205D20D4282890F11F09A
:10182000010101757047000040162640001926404E
:10183000A407082834342810D807082810002740A7
:101840001CB50C006946FFF7DBFE0100C9B2002998
:1018500001D0C0B217E0DFF8B404009950F82100BD
:1018600010F07F012160C0F304216160C0F30441E6
:10187000A1600100090F11F003016173C00E10F0A7
:1018800001002073002016BD4012264008002040B1
:10189000080420401CB50C006946FFF7CFFE01008C
:1018A000C9B2002901D0C0B235E0DFF810150098A8
:1018B0000001085800F0FF022260C0F304226260B9
:1018C000C0F30442A260000F10F0030020730098E0
:1018D0000001084442681000C00F6073C2F3027038
:1018E000002801D0012000E00020A07322F07F42F8
:1018F000226100980001084480680100C90F217529
:101900000100090E11F001016175A075000C10F0C5
:101910000700E075002016BD000126400012264099
:10192000A83428103815264080B50100DFF8680576
:101930001822FFF7BFFB0120DFF8601508700020B8
:1019400002BDDFF85C150968C90F002908D0DFF86F
:101950004C150978002907D1002101600320704748
:10196000002101600320FAE7DFF82C150968016007
:101970000020F4E710B50400FFF72EFE002803D185
:101980000020206003200DE0DFF81005007800281B
:1019900005D0DFF8040580682060002002E0002008
:1019A0002060032010BD0000DFF8F0140978002942
:1019B00005D0DFF8E41449680160002002E000214E
:1019C000016003207047DFF8DC140968C90F0029A3
:1019D00008D0DFF8C8140978002907D10021016078
:1019E00003207047002101600320FAE7DFF8A81404
:1019F000C96801600020F4E7DFF8AC140968C90F7A
:101A0000002908D0DFF894140978002907D10021B3
:101A1000016003207047002101600320FAE7DFF82E
:101A20007814096901600020F4E710B50400FFF79D
:101A300025FE002803D10020206003200DE0DFF800
:101A40005C040078002805D0DFF84C044069206071
:101A5000002002E000202060032010BD3015264049
:101A60003415264010B50C00C0B2FFF76FFE0028F9
:101A70000ED0012810D0022812D0B0F5887F13D0E4
:101A800040F21111884213D0B0F58A7F14D017E0CC
:101A90002000FFF756FF16E02000FFF785FF12E059
:101AA0002000FFF767FF0EE02000FFF78CFF0AE041
:101AB0002000FFF7BAFF06E02000FFF79DFF02E0DD
:101AC00000202060032010BD80B501000020FFF73A
:101AD000C9FF02BD80B50322D2B2824203D20020E8
:101AE0000860012003E0401CC0B2FFF7BBFF02BD4D
:101AF00018B587B004006846FFF7E6FF0100C9B2D9
:101B0000002903D000212160C0B22BE001A8FFF71B
:101B10004BFE9DF81400022803D10098206000209D
:101B200020E0DFF888030068C00F002808D0FFF726
:101B300060FDC0B2002807D100202060032011E022
:101B40000098206000200DE0009901984143BDF805
:101B50000800B1FBF0F09DF80B10491CB0FBF1F050
:101B60002060002008B010BD3C152640F0B58BB0B9
:101B700005000C0069462800C0B2FFF7ABFF01006A
:101B8000C9B2002903D000212160C0B2BCE0280006
:101B9000C0B202284CD307A92800C0B2401CFFF7EE
:101BA0004FFEC0B2002811D0DFF804631822DFF81E
:101BB0000413300000F084F90020F07540F6631043
:101BC000DFF8F4120860002000F0B2F94F48290055
:101BD000C9B200EB810050F8080CC00F002807D0F4
:101BE0009DF82900022807D10098206000208BE092
:101BF00000982060002087E0EDB26D1C2800FFF700
:101C000008FD0100C9B2002902D0C0B2FF2803D1EB
:101C100000202060032077E000990798414308984E
:101C2000B1FBF0F00999B0FBF1F0206000206BE00F
:101C300001A92800C0B2401CFFF72CFEC0B200284A
:101C400011D0DFF86C621822DFF86812300000F063
:101C500037F90020F07540F67F10DFF85C1208605D
:101C6000002000F065F955482900C9B20901405823
:101C7000C00F002807D09DF81000022807D1009857
:101C80002060002040E00098206000203CE0EDB2A1
:101C90006D1C2800FFF7DCFC0100C9B2002902D04E
:101CA000C0B2FF2803D10020206003202CE09DF863
:101CB000110001281DD1009A0023019E00273F0634
:101CC00047EA162736060598002136184F41A6FB2D
:101CD000020106FB031107FB0211029A039BA3FBFF
:101CE0000223FFF751FB000E40EA0120090E20609D
:101CF00009E00099019841430298B1FBF0F0039983
:101D0000B0FBF1F0206000200BB0F0BD00162640C3
:101D100010B50323421E0400E4B2002C03D10800D6
:101D2000FFF7E6FE0CE01400DBB2E4B2A34204D3FA
:101D30001000C0B2FFF71AFF02E0C0B2FFF792FE38
:101D400010BD38B505000C002800C0B2FFF79DFC9F
:101D50000100C9B2FF2904D12000FFF7F2FDC0B293
:101D60001BE06946C0B2FFF7D3FF0100C9B20029EA
:101D700003D000212160C0B20FE02800C0B2FFF7FD
:101D8000AEFCC0B2002805D002280BD006D3032831
:101D90000CD00FE000982060002032BD0098400871
:101DA0002060F9E7009880082060F5E70098C008F7
:101DB0002060F1E7002020600320EEE700192640B4
:101DC0001FB5040002A90120FFF7BBFF0100C9B243
:101DD000002903D000212160C0B21AE0694601A8A1
:101DE000FFF79EFC01980021421C71F1FF335B015B
:101DF00043EAD26352010098002112184B41029825
:101E00000021490141EAD0614001FFF7BDFA20609D
:101E1000002004B010BD1FB5040002A90120FFF787
:101E200090FF0100C9B2002903D000212160C0B297
:101E30001AE0694601A8FFF77EFC01980021421CC8
:101E400071F1FF335B0143EAD26352010098002134
:101E500012184B4102980021490141EAD06140012A
:101E6000FFF792FA2060002004B010BD80B5DFF8C3
:101E70004C100A68C2F303220E2A07D00968C1F386
:101E800003210D2905D1FFF7C6FF02BDFFF798FF1B
:101E9000FBE70120F9E700008C0708280008082864
:101EA00018152640081526400C15264030152640EA
:101EB000A4070828A8342810D807082800002040C4
:101EC00001B58B071AD1830724D1121F21D351F8F2
:101ED000043BA3F1013C2CEA030C1CF0803C04BF42
:101EE00040F8043BF1E79CFA8CFCBCFA8CF1C1F1A0
:101EF00018018B40CB4040F8043B13E0042A09D37F
:101F000011F8013B521E00F8013B5BB18B07F7D182
:101F1000D9E7121D5AB111F8013B521E00F8013BDE
:101F200003B1F8D111001CBF002200F059F801BD27
:101F300001BEFEE780B5234A23490B6893423ED099
:101F40000A60224A12684A62214A8A6202684A602A
:101F500042688A608268CA60C2680A6102694A612E
:101F600042698A618269CA61C2690A62F1EE102A15
:101F700012F0900F23D0174A8A62026ACA62426A3C
:101F80000A63826A4A63C26A8A63026BCA63426BEB
:101F90000A64826B4A64C26B8A64026CCA64426CD3
:101FA0000A65826C4A65C26C8A65026DCA65426DBB
:101FB0000A66826D4A66C26D8A66006EC86600F067
:101FC0003EF801BDFAF9F8F71C07082828ED00E0F3
:101FD000A4A3A2A1ABAAA9A862F30F2262F31F4295
:101FE000401810F0030308D0C91A1FD3DB0748BFFD
:101FF00000F8012D28BF20F8022D130030B414463C
:102000001546103928BF20E93C00FAD8490728BFF7
:1020100020E90C0048BF40F8042D890028BF20F8B3
:10202000022D48BF00F8012D30BC7047C91818BFF9
:1020300000F8012DCB0728BF00F8012D7047FEE7FF
:10204000022801D3012010E00B00DBB2042B01DBDE
:1020500001200AE0DFF8D83303EB8000C9B2405C0E
:10206000824201D3012000E000207047F8B506004D
:102070000F0015001C00022E01D301201DE02A00D4
:102080003900C9B23000FFF7DBFF012801D1012080
:1020900013E03800C0B2002812D1B4F5807F0DD211
:1020A000DFF890037603304400EB850010F5805094
:1020B000016864F30F2101600020F2BD0120FCE7FC
:1020C000FFB2012F11D1B4F5803F0CD2DFF86403C9
:1020D0007603304400EB850010F5A050016864F3EE
:1020E00017210160E8E70120E7E70120E5E700B2FA
:1020F0000012C0B27047F8B505000E0017002800A6
:1021000000B2FFF7F4FF04002000C0B2022801D3A0
:10211000012024E03A003100C9B22000C0B2FFF72C
:102120008FFF012801D1012019E0DFF808132000FA
:10213000C0B2400308442A00D2B200EB8200D0F8BB
:10214000000CF6B266F3092067F30700E4B26403FB
:102150002144EDB201EB8501C1F8000C0020F2BD75
:1021600070B504000D001600022C01D301201DE003
:1021700032002900C9B22000FFF762FF012801D117
:10218000012013E0DFF8AC126003085850F0004063
:1021900050F0407050F47F00EDB265F3092066F313
:1021A00007006203885064030859002070BD0100D5
:1021B000C9B2002905D0022907D004D3032906D0CB
:1021C00006E03E2004E0412002E09A2000E08B205F
:1021D000C0B270470100C9B2002905D0022907D05A
:1021E00004D3032906D006E00A2004E00A2002E016
:1021F0000A2000E00A20C0B270470100C9B20029DD
:1022000005D0022907D004D3032906D006E03F20D9
:1022100004E0422002E09B2000E08C20C0B2704726
:102220000100C9B2002905D0022907D004D303292F
:1022300006D006E00B2004E00B2002E00B2000E0BB
:102240000B20C0B2704770B5040000207A4821000E
:10225000C9B2405C002813D078482100C9B250F8B8
:10226000210000F0BAF905002000C0B2FFF7C5FF59
:10227000C0B200F0BAF9012812D02DB26D420FE0C1
:102280006E4E6F4D2000C0B256F8200000F086FA66
:102290002D1A4FF40041E4B256F8240000F07CFA05
:1022A000280000B270BD80B563490200D2B2895CDB
:1022B000002907D00021614AC0B252F8200000F086
:1022C0008AF906E000215D4AC0B252F8200000F011
:1022D00063FA01BD2DE9F8419BB004000E00150022
:1022E000342100220EAF3800FFF776FE08200F9051
:1022F0003000C0B2FFF76EFF8DF840003000C0B272
:10230000FFF755FF07005FF008083000C0B2FFF785
:102310004EFF4C4E0EAA97FBF8F108FB11773900DF
:10232000C0B2C010C001304400F0C5FA08200F90C0
:102330002800C0B2FFF774FF8DF840002800C0B23B
:10234000FFF75BFF07005FF008082800C0B2FFF747
:1023500054FF0EAA97FBF8F108FB11773900C0B2C1
:10236000C010C001304400F0A6FA374D0022012110
:102370002000C0B235F91000FFF7BDFE2000C0B24A
:1023800035F91000FFF7B3FE092300220121C0B286
:10239000FFF76CFE2000C0B235F91000FFF7A7FE72
:1023A00000220121C0B2FFF7DBFE244D2000C0B2A5
:1023B00055F8200000F0CCF900208DF80000002036
:1023C0008DF8010000208DF82C0000208DF82D00E4
:1023D00000208DF82E0003208DF82F0000208DF8AE
:1023E000300002208DF8310003208DF8320069465C
:1023F0002000C0B255F8200000F00AF92000C0B259
:1024000055F8200000F0C3F92000C0B255F82000B4
:1024100000F090FA2000C0B255F8200000F090FAC9
:1024200000200549E4B208551CB0BDE8F081000069
:102430006037281000000440F8070828F406082830
:102440000080FFFF00003140EC06082810B4012294
:1024500091F84C30052B03D291F84D30052B01D368
:102460001000A7E0002800F0A480002900F0A1805F
:10247000514A12684B7963F392428B7913F003034C
:1024800063F311420B7A13F0070363F31A62CB79FB
:1024900063F39E720B7D63F3000291F8243063F3C3
:1024A000410202600A7910F130031C6862F30704EC
:1024B0001C604A79012A0BD18A79002A02D10022B4
:1024C000826007E08A79012A04D10A68826001E00B
:1024D00001228260CA6802610A694261CA69826136
:1024E0000A6AC2610A680262344A12680B7E03F00B
:1024F000FF03120A12021A4391F8303003F0FF036F
:1025000063F3174291F8403003F0FF0363F31F6257
:1025100091F8483003F0FF0363F30F224264284A26
:10252000126891F8383003F0FF03120A12021A43BE
:1025300091F8283003F0FF0363F30F228264214AED
:1025400012688B7D13F00303920892001A4391F8EE
:10255000253013F0030363F38B2291F82C3013F032
:10256000030363F3051291F8343013F0030363F3AC
:10257000092291F83C3013F0030363F3871291F8BA
:10258000443013F0030363F38302C2640E4A1268FB
:1025900091F84C3013F00703D208D2001A4391F897
:1025A0004D3013F0070363F306124265497D8167DE
:1025B0000022100010BC7047883728108C37281074
:1025C000903728109437281098372810016851F058
:1025D000004101607047816070478068704700006B
:1025E0000069C84010F00100704780B50100C9B211
:1025F000082291FBF2F302FB1311044AC0B2C0108F
:10260000C0011044FFF7ECFFC0B202BD0000314032
:1026100010B40122002800F08D80002900F08A808B
:10262000464A12680B7813F0030363F315524B7894
:1026300013F0030363F31142032363F31A620B7A6B
:1026400063F39E724B78012B02D04B78022B06D19C
:102650000B7D63F3000291F8243063F341020260C2
:10266000CA6802610A694261CA6982610A6AC26112
:102670004A680262324A126891F82E3063F31742B8
:1026800091F8303063F31F6291F8313063F30F2219
:102690004B78032B07D10B7E03F0FF03120A1202C3
:1026A00014001A0022434264264A126891F832301C
:1026B00063F307024B78032B05D191F8283003F020
:1026C000FF0363F30F2282641F4A126891F82D30D2
:1026D00013F0030363F3051291F82F3013F0030393
:1026E00063F3871232F00C0232F440724B78032B02
:1026F0000BD14B7D13F00303920892001A4391F81B
:10270000253013F0030363F38B22C2640F4A12686F
:1027100091F8333013F00703D208D2001A4391F82E
:10272000343013F0070363F30612426591F82C105E
:1027300081670022100010BC704700009C372810F1
:10274000A0372810A4372810A8372810AC37281035
:10275000F0210160002181605FF0FF310161416182
:102760008161C161016241624FF480714164002165
:1027700081644FF6FF71C16432214165FF2101651B
:1027800000210167002141670021816770470168CE
:1027900051F0004101607047816070478068704768
:1027A00030B4614B1818C009604C14EB00140429B4
:1027B0000DD223681F25C8008540AB43D2B212F06A
:1027C0001F02C90012FA01F1194321600CE0091F30
:1027D00063681F25C8008540AB43D2B212F01F02C8
:1027E000C9008A401A43626030BC7047002A04D195
:1027F000012212FA01F1416003E0012212FA01F113
:102800008160704710B48900436C0F248C40A3434F
:1028100012F00F0212FA01F11943416410BC704723
:1028200010B4836C01248C40A34312F0010212FA0D
:1028300001F11943816410BC704710B4C36C0124CA
:102840008C40A34312F0010212FA01F11943C16452
:1028500010BC704710B449001031C36C03248C4085
:10286000A34312F0030212FA01F11943C16410BC30
:1028700070474269012212FA01F1416140697047D3
:1028800010B4836901248C40A34312F0010212FAB0
:1028900001F11943816110BC704710B44900036C09
:1028A00003248C40A34312F0030212FA01F11943EE
:1028B000016410BC7047F8B505000E001400002735
:1028C000002D2ED0002C2CD0226831002800FFF7DC
:1028D0008DFF227A31002800FFF762FF6269310024
:1028E0002800FFF79DFFA26931002800FFF7A5FF30
:1028F000E26931002800FFF7ADFF6268310028006F
:10290000FFF780FFE26831002800FFF7C6FF3100C3
:102910002800FFF7AEFF226931002800FFF7B0FF63
:1029200000E0034F3800F2BD0000CFBF0000304090
:1029300001005A004030016851F0100101607047F9
:102940004030016851F0040101607047022801D352
:1029500001200FE00B00DBB2042B01DB012009E0BA
:10296000954B03EB8000C9B2405C824201D3012049
:1029700000E000207047F8B506000F0015001C00AD
:10298000022E01D301201CE02A003900C9B2300018
:10299000FFF7DCFF012801D1012012E03800C0B2AE
:1029A000002811D1B4F5807F0CD2844876033044DE
:1029B00000EB850010F58050016864F30F21016081
:1029C0000020F2BD0120FCE7FFB2012F10D1B4F5C9
:1029D000803F0BD279487603304400EB850010F538
:1029E000A050016864F317210160E9E70120E8E7DE
:1029F0000120E6E700B20012C0B27047F8B505004A
:102A00000E001700280000B2FFF7F4FF04002000BA
:102A1000C0B2022801D3012023E03A003100C9B23C
:102A20002000C0B2FFF792FF012801D1012018E079
:102A300062492000C0B2400308442A00D2B200EB31
:102A40008200D0F8000CF6B266F3092067F30700A5
:102A5000E4B264032144EDB201EB8501C1F8000C3E
:102A60000020F2BD70B504000D001600022C01D349
:102A700001201CE032002900C9B22000FFF766FFE8
:102A8000012801D1012012E04C496003085850F0A0
:102A9000004050F0407050F47F00EDB265F3092023
:102AA00066F307006203885064030859002070BD74
:102AB000F8B504004FF4FA504443414D414E002113
:102AC0002878C0013044FFF786FD14E02878C00163
:102AD0003044FFF782FDB842F8D33B4F3C192878C9
:102AE000C0013044FFF779FD3F1839002878C00154
:102AF0003044FFF770FD4CF25137BC42E6D22878E3
:102B0000C0013044FFF769FD8442F8D2F1BD38B509
:102B100094B0502100226C462000FFF75DFA2B4C48
:102B200000220121B4F90000FFF768FFB4F90000AA
:102B3000FFF760FF092300220121C0B2FFF71BFF4E
:102B4000B4F90000FFF756FF00220121C0B2FFF7E1
:102B500089FF5FF0FF30009000208DF80400002016
:102B60008DF8050000208DF8060000208DF8080083
:102B700003208DF844000120129001208DF80700F9
:102B80000F4C104D69462078C0012844FFF75EFCC9
:102B90002078C0012844FFF719FD00212078C001EA
:102BA0002844FFF718FD2078C0012844FFF7C2FE33
:102BB00015B030BD00000000603728100000044050
:102BC0001A07082800005940B03CFFFF18070828E2
:102BD00038B500F077F900F042F800F0C9F8714913
:102BE0000868800312D4BFF34F8FBFF36F8F0020AC
:102BF0006D4A1060BFF34F8FBFF36F8F086850F4BA
:102C000000300860BFF34F8FBFF36F8F0868C003B9
:102C100024D40020654A1060BFF34F8F64480268D7
:102C2000C2F34E33C2F3C90443F6E07010EA431016
:102C300050EA84705F4D28602000441E0028F3D1C4
:102C40001800431E0028EDD1BFF34F8F086850F4E1
:102C500080300860BFF34F8FBFF36F8F31BD70B509
:102C600086B0684654491822FEF724FA00200AE08C
:102C700069460200D2B201EBC2014968491C11F059
:102C8000070F0DD1401C0100C9B2032909D26946C2
:102C90000200D2B211F8321011F0070FE8D0FEE7AF
:102CA000FEE7464C207810F0070F00D0FEE7444DB9
:102CB0002868401C10F0070F00D0FEE7002622E035
:102CC00068463100C9B200EBC10041683000C0B2B3
:102CD00052F8300000F043F814E000200028EFD054
:102CE0002168491E3000C0B252F8300000F037F8B9
:102CF00068463100C9B200EBC10041682868401C39
:102D000000F02DF8761C3000C0B2032825D26A46A8
:102D10003000C0B252F83000002813D020683100D3
:102D2000C9B252F8311088420AD368463100C9B29C
:102D300000EBC10040682168884201D30120CDE743
:102D40000020CBE768463100C9B200EBC100406803
:102D500021688842C1D30120C0E706B070BD0022BF
:102D6000002302E0C0E9002308308842FAD370470C
:102D700030B4144880081449144A002308E01C00A9
:102D8000E4B252F824401D00EDB241F825405B1C2E
:102D90001C000500E4B2EDB2AC42F0D30C48016077
:102DA00030BC704714ED00E050EF00E084ED00E02F
:102DB00080ED00E060EF00E00C372810B4332810FD
:102DC000B833281080000000800808280000281070
:102DD00008ED00E010B5002042490860BFF34F8FB6
:102DE00041480168C1F34E32C1F3C90343F6E070B4
:102DF00010EA421050EA83703C4C20601800431ED9
:102E00000028F3D11000421E0028EDD1BFF34F8FF0
:102E1000BFF36F8FBFF34F8FBFF36F8F0020344925
:102E20000860BFF34F8FBFF36F8F00F001F810BD44
:102E300038B586B068462F491822FEF73BF9684638
:102E4000FEF772FDC0B200280DD02B4C18222B4982
:102E50002000FFF735F80020E0754E202849086073
:102E60000020FFF765F8274D2800FEF7FFFFC0B2EE
:102E700000280DD0204C182220492000FFF720F810
:102E80000020E07550201E4908600020FFF750F830
:102E90001D49286808600A681C4882181C48B2FB53
:102EA000F0F01C4A10601C48096801F2E7314FF449
:102EB0007A72B1FBF2F101600068C0031749086043
:102EC00007B030BD80B500F02DF815490A6852F4FE
:102ED00070020A60BFF34F8FBFF36F8F00F026F8C8
:102EE00001BD000084ED00E080ED00E074EF00E043
:102EF00050EF00E024372810A4070828BC3328101E
:102F0000D8070828DC070828E00708283F420F00F8
:102F100040420F00E8070828E4070828EC070828C3
:102F200088ED00E0EFF3108072B6704780F31088F0
:102F300070470000010009B2002908D4012210F0F6
:102F40001F018A404F4900B2400941F820207047D4
:102F5000FEE780B54C4800684C4801680800C00F87
:102F6000002805D04A488905890D50F8210080477E
:102F70000020FFF7DFFF01BD80B5464800684648E6
:102F800001680800C00F002805D041488905890D57
:102F900050F8210080470120FFF7CCFF01BD80B52C
:102FA0003E4800683E4801680800C00F002805D070
:102FB00037488905890D50F8210080470220FFF726
:102FC000B9FF01BD80B5374800683748016808007F
:102FD000C00F002805D02E488905890D50F8210022
:102FE00080470320FFF7A6FF01BD80B52F4800688A
:102FF0002F4801680800C00F002805D02448890523
:10300000890D50F8210080470420FFF793FF01BD90
:1030100080B528480068284801680800C00F0028CB
:1030200005D01B488905890D50F8210080470520EF
:10303000FFF780FF01BD80B5204800682048016887
:103040000800C00F002805D011488905890D50F8E7
:10305000210080470620FFF76DFF01BD80B51948AC
:103060000068194801680800C00F002805D008480A
:103070008905890D50F8210080470720FFF75AFF86
:1030800001BD000080E200E0683728100005204004
:10309000000008286C3728100405204070372810DD
:1030A00008052040743728100C0520407837281078
:1030B000100520407C372810140520408037281048
:1030C00018052040843728101C05204010B52748DB
:1030D00000F058F800F098F8032203210320FFF7CE
:1030E000F9F8022202210220FFF7F4F80022002161
:1030F0000020FFF7EFF8012201210120FFF7EAF895
:103100006420FFF7D5FC1A4C0320FFF79CF82080C1
:103110000320FFF7C8F80220FFF795F8608002202F
:10312000FFF7C1F80020FFF78EF8A0800020FFF71E
:10313000BAF80120FFF787F8E0800120FFF7B3F825
:10314000B4F900100B4800F071F8B4F902100A4805
:1031500000F06CF8B4F90410084800F067F8B4F90E
:103160000610074800F062F8CAE700BF80B2E60E1A
:10317000D0070828C0352810E03528100036281060
:103180002036281080B505490860FFF723FEFFF7B9
:10319000BEFC002000F05EF801BD0000F00708282A
:1031A00080B50100002000F0A0F801BD10B51400AA
:1031B0002200D2B2002000F089F8200010BD0021CA
:1031C00001804FF6FF7141808180FF218171C171C3
:1031D000002181600021C160002101617047104918
:1031E00002880A8042884A8082888A8082798A712D
:1031F000C279CA7182688A60C268CA60006908615F
:10320000012008490870704700B585B06846FFF78F
:10321000D6FF054802906846FFF7E1FF05B000BD04
:10322000BC07082801080828A13128100EB4C0B531
:10323000024603A800210190009101AB012104483E
:1032400078440C30FCF71FFF06BC5DF810FB00BF94
:10325000ED040000002800D162B602480168491C54
:1032600001607047F4070828C0F840127047D0F892
:103270000802C005C00D7047D0F80802C0F3C03086
:10328000704738B505002800FFF7F1FF040028005B
:10329000FFF7F2FF0419002C01D1012000E000200B
:1032A000C0B232BD38B50400DFF85C50C9B22000AE
:1032B000C0B255F82000FFF7D7FF2000C0B255F884
:1032C0002000FFF7DEFF0028F7D031BD70B5050004
:1032D0000E00140006E031782800C0B2FFF7E2FFCC
:1032E000641E761C002CF6D170BD38B504000D00AC
:1032F00005E029782000C0B2FFF7D4FF6D1C2878C4
:103300000028F6D131BD00000407082872B61D4917
:1033100008684FEA102000F00F000E2808BF1A4975
:103320000D2808BF1949072808BF1949082808BFF0
:103330001849086820F00B0008600868BFF34F8F39
:10334000154816490860BFF34F8F1549086840F0CB
:10335000070008601349086840F007000860BFF3E1
:103360004F8FBFF36F8F00200021124AE2E8020165
:103370006A45FBD10C4FB8470C4FB8470C4FB847C4
:10338000FEE70000000020400C0020400C0420401C
:103390000C0820400C0C20400000281008ED00E034
:1033A00090EF00E094EF00E0D12B28105535281065
:1033B000F136281000FF0B28FFFF0B28443A5C432E
:1033C0005954344242375F4C6962726172792D6D93
:1033D00061737465725C5365656B667265655F43A6
:1033E00059543442425F4F70656E736F75726365F6
:1033F0005F4C6962726172795C6C69627261726958
:1034000065735C73646B5C747669696268346D5C67
:103410007372635C73797374656D5C7379737465CF
:103420006D5F747669696268346D5F636D372E63B2
:1034300000000000443A5C435954344242375F4C28
:103440006962726172792D6D61737465725C536526
:10345000656B667265655F4359543442425F4F70D5
:10346000656E736F757263655F4C696272617279C4
:103470005C6C69627261726965735C73646B5C74C5
:103480007669696268346D5C7372635C64726976D4
:103490006572735C737973636C6B5C63795F73796A
:1034A00073636C6B2E680000443A5C435954344299
:1034B00042375F4C6962726172792D6D6173746518
:1034C000725C5365656B667265655F43595434423F
:1034D000425F4F70656E736F757263655F4C6962B2
:1034E000726172795C6C69627261726965735C7336
:1034F000646B5C747669696268346D5C7372635C7A
:10350000647269766572735C737973636C6B5C6308
:10351000795F737973636C6B2E63000030B40025A0
:1035200012E050F8042BD30744BF4A44521E091F2F
:10353000042942F8045BFAD213468C0744BF158075
:103540009B1CC90748BF1D7050F8041B0029E8D117
:1035500030BC704710B5074979441831064C7C449B
:10356000163404E00A68081D114488470146A14248
:10357000F8D110BD2C000000480000004EF6885124
:10358000CEF20001086840F470000860BFF34F8F6E
:10359000BFF36F8F4FF00170E1EE100A704700002B
:1035A0007DFFFFFFE80000001C0708280000000066
:1035B0007FD9FFFF380200008C00000000000828BF
:1035C000454E434F4445525F4449525F3120636F3B
:1035D000756E7465722009092564202E0D0A00009D
:1035E000454E434F4445525F4449525F3220636F1A
:1035F000756E7465722009092564202E0D0A00007D
:10360000454E434F4445525F4449525F3320636FF8
:10361000756E7465722009092564202E0D0A00005C
:10362000454E434F4445525F4449525F3420636FD7
:10363000756E7465722009092564202E0D0A00003C
:1036400004207146084202D0EFF3098001E0EFF355
:10365000088000B50149884700BD0000351F2810CB
:1036600080B58DF80000012269460120FFF79EFD1C
:10367000012802D19DF8000002BD4FF0FF3002BDCD
:10368000801C800803D0401C801EFCD100BF704706
:10369000EFF3108072B6704780F310887047000017
:1036A00000F00EF8002801D0FFF754FFAFF30080C0
:1036B0000020AFF30080FFF709FD00F003F80000E1
:1036C0000020704700F000B807463846FDF77AFF43
:1036D000FBE7000004207146084201D0EFF30980A7
:1036E000EFF3088000B50149884700BD5337281023
:1036F0000548014603B4684680F30988AFF30080AB
:10370000FFF73CFFFFF7CCFFA5EDF5FE0000082812
:10371000FFFF0B2800000020FF3F002000000000FA
:10372000FF3F000000127A00000000000024F400B7
:1037300000800000008000000080000038B50446D2
:103740000D462846FFF78CFFA84218BF00242046EC
:1037500032BD816911F8021CC9B2016070470000D6
:103760000301000010110010000000000000000024
:103770000000000000000000000000000000000049
:103780000000000000000000000000000000000039
:103790000000000000000000000000000000000029
:1037A0000000000000000000000000000000000019
:1037B000FFF7FEBFFFF744BFFFF742BFFFF740BF71
:1037C000FFF7FEBFFFF7FEBFFFF7FEBFFFF7FEBF2D
:1037D000FFF7FEBFFFF7FEBFFFF7FEBFFFF7FEBF1D
:1037E000FFF7FEBFFFF7FEBFFFF7FEBFF002FF517E
:1037F0002F281004F1FF04F1FF04F1FF04F1FF048E
:10380000F1FF04F1770410106C013A0141016001ED
:1038100080835840000A5840800D08121D04130090
:1038200060041265041264041263040003624078A9
:103830000107000000000000000000000000000080
:103840000000000000000000000000000000000078
:103850000000000000000000000000000000000068
:103860000000000000000000000000000000000058
:103870000000000000000000000000000000000048
:103880000000000000000000000000000000000038
:103890000000000000000000000000000000000028
:1038A0000000000000000000000000000000000018
:1038B0000000000000000000000000000000000008
:1038C00000000000000000000000000000000000F8
:1038D00000000000000000000000000000000000E8
:1038E00000000000000000000000000000000000D8
:1038F00000000000000000000000000000000000C8
:1039000000000000000000000000000000000000B7
:1039100000000000000000000000000000000000A7
:103920000000000000000000000000000000000097
:05393000000000000092
:04000005102836F198
:00000001FF
