:020000041028C2
:1000000000000C2875692810C96F2810F16D2810A0
:10001000CD6F2810D16F2810D56F28100000000078
:10002000000000000000000000000000816E2810A9
:10003000D96F281000000000DD6F2810E16F281034
:10004000FB67281021682810476828106D68281061
:1000500093682810B9682810DF68281005692810EF
:10006000E56F2810E96F2810ED6F2810F16F281048
:10007000F56F2810F96F2810FD6F281001702810F7
:1000800040F0200070472DE9F14FB0B09246049146
:100090000DF142013A9A2B9199464A7000200AE0EC
:1000A0001AF8011B0498309A90470028049000F039
:1000B00034860D98401C0D909AF8000050B1252808
:1000C000EED1002100220791089209910A920B912A
:1000D0000C9204E00D9800F022BE41F001011AF8E4
:1000E000010F2028F9D023280CD02B2804D02D284C
:1000F00005D0302809D00BE041F00201EFE741F0D4
:100100000401ECE741F00801E9E741F01001E6E7FE
:100110002A280FD1D9F8002052F8040BC9F8002082
:1001200000280F9003D540420F9041F004010AF1DE
:10013000010A14E00F92DFF8EC3B0AE00F989842B6
:1001400005DA00EB800402EB4402303A0F920AF128
:10015000010A9AF80020A2F130000A28EED39AF89A
:1001600000002E2803D04FF0FF320E9229E01AF83B
:10017000010F2A2809D1D9F8000050F8042BC9F83A
:1001800000000E920AF1010A1BE02D280CBF0AF1B3
:10019000010A002000220E92DFF8884B0BE040B9E4
:1001A0000E9AA24205DA02EB820503EB4503303BCF
:1001B0000E930AF1010A9AF80030A3F130020A2ADC
:1001C000EDD3ADF840100FF660309AF8001000F053
:1001D000EDFE08B11AF8010B8DF842009DF84200BF
:1001E000682805D19AF8000068280CD1622106E041
:1001F0006C2804BF9AF800006C2804D171218DF896
:1002000042100AF1010A12A806901AF801BBBBF1CC
:1002100025012CD01C3900F09481091F022940F2DD
:100220009081133900F0AB84093900F08A81891E6E
:1002300000F04085491E00F0ED84491E022940F27D
:100240008081091F00F0E684491F00F0EF80491EFD
:1002500000F09584491E00F0D780C91E0CD0891E7D
:1002600000F08D84C91E00F08A8400F02EBD0123A9
:100270000793252100F026BDD9F8000050F8044B63
:10028000C9F80000002C059440F0AB802B99487809
:10029000002800F0A1804FF0FF340FF6942000F00A
:1002A00095FE241A40F0398500F01BBD01236A46F3
:1002B00002A9304600F000FE002840F02E85641EA2
:1002C000F4D13096079C12AF74B1309E17F8011B21
:1002D0000498B0470028049000F01F850D98401C3A
:1002E000641E0D90F2D130960A9C3021002C8DF8BE
:1002F00000100CDD309E01236A4602A9304600F052
:10030000DBFD002840F00985641EF4D13096059F7E
:10031000089C74B1309E17F8011B0498B047002860
:10032000049000F0FA840D98401C641E0D90F2D1E8
:1003300030960B9C3021002C8DF800100CDD309E87
:1003400001236A4602A9304600F0B6FD002840F0BD
:10035000E484641EF4D1309605980899099C4718E6
:1003600074B1309E17F8011B0498B0470028049020
:1003700000F0D3840D98401C641E0D90F2D130968D
:100380000C9C3021002C8DF800100CDD309E0123D8
:100390006A4602A9304600F08FFD002840F0BD8477
:1003A000641EF4D130969DF8400041077FF584AE7D
:1003B0002020002D8DF800007FF77EAE309C0123B9
:1003C0006A4602A9204600F077FD002840F0A58487
:1003D0006D1EF4D130946FE60FF63C30059000F0BE
:1003E00080BC0E9D002D04D5204600F00FFE044673
:1003F00007E02A46204600F025FE002814BF041B13
:100400002C46089400F06DBCD9F8001051F8040B8C
:10041000C9F8001020F00004002121F0FF35CDE9DB
:10042000024512AB0593782100F040BC2B99487827
:1004300020B14FF0FF340FF6B02030E79DF84200B6
:10044000622860D0682817D06A283FD06C2806D070
:10045000712847D074282CD07A281DD062E0D9F8B2
:10046000001051F8040BC9F80010002866D14FF0B5
:10047000FF340FF68C2012E7D9F8001051F8040B66
:10048000C9F8001020B94FF0FF340FF6742006E7CA
:100490000D99018000F025BCD9F8001051F8040B2B
:1004A000C9F80010002849D14FF0FF340FF6502052
:1004B000F5E6D9F8001051F8040BC9F8001000282F
:1004C0003CD14FF0FF340FF63820E8E6D9F80010A1
:1004D00051F8040BC9F8001080B94FF0FF340FF643
:1004E0002020DCE6D9F8001051F8040BC9F8001000
:1004F00020B94FF0FF340FF60820D0E60D9AD3173D
:10050000C0E90023EDE3D9F8001051F8040BC9F855
:10051000001020B94FF0FF340FF6E410BFE60D993C
:100520000170DEE3D9F8001051F8040BC9F800108F
:1005300020B94FF0FF340FF6C810B0E60D990160F6
:10054000CFE39DF842004C2807BFD9F80010CA1D20
:10055000D9F80000C21D22F00702C9F80020D2E934
:1005600000010832C9F80020CDE90201C80F02D00D
:1005700007982D210AE0BDF84000810702D50798B1
:100580002B2103E0C00705D50798202112AA11549A
:10059000401C079012A807994BF0200300EB010CB8
:1005A000DDE90201CDE92C01612BCDF814C021ACAD
:1005B0000BD00E98002848BF062105D404BF4BF08D
:1005C0002000672801D101210E91DDE902014F00D1
:1005D00047EAD0777E15FF174FF0FF32974208BFEA
:1005E000964210D1090341EA10510003002908BFC7
:1005F000002808D0ABF1610503211A2D089118D30A
:100600000FF61C1110E0DDE902014A00521512F14B
:10061000010F11D108030FD1ABF1610503211A2D90
:1006200008911FD30FF600110322604600F036FD3B
:1006300057E30FF6E801F7E7DDE902016A4600F04B
:1006400081FDCDE902014BF02000612811D1059810
:1006500030210170821C0592BBF1610F0CBF782123
:10066000582102E00FF6BC01DEE741700798801CBC
:100670000790DDE9020120F0000231F0004308BFDD
:10068000002A02D10026002542E14BF02008B8F1F3
:10069000610F40F092800E98002847BF2121019100
:1006A000401C0190019FDDE92C017F1C00220023EA
:1006B000DDE9024500F07EFD38BF85F00045009978
:1006C0008DF88420091F002F00910DF1850632DD81
:1006D000204629460022002300F086FD2BD21C2252
:1006E00000F09CFD04460D4600F01AFEFF1F002F8F
:1006F000804609DD00F01BFE02460B4620462946D7
:1007000000F01CFE04460D46F01D0721B8F1000F55
:100710000CDD491E5EBF08F00F0200F8012D4FEA04
:100720002818F3D502E0002200F8012D491EFAD561
:10073000C61D002FCCDC0DF18500361A01980DF195
:1007400085048642D8BF304600282FD4B04206DA4E
:100750000DF185010A5C082AA8BF0F2100DA0021EB
:10076000024621AB134400E0401E13F80159521E0B
:100770008D42F9D00F2904D10DF185018B5C5B1CF2
:100780008B54002A04D50099091D21AC401C00910E
:10079000411E0BD4621813783033DDB23A2DA4BF5A
:1007A0005B443A3B491E02F80139F4D50E99002901
:1007B00040F1AC80421E0E92A8E00099DFF8E826D6
:1007C00047F29750414391FBF2F20092DDE92C454C
:1007D000C2F10702002A25F0004504DD2046294623
:1007E00000F03EFB0BE052420020DFF8C01600F0A4
:1007F00037FB02460B462046294600F0A8FD04467A
:100800000D46B8F1660F06BF009F0A3706270E98FF
:100810003F18142FC8BF142730208DF884000DF125
:100820008506002F34DD2046294600F099FD01465B
:100830000A4606F1080304200A26B2FBF6F606EB88
:10084000860EA2EB4E02303203F8012C0A22B6FBD0
:10085000F2F202EB820EA6EB4E063036401E03F893
:10086000026DE9D1083F002F03F10806D9DD0846E3
:1008700000F07DFD02460B462046294600F05EFD55
:100880000022DFF82C3600F079FD04460D46CAE759
:100890000DF18500361A0DF1850404E00098401E24
:1008A000761E0090641C20783028F7D0B8F1660FCF
:1008B00002D10098401C04E0B8F1650F0CBF012084
:1008C00000200E9940188642B8BF701E00281DD423
:1008D000B04204DA215C3429C8BF392100DC302160
:1008E0000246631E9D1800E0401E15F80169521E65
:1008F0008E42F9D0392902D1A15C491CA154002AA9
:1009000004D50099491C1C46401C00910646009DD8
:100910000E9F30B2002802DC01260FF210644BF06B
:100920002000662808BF6D1C15D067280FFA85F8CF
:1009300041D118F1040F44DBB84542DA9DF840007C
:100940006D1C010703D430B2B842D8BF074628B2A5
:100950003F1A48BF00270FFA85F8B8F1000F00F3DF
:10096000AF800898411C0891302205990A54002F45
:1009700003DC9DF84000010705D50898411C08914B
:100980002E2205990A5417EB080FB8BF7D422DB2ED
:100990006842ED1932B20B909542B8BF2E46059BC6
:1009A000089836B2099632462146184400F076FB84
:1009B000AD1B0C95CCE0BBF1610F15D14FF0700B66
:1009C00017E030B2B84204DA9DF840100A0758BF69
:1009D00007467F1E48BF0027BBF1670F14BF4FF0CB
:1009E000450B4FF0650B04E0BBF1410F08BF4FF022
:1009F000500B0898411C0891002F059914F8012B01
:100A00000A5403DC9DF84000010719D50898411CE1
:100A100008912E2205990A54002F11DD761E30B25E
:100A20008742B8BF3E460598089B32B2214618441B
:100A300000F034FB089836B23018BF1B08900B97B3
:100A4000059808990844B8F1000F80F800B003D465
:100A50002B224270821C04E02D2145464170821CED
:100A60006D4200212CAB28460AE004460A2094FB84
:100A7000F0F000EB8005A4EB450403F8014B491CA2
:100A800000B20028F1DC012906DC4BF020006528CB
:100A900004BF302002F8010B00292CAB08D1302014
:100AA00002F8010B06E0491E585C303002F8010BD9
:100AB0000029F8DC059908980844121A099247E0C1
:100AC00030B229B288421BDA0598089B32B221461F
:100AD000184400F0E3FA089936B271180891A8EBAF
:100AE0000600002F0B9003DC9DF84000020705D59F
:100AF000059A2E2050540999491C09910C9727E01A
:100B00000598089B2AB22146184400F0C7FA0898B5
:100B1000761B4044002F089003DC9DF840100A0724
:100B200004D5411C08912E2205990A5430B28742FF
:100B3000B8BF3E460598089B32B204EB0801184442
:100B400000F0ACFA089836B23018BE1B08900B962D
:100B50009DF8400000F01400102840F0C280079A71
:100B600008980B99821809988A1882180C980F997E
:100B70008018884280F2B580081A0A90B1E09DF88A
:100B80004200622808D068280ED06A2814D06C2849
:100B90001FD0712810D01CE0D9F8001051F8040BB8
:100BA000C9F80010C0B21AE0D9F8001051F8040BCF
:100BB000C9F8001080B212E0D9F80000C21D22F07E
:100BC0000702C9F80020D2E900010832C9F8002064
:100BD00006E0D9F8001051F8040BC9F80010002104
:100BE000CDE902019DF8400001075AD5DDE9022355
:100BF000002B08BF002A54D04BF02000782850D199
:100C0000079812A930220A54401C431C079301F88C
:100C100000B046E09DF84200622808D068280ED057
:100C20006A2814D06C281FD0712810D01CE0D9F885
:100C3000001051F8040BC9F8001040B21AE0D9F8BE
:100C4000001051F8040BC9F8001000B212E0D9F8F6
:100C50000000C21D22F00702C9F80020D2E90001FD
:100C60000832C9F8002006E0D9F8001051F8040B4A
:100C7000C9F80010C117CDE90201002902D5079873
:100C80002D210AE0BDF84000810702D507982B21ED
:100C900003E0C00705D50798202112AA1154401C73
:100CA000079012A8079901440591594602A800F03F
:100CB0004DF816E001200790D9F8000050F8041B09
:100CC000C9F800008DF848100BE001212522BBF186
:100CD000000F07918DF8482003D0022207928DF86B
:100CE00049B00F9D07990A986D1A08992D1A0B980B
:100CF0006D1A09992D1A0C986D1A9DF840102D1A2D
:100D000048073FF5DFAA2021002D8DF800107FF75E
:100D1000D9AA309E2C46FFF7C9BA4FF0FF3031B048
:100D2000BDE8F08FCBCCCC0C686A6C747A4C0000B8
:100D30007072696E74665F733A2062616420257315
:100D400020617267756D656E740000002DE9FC47C7
:100D500007468A463C6950466F2808BF082505D0DB
:100D6000FFF78EF9782814BF0A251025D7E900016E
:100D70003C2680468946BAF1640F18BFBAF1690F64
:100D800005D1002903D5D8F1000869EB4909B9F16B
:100D9000000F08BFB8F1000F0CD1386B50B9082D07
:100DA0003AD197F83800010736D530223B2684F82F
:100DB0003B2031E08DF800A0404649462A46EB171B
:100DC00000F0E6FA3032D0B2761E3A2801960EDAFA
:100DD000A255404649462A46EB1700F0D9FA80460C
:100DE0005FEA010908BFB8F1000F05D108E09DF8DE
:100DF00000001218513AEBE7F868A1198842DBD3DA
:100E0000082D09D197F83800010705D5A05D3028D5
:100E100002D0761E3020A055C6F13C03BB61A1195B
:100E2000F960386B834208DAC31A3B624FF6EF7001
:100E3000398F01403987BDE8F38700280ED597F830
:100E4000380000F01400102808D17A6B7969386AEC
:100E5000521A121AD21A002AC8BF3A62BDE8F387A2
:100E60002DE9D04306460F4614464FF00008DFF840
:100E7000449012E0E00707D542464B4630463946DB
:100E800000F07CFA06460F464046494642464B462D
:100E900000F074FA641080468946002CEAD130468E
:100EA0003946BDE8D0830000A08601000000F03F75
:100EB00084D7974100002440F8B505460E461746F2
:100EC0001C4600205CB117F8011BB068A847B06051
:100ED00030B1F06A401CF0620020641EF3D1F2BD14
:100EE0004FF0FF30F2BD00007072696E74665F7380
:100EF0003A20256E20646973616C6C6F77656400BD
:100F00007072696E74663A2062616420256E206199
:100F10007267756D656E7400000000006E616E0092
:100F20004E414E00696E6600494E46003000F0B4F6
:100F30000246106895681318506803EB5004C00708
:100F400048BF4D44A3422DD013F8016B16F00300A7
:100F500004BF13F8010BC01C31090F2907D113F886
:100F6000011B0F3103E013F8017B05F8017B401EE4
:100F7000F9D10029E6D013F8010BC6F38106032E40
:100F800008BF13F8016B00EB0620404228440026FE
:100F9000B71E8F421EBF10F8017B05F8017B761C3F
:100FA000F6D1CFE7F0BC02F10C007047C9B202786D
:100FB0008A421AB11CBF10F8012FF9E718BF0020B0
:100FC00070470268531C03601170704780B500B908
:100FD00006A005490B681BB122220021984701E0B9
:100FE00000F0EEFA222002BD4CBA0828636F6E733F
:100FF000747261696E742068616E646C65723A2007
:10100000626164206D6573736167650000F10103BF
:10101000810704D010F8011B820781B1FAD1026860
:10102000A2F10131914311F0803104BF50F8042F37
:10103000F6E709BAB1FA81F100EBD100401CC01A01
:1010400070470000C9B2830706D0521E22D310F8A1
:10105000013B9942F7D11FE0083A13D302F1040291
:1010600041EA012141EA014150F8043B121F21BF2E
:101070004B40A3F1013C2CEA030C1CF0803FF3D061
:10108000C9B2001F083210F8013B521E28BF91EA76
:10109000030FF8D818BF0120401E704762B38B07BA
:1010A00008D0521E11F8013B00F8013B00F02480EB
:1010B0008B07F6D1830740F0208000BF103A07D39A
:1010C00030B4B1E83810103AA0E83810F9D230BC8A
:1010D000530724BFB1E80810A0E8081044BF51F836
:1010E000043B40F8043BD20724BF31F8022B20F820
:1010F000022B44BF0B7803707047121F17D35B009D
:1011000009D151F8043B20F8023B1B0C121F20F8B8
:10111000023BF6D20BE051F8043B00F8013B1B0AFE
:1011200020F8023B1B0C121F00F8013BF3D238BF22
:10113000121D521E24BF11F8013B00F8013BF8D8E4
:101140007047000010B5144600F002F8226010BD90
:10115000C1F30A5343B14A0012F5001F28D2A3F28B
:10116000FE32A1EB0251704750EA410C20D001F051
:10117000004C31EA0C01B1FA81F204BFB0FA80F3FD
:10118000D2180B3AB2F120032CBF00FA03F19140C0
:1011900041EA0C013EBFC2F1200C20FA0CF31943C6
:1011A0009040524240F2FD33D21A01EB0351704796
:1011B0000022704741EA030C50EA4C0C52EA0C0C36
:1011C0004FF4001C09D307D01CEB410F9CBF1CEB54
:1011D000430F8B4208BF824270471CEB430FFBD882
:1011E000994208BF9042704741EA030C50EA4C0C08
:1011F00052EA0C0C4FF4001C09D307D01CEB410F32
:101200009CBF1CEB430F994208BF904270471CEBF8
:10121000410FFBD88B4208BF8242704700B541ECBA
:10122000100B104600F004F851EC100B00BD00BF8D
:10123000020030EE101B40F2FF7C37D41CEA115341
:1012400013D063456BD09B18634504D201EB025168
:1012500020EE101B704701F0004141EA0C510020C4
:1012600041EC100BAFF30080704710EE100B50EA0A
:10127000410054D0B2F57F7F08D202EB5C01090532
:10128000002041EC110B20EE010B70474FF0FE41A6
:10129000002341EC113B20EE010BB2F57E7230EEE3
:1012A000101B4FEA410342EB5353CDE752421CEA75
:1012B000115316D0634532D09A4204D2A1EB0251A9
:1012C00020EE101B70475B1ED21AA1EB035120EEDB
:1012D000101B372A0CD3002001F0004141EC100B09
:1012E000C0E710EE100B50EA410018D0372AF2D2B6
:1012F000C2EB5C021105002041EC110BF1EE100A6B
:1013000020F01F0121F4F851E1EE101A20EE010B3C
:10131000F1EE101AE1EE100A11F0080FA2D1704799
:1013200041EC100BBDEEC00B10EE100A704700EE42
:10133000100AB8EEC00B51EC100B704741EC100BCB
:1013400043EC112B30EE410B51EC100B704741EC8C
:10135000100B43EC112B80EE010B51EC100B70477E
:1013600041EC100BBCEEC00B10EE100A704700EE03
:10137000100AB8EE400B51EC100B704741EC100B0B
:1013800043EC112B20EE010B51EC100B70470000C9
:10139000BBBBE1B1B2F5803F80F07E80022A1ED94E
:1013A0008C46B1FBF2F102FB11C31B0443EA10436C
:1013B000B3FBF2FC02FB1C3380B240EA0343B3FBF5
:1013C000F2F002FB103240EA0C4000237047022A80
:1013D00005D98446B0FBF2F002FB10C270474AB157
:1013E00005D100F0010249085FEA30007047002291
:1013F0000023704700F0E8B80B0002000021002035
:101400007047904271EB030CF6D3B3F5803F2FD2B7
:10141000F0B5B3FA83F7B1FA81F4A7F10F0E3D1BD3
:101420005340CEF1200602FA0EF2F3415340B5F1DB
:101430000F0746D80F3C2C444140C4F12006A04081
:10144000F1414140B1FBF3F603FB1611A2FB064547
:10145000001BA94102D2761E8018594180EA010280
:1014600021FA0EF362FA0EF200215A403046F0BD26
:1014700030B4B1FBF3FC03FB1C11A2FB0C45001BB9
:10148000A94103D2ACF1010C8018594130BC02468D
:101490000B46604600217047B2F1807F65D3F0B5FE
:1014A000B2FA82F7B1FA81F4C7F10F063D1B22FAB6
:1014B00006F307F1110EF24120355A40B5F10F073E
:1014C000B8D94140C4F12006A040F1414140B1FBF0
:1014D000F3FC03FB1C11A2FB0C45001BA94103D22A
:1014E000BCF1010C801859410F2F12D30F3FC903D3
:1014F00041EA5041B1FBF3F603FB1611A2FB06458E
:10150000D4EBC030A94102D2761E8018594146EA78
:10151000CC3C07B34140C7F12006B840F1414140FF
:10152000B1FBF3F603FB1611A2FB0645001BA94114
:1015300002D2761E8018594180EA010221FA0EF388
:10154000C7F1200462FA0EF20CFA07F05A402CFAA6
:1015500004F13043F0BD80EA010221FA0EF30021CC
:1015600062FA0EF260465A40F0BD8C46B1FBF2F1D1
:1015700002FB11C31B0243EA1063B3FBF2FC02FB44
:101580001C331B024CEA002043EA1063B3FBF2FC5D
:1015900002FB1C331B024CEA002043EA1063B3FB3E
:1015A000F2FC02FB1C331B024CEA002043EA1063EE
:1015B000B3FBF2FC02FB1C324CEA00200023704714
:1015C000012000F003B800007047000080B5AFF3C1
:1015D0000080024A11001820ABBEFBE72600020083
:1015E00080B501000820DFF864261060C9B2012030
:1015F00000F0A6FF0820DFF86416086001BD2DE9A1
:10160000F047060015001F00DFF844863000B8F8E8
:10161000002080B2904201D2012000E000200C00A6
:10162000DFF83096B0224946C0B201F06CFBDFF81B
:1016300028A62000BAF8001080B2884201D201200A
:1016400000E00020B1224946C0B201F05CFB280056
:10165000B8F8001080B2884201D2012000E00020DA
:10166000B2224946C0B201F04EFB3800BAF8001071
:1016700080B2884201D2012000E00020B322494616
:10168000C0B201F040FBDFF8D8050078002805D093
:10169000022847D024D3032866D086E02A20FFF70B
:1016A0009FFF2836310089B2012000F09EFF2835C7
:1016B000290089B2012000F098FF2B20FFF790FF4E
:1016C0003434210089B2012000F08FFF3437390013
:1016D00089B2012000F089FF2C20FFF781FF64E030
:1016E0002A20FFF77DFF2836310089B2012000F063
:1016F0007CFF2835290089B2012000F076FF2B20DD
:10170000FFF76EFF3534210089B2012000F06DFF34
:101710003537390089B2012000F067FF2C20FFF730
:101720005FFF42E02A20FFF75BFF3436310089B2C9
:10173000012000F05AFF3435290089B2012000F061
:1017400054FF2B20FFF74CFF2834210089B20120E1
:1017500000F04BFF2837390089B2012000F045FF27
:101760002C20FFF73DFF20E02A20FFF739FF353618
:10177000310089B2012000F038FF3535290089B2E7
:10178000012000F032FF2B20FFF72AFF2834210030
:1017900089B2012000F029FF2837390089B20120E1
:1017A00000F023FF2C20FFF71BFFBDE8F08700B5FA
:1017B00085B0684601F0C5FA0120ADF80000DFF8F9
:1017C00090040088ADF80200DFF88C040088ADF8C2
:1017D0000400DFF8E8050078002803D002280FD0C5
:1017E00007D30DE006208DF8060008208DF80700CD
:1017F00006E008208DF8060010208DF80700FFE7AE
:101800000FF2C12003900FF211000490684601F01E
:10181000A8FA05B000BD0000F8B5DFF83444208810
:10182000400001F0D5FA0500002000200820DFF874
:1018300090150860DFF820643088431E9BB2208832
:10184000421E92B200210020FFF7D9FE002005E0E1
:10185000DFF87015098825F81010401C218888428F
:10186000F6D3002705E022882900012000F012FFAE
:101870007F1C30888742F6D30820DFF84C150860BB
:10188000280001F0AEFAF1BDDFF8D4130870087833
:101890000028012803D9801E012809D910E0F02072
:1018A000DFF8AC1308808720DFF8AC13088007E06E
:1018B0008720DFF89C130880F020DFF89C13088055
:1018C0007047DFF808251080DFF8F80401807047C2
:1018D000F8B5D8B005000E0014002800DFF870132A
:1018E000098880B2884201D2012000E00020DFF8A0
:1018F00064734FF4EA723900C0B201F004FA3000A8
:10190000DFF85413098880B2884201D2012000E038
:10191000002040F2D5123900C0B201F0F4F90020E5
:1019200000200820DFF898140860DFF890040078A1
:10193000002804D0022800F0BF8046D3BCE0F31D8D
:101940009BB26A1D92B2310089B2280080B2FFF7C3
:1019500056FE002000E0401C0100C9B206292EDA24
:101960000621DFF86C242300DBB24B431A4403004A
:10197000DBB21A4412F8C02C00230BE040AD1E006D
:10198000F6B24E4356FA80F6DFF838743F8825F8F1
:10199000167010E01D00EDB2082DDCDAD507EDD58C
:1019A00040AD1E00F6B24E4356FA80F6DFF81C74C6
:1019B0003F8825F81670D2B252085B1CEAE7302245
:1019C00040A9012000F066FE76E016F10F039BB2FD
:1019D000EA1D92B2310089B2280080B2FFF70FFEF3
:1019E000002000E0401C0100C9B208295EDADFF8DF
:1019F000E4232100C9B2090111440300DBB21944F8
:101A0000B1F5007109782300DBB21B011A44030011
:101A1000DBB21A44B2F5FC72127800231BE06D466B
:101A20001E00F6B2F60056FA80F6DFF898733F888B
:101A300025F816700CE0CD07F1D56D461E00F6B204
:101A4000F60056FA80F6DFF884733F8825F81670A2
:101A5000C9B249085B1C1D00EDB2082DEBDB00216B
:101A60000DE06B460D00EDB2ED0055FA80F503EB8D
:101A70004503DFF850532D88A3F8805012E00B0087
:101A8000DBB2082BAEDAD307EBD56B460D00EDB217
:101A9000ED0055FA80F503EB4503DFF830532D8850
:101AA000A3F88050D2B25208491CE8E78022694668
:101AB000012000F0EFFDFFE70820DFF89C1508602B
:101AC00059B0F0BDF8B504000E0015002000DFF895
:101AD0008011098880B2884201D2012000E00020F4
:101AE000DFF8707140F22B223900C0B201F00BF91F
:101AF0003000DFF86411098880B2884201D20120E9
:101B000000E000204FF40B723900C0B201F0FBF886
:101B100000270EE00CE0380080B22A5C310089B268
:101B2000380080B2C00010FA84F080B2FFF7D0FE17
:101B30007F1C380080B2285C002817D0DFF898029C
:101B40000078002803D00228E4D0E4D3F0E738007E
:101B500080B22A5C310089B23B009BB2062043432D
:101B600013FA84F080B2FFF7B3FEE1E7F1BD2DE98F
:101B7000FE43070016001D003800354A128880B267
:101B8000904201D2012000E000200C00DFF8C48068
:101B90004FF41C724146C0B201F0B5F82000DFF8E6
:101BA000BC14098880B2884201D2012000E00020E4
:101BB00040F271224146C0B201F0A5F82800C0B23F
:101BC000002801D0012000E0002040F272224146AE
:101BD000C0B201F098F82800C0B20B2801DA012049
:101BE00000E0002040F273224146C0B201F08BF8C1
:101BF0005FF001080C210022E946484601F0F4F8A4
:101C00002900C9B22022E946484601F0EDF8280033
:101C1000C0B20A280CDA03E00A2000FB08F86D1EA7
:101C20002800C0B20028F7D1B6FBF8F008FB106618
:101C30003100684601F00CF96A46210089B238008B
:101C400080B2FFF73FFFBDE8F7830000040B31408F
:101C500014070828546C281016070828080B314070
:101C600054BA08282DE9F84F804614009A46404699
:101C7000DFF8EC23128880B2904201D2012000E00C
:101C800000200F00DFF8DC934FF43F724946C0B2EA
:101C900001F039F83800DFF8C413098880B28842AF
:101CA00001D2012000E0002040F2FD224946C0B2EE
:101CB00001F029F8002C01D0012000E000200C9D4B
:101CC0000B9E40F2FE224946C0B201F01CF80020F3
:101CD000002000200020300080B2400001F078F8A1
:101CE0008146082036490860E819431E9BB216EB6E
:101CF0000800421E92B2390089B2404680B2FFF716
:101D00007EFC5FF0000B0A9FDDF8348007E03200B4
:101D100092B24946012000F0BDFC1BF1010B2800E6
:101D200080B2834541D2380080B200FB0BF029001D
:101D300089B2B0FBF1F1504680B241432144002208
:101D40000EE04FF6FF7029F8120008E04346DBB2C0
:101D500080B29BB29842F4D2002029F81200521CA3
:101D6000300080B28242D2D2504680B200FB02F0F4
:101D700033009BB2B0FBF3F0085C4346DBB2002BB0
:101D8000E4D10300DBB2DB08DBB2DB0284465FFA9E
:101D90008CFC5FEA9C0C5FFA8CFC53EA4C13C0F39A
:101DA000C400034329F81230D9E70820DFF8A8124D
:101DB0000860484601F015F8BDE8F18F20070828B3
:101DC000040631401A070828080631401807082879
:101DD000445E28103C542810200708281FB508200E
:101DE000029004200190012000900123A14A0021CB
:101DF000012000F0B7FC032300220121B32001F0F1
:101E0000D8F8032300220121B42001F0D2F80323E3
:101E100001220121632001F0CCF8032301220121DA
:101E2000582001F0C6F8944C2078FFF72DFD8F481C
:101E300001888F480088FFF744FD10208F49086013
:101E4000052001F0AFF910208D490860782001F0DD
:101E5000A9F90820844908601120FFF7C1FB36204A
:101E6000FFF7BEFB2078002805D002280DD007D34D
:101E700003280FD012E0A021012000F061FB0DE04B
:101E80007021012000F05CFB08E00021012000F03F
:101E900057FB03E0C021012000F052FB3A20FFF77E
:101EA0009FFB0521012000F04BFBB220FFF798FBC0
:101EB0000C21012000F044FB0C21012000F040FB2C
:101EC0000021012000F03CFB3321012000F038FB11
:101ED0003321012000F034FBB720FFF781FB3521CF
:101EE000012000F02DFBBB20FFF77AFB37210120FA
:101EF00000F026FBC020FFF773FB2C21012000F02F
:101F00001FFBC220FFF76CFB0121012000F018FB32
:101F1000C320FFF765FB1221012000F011FBC42054
:101F2000FFF75EFB2021012000F00AFBC620FFF72F
:101F300057FB0F21012000F003FBD020FFF750FBDF
:101F4000A421012000F0FCFAA121012000F0F8FA00
:101F5000E020FFF745FBD021012000F0F1FA042139
:101F6000012000F0EDFA0D21012000F0E9FA112125
:101F7000012000F0E5FA1321012000F0E1FA2B2105
:101F8000012000F0DDFA3F21012000F0D9FA5421B0
:101F9000012000F0D5FA4C21012000F0D1FA1821DF
:101FA000012000F0CDFA0D21012000F0C9FA0B212B
:101FB000012000F0C5FA1F21012000F0C1FA232101
:101FC000012000F0BDFAE120FFF70AFBD02101203B
:101FD00000F0B6FA0421012000F0B2FA0C21012031
:101FE00000F0AEFA1121012000F0AAFA132101201D
:101FF00000F0A6FA2C21012000F0A2FA3F210120D6
:1020000000F09EFA4421012000F09AFA51210120AB
:1020100000F096FA2F21012000F092FA1F210120F2
:1020200000F08EFA1F21012000F08AFA2021012001
:1020300000F086FA2321012000F082FA2120FFF728
:10204000CFFA2920FFF7CCFA082003490860FFF7F0
:10205000E3FBFFF7ACFB1FBD08063140160708285D
:1020600014070828546C2810040631401A07082861
:102070001807082880C3C90154BA0828040B314046
:10208000080B3140C0F840127047D0F80802C00574
:10209000C00D7047D0F80802C0F3C030704738B5A3
:1020A00005002800FFF7F1FF04002800FFF7F2FF0A
:1020B0000419002C01D1012000E00020C0B232BD83
:1020C0000068C0F38130002801D1802000E040206A
:1020D0007047016851F0004101607047203002688C
:1020E00061F39B6202607047022801D3012010E077
:1020F0000B00DBB2042B01DB01200AE0DFF84C36D9
:1021000003EB8000C9B2405C824201D3012000E0B1
:1021100000207047F8B504000F0015001E00022CC7
:1021200001D301202AE02A003900C9B22000FFF7BC
:10213000DBFF012801D1012020E006983900C9B257
:1021400002291ED1B6F5803F19D2202817D24FF4AC
:10215000C052DFF8FC1563030B4403EB8503134403
:102160001F6866F317271F606403214401EB850194
:1021700011440A6860F3C7020A600020F2BD012022
:10218000FCE7FFB2032F1FD1B6F1807F1AD22028BF
:1021900018D24FF4E052DFF8B81563030B4403EB99
:1021A000850313441F6807F0FF0757EA06271F60DF
:1021B0006403214401EB850111440A6860F3C702FE
:1021C0000A60DAE70120D9E70120D7E700B2001260
:1021D000C0B27047F8B505000E001700280000B225
:1021E000FFF7F4FF04002000C0B2022801D3012051
:1021F00024E03A003100C9B22000C0B2FFF774FFFA
:10220000012801D1012019E0DFF844152000C0B2F7
:10221000400308442A00D2B200EB8200D0F8000C40
:10222000F6B266F3092067F30700E4B264032144C1
:10223000EDB201EB8501C1F8000C0020F2BD70B5D4
:1022400004000D001600022C01D301201DE0320015
:102250002900C9B22000FFF747FF012801D1012062
:1022600013E0DFF8EC146003085850F0004050F021
:10227000407050F47F00EDB265F3092066F307006B
:102280006203885064030859002070BD0100C0201B
:10229000C9B2002905D0022907D004D3032906D0EA
:1022A00006E0122004E0622002E07A2000E01A201A
:1022B000C0B270470100C020C9B2002905D0022970
:1022C00007D004D3032906D006E0112004E06120E2
:1022D00002E0792000E01920C0B270470100C02060
:1022E000C9B2002905D0022907D004D3032906D09A
:1022F00006E0102004E0602002E0782000E01820D2
:10230000C0B270470100C020C9B200290BD0022919
:102310000DD00AD304290ED00BD306290FD00CD32D
:1023200007290ED00EE013200CE014200AE06320F1
:1023300008E0642006E07B2004E0292002E01B2066
:1023400000E01C20C0B2704701000020C9B2002983
:1023500005D0022907D004D3032906D006E01320B4
:1023600004E0132002E0132000E01320C0B2704705
:1023700001000020C9B2002905D0022907D004D3EA
:10238000032906D006E0132004E0132002E0132006
:1023900000E01320C0B2704701000020C9B200293C
:1023A00005D0022907D004D3032906D006E0132064
:1023B00004E0132002E0132000E01320C0B27047B5
:1023C00001000020C9B200290BD002290DD00AD388
:1023D00004290ED00BD306290FD00CD307290ED019
:1023E0000EE013200CE013200AE0132008E0132075
:1023F00006E0132004E0132002E0132000E0132085
:10240000C0B27047C9B2082902D0102946D096E060
:10241000DFF840130200D2B251F82220126832F4E1
:1024200040420300DBB251F823301A600200D2B2FE
:1024300051F82220D2F80022520952010300DBB2E7
:1024400051F82330C3F800220200D2B251F8222002
:10245000D2F8002252F007020300DBB251F8233019
:10246000C3F800220200D2B251F82220D2F8002391
:10247000520952010300DBB251F82330C3F80023A4
:102480000200D2B251F82220D2F8002352F0070203
:10249000C0B251F82000C0F8002350E0DFF8B412B9
:1024A0000200D2B251F82220126832F440420300F6
:1024B000DBB251F823301A600200D2B251F8222068
:1024C000126852F480420300DBB251F823301A60E4
:1024D0000200D2B251F82220D2F800225209520151
:1024E0000300DBB251F82330C3F800220200D2B25D
:1024F00051F82220D2F8002252F00F020300DBB282
:1025000051F82330C3F800220200D2B251F8222041
:10251000D2F80023520952010300DBB251F82330F4
:10252000C3F800230200D2B251F82220D2F80023CF
:1025300052F00F02C0B251F82000C0F800237047DB
:10254000F8B504000E0008212000C0B2FFF75AFFC2
:10255000DFF804522000C0B2285C08280FD0200009
:10256000C0B2285CC010DFF8F41111EBC0110120DB
:102570002200D2B2AA5C12F0070290400860DFF895
:10258000D471F6B231002000C0B257F82000FFF736
:1025900079FD2000C0B257F82000FFF791FD06003A
:1025A0002000C0B257F82000FFF76FFD8642F0D040
:1025B0002000C0B257F82000FFF771FD0028F7D0C7
:1025C0002000C0B2285C08280ED02000C0B2285CD1
:1025D000C010DFF88C1111EBC0110120E4B22A5DAC
:1025E00012F0070290400860F1BDF8B504000E003B
:1025F00010212000C0B2FFF705FFDFF85C5120007A
:10260000C0B2285C08280FD02000C0B2285CC010DF
:10261000DFF8481111EBC01101202200D2B2AA5CF0
:1026200012F0070290400860DFF82871B6B231005E
:102630002000C0B257F82000FFF724FD2000C0B2F0
:1026400057F82000FFF73CFD06002000C0B257F805
:102650002000FFF71AFD8642F0D02000C0B257F8E4
:102660002000FFF71CFD0028F7D02000C0B2285C36
:1026700008280ED02000C0B2285CC010DFF8E0109F
:1026800011EBC0110120E4B22A5D12F00702904064
:102690000860F1BD2DE9F84307000D00140010217A
:1026A0003800C0B2FFF7AEFEDFF8AC603800C0B251
:1026B000305C08280FD03800C0B2305CC010DFF8A2
:1026C0009C1011EBC01101203A00D2B2B25C12F0A2
:1026D000070290400860DFF87C8029883800C0B28B
:1026E00058F82000FFF7CEFCAD1C3800C0B258F8F7
:1026F0002000FFF7E5FC81463800C0B258F8200002
:10270000FFF7C3FC8145F0D0641E002CE3D13800F4
:10271000C0B258F82000FFF7C2FC0028F7D03800FC
:10272000C0B2305C08280ED03800C0B2305CC01097
:10273000DFF82C1011EBC0110120FFB2F25D12F096
:10274000070290400860BDE8F1830000746F281014
:1027500000000440F006082830BA08280400314080
:10276000080031402DE9F04F9DB004000D001E001F
:1027700092000023A1480021FEF70AFE0700342141
:1027800000220DF10408404600F02EFB3C210022FF
:102790000DF13808404600F027FB20003100C0B2A0
:1027A000C9B2884201D1012000E00020DDF89890F4
:1027B000DFF84CA24FF464725146C0B200F0A3FAA5
:1027C00030004946C0B2C9B2884201D1012000E0C0
:1027D0000020DDF89C8040F291325146C0B200F0FA
:1027E00092FA062002904846C0B2FFF7C1FD8DF86C
:1027F0000C004846C0B2FFF75DFD82465FF0080B53
:102800004846C0B2FFF756FDDFF8F89101AA9AFBDF
:10281000FBF10BFB11AA5146C0B2C010C0014844E5
:1028200000F0DBFD062002903000C0B2FFF78CFD07
:102830008DF80C003000C0B2FFF728FD82465FF033
:10284000080B3000C0B2FFF721FD01AA9AFBFBF193
:102850000BFB11AA5146C0B2C010C001484400F0A1
:10286000BCFD4046C0B204281ED00820029040465D
:10287000C0B2FFF791FD8DF80C004046C0B2FFF7E3
:102880002DFD06005FF0080A4046C0B2FFF726FDA6
:1028900001AA96FBFAF10AFB11663100C0B2C01022
:1028A000C001484400F099FD289E3000C0B20828BD
:1028B0001ED0062002903000C0B2FFF781FD8DF8D7
:1028C0000C003000C0B2FFF71DFD80465FF0080A23
:1028D0003000C0B2FFF716FD01AA98FBFAF10AFB1F
:1028E00011884146C0B2C010C001484400F075FDD7
:1028F0002000C0B2032803D22000C0B2401C00E078
:1029000000202200D2B2521D032110F58F7000B2B8
:10291000FFF760FC2000C0B2032803D22000C0B241
:10292000401C00E0002010F58F7000B2FFF74EFC55
:1029300017F01F010091C7F357132200D2B2521DA6
:102940000321C0B2FFF7E6FB2000C0B2032803D288
:102950002000C0B2401C00E0002010F58F7000B2D3
:10296000FFF734FC2200D2B2521D0321C0B2FFF7A0
:1029700066FCEDB2002D05D0022D09D005D3032D44
:1029800009D00AE00020109007E00120109004E038
:102990000220109001E00320109001200E900020F2
:1029A0000F9004201190082012900820139001200D
:1029B0008DF8500001208DF853000F4D00220EA914
:1029C0002000C0B255F8200000F046FD0021200094
:1029D000C0B255F82000FFF781FB2000C0B255F8C7
:1029E0002000FFF776FB0348E4B206551DB0BDE8B2
:1029F000F08F000030BA0828F0060828008096986A
:102A0000B86C28100000314082B0002001900020F6
:102A100000900020019009E00098401C0090009870
:102A2000B0F5005FF8D30198401C01900198B0F513
:102A3000805F02D200200090F1E702B0704780B5BD
:102A40000100002000F032FE01BD2DE9F043ADF59C
:102A5000137D0700884616001C000020ADF8020018
:102A60000020ADF80000002002900020ADF8040026
:102A70000020ADF806004046FEF7C8FA0290DFF8E5
:102A800024532888002801D028698047DFF81803DC
:102A90000078002800F033812888002800F0118198
:102AA000BDF90600411CADF806103A00010089B2DC
:102AB0000020EB68984747464046FEF7A7FA029089
:102AC0006888A97990FBF1F0ADF804003800471C44
:102AD00000780028FAD10020ADF800000EE07F1E3B
:102AE00038782F2802D038785C2804D1BDF800004F
:102AF000401CADF800000298401E0290BDF8000096
:102B0000022802DA02980028E9D50298002806D4A3
:102B10007A1CDFF8981253A800F0D8FD0EE0BDF83B
:102B20000000002805D13A00A14953A800F0CEFDCD
:102B300004E03A009D4953A800F0C8FD0020ADF81C
:102B4000020042E0BDF80010BDF80020BDF80230E0
:102B500053AF9BB2BDF90400434313FA82F0385CD3
:102B600043AA89B25054BDF80000401CADF80000E3
:102B7000BDF8000080B2BDF9041088420EDA53A8F7
:102B8000FEF744FABDF80020BDF802309BB2BDF953
:102B900004104B4313FA82F18842D3D2002043A998
:102BA000BDF800208854BDF90600411CADF80610A0
:102BB00043AAE97911FB00F189B20020EB6898473C
:102BC000BDF80200401CADF80200BDF8027053A829
:102BD000FEF71CFABDF90410B0FBF1F0401CBFB2C7
:102BE000874203D20020ADF80000C1E732007149EE
:102BF00053A800F06BFDBDF90600411CADF80610AE
:102C000053AAE97911FB00F189B20020EB689847DB
:102C1000002C74D00020ADF8020041E0BDF8001097
:102C2000BDF80020BDF802309BB2BDF9040043435B
:102C300013FA82F0205C43AA89B25054BDF8000018
:102C4000401CADF80000BDF8000080B2BDF90410D2
:102C500088420EDA2000FEF7D9F9BDF80020BDF851
:102C600002309BB2BDF904104B4313FA82F1884243
:102C7000D4D2002043A9BDF800208854BDF9060035
:102C8000411CADF8061043AAE97911FB00F189B2A5
:102C90000020EB689847BDF80200401CADF8020028
:102CA000BDF802602000FEF7B1F9BDF90410B0FBD9
:102CB000F1F0401CB6B2864221D20020ADF80000EF
:102CC000C1E74FF4807100220DF10C09484600F075
:102CD0008BF83800A9688847002C07D0009433008F
:102CE0004246354903A800F0F1FC05E033004246B6
:102CF000324903A800F0EAFC03A8A96888470DF54B
:102D0000137DBDE8F08338B50C001500C0B2002873
:102D100003D12B480078002800D131BD294908781B
:102D2000002800D0FEE70878401C087000F038FD4D
:102D300000232A0021002448FFF787FEFFF764FEE6
:102D4000F6E7002101804FF6FF7141808180FF216D
:102D50008171C171002181600021C1600021016188
:102D60007047104902880A8042884A8082888A8097
:102D700082798A71C279CA7182688A60C268CA60BF
:102D800000690861012008490870704700B585B0E6
:102D90006846FFF7D6FF0D4802906846FFF7E1FF4F
:102DA00005B000BDE4B9082852BA0828506F2810B1
:102DB000306F28105C6F2810646E2810E86E2810A1
:102DC0001F07082853BA0828406F28103F2A2810E8
:102DD00010B500F00DFD040008BFFEF7F1FB204622
:102DE00010BD00F0A3BD000062F30F2262F31F428A
:102DF000401810F0030308D0C91A1FD3DB0748BFDF
:102E000000F8012D28BF20F8022D130030B414461D
:102E10001546103928BF20E93C00FAD8490728BFD9
:102E200020E90C0048BF40F8042D890028BF20F895
:102E3000022D48BF00F8012D30BC7047C91818BFDB
:102E400000F8012DCB0728BF00F8012D70470000C6
:102E500038B584B005000C00002D01D0012000E041
:102E60000020EB22DFF85810C0B2FFF74CFF002023
:102E7000002D22D0002C0FD1302028701DE00A2117
:102E8000B4FBF1F201FB12416A460300DBB2D154FC
:102E9000401C0A21B4FBF1F4002CF0D10100C9B2AE
:102EA00000290AD069460200D2B2114411F9011C6E
:102EB000303129706D1C401EF0E705B030BD0000B8
:102EC000846B28100069C84010F00100704701228F
:102ED00012FA01F181607047012212FA01F141609A
:102EE000704710B48900436C0F248C40A34312F048
:102EF0000F0212FA01F11943416410BC704780B50A
:102F0000C9B200290ED00100C9B2082291FBF2F328
:102F100002FB1311494AC0B2C010C0011044FFF7B0
:102F2000D6FF0DE00100C9B2082291FBF2F302FBCB
:102F30001311424AC0B2C010C0011044FFF7CCFFC9
:102F400001BD80B50100C9B2082291FBF2F302FB7A
:102F500013113A4AC0B2C010C0011044FFF7B2FFCB
:102F6000C0B202BD10B5C9B200290BD1D2B2002A3D
:102F700002D0022A02D003E00F220BE00B2209E06C
:102F80000A2207E0D2B2042A01D10C2200E00E226C
:102F900012F007020100C9B2082391FBF3F403FB0E
:102FA0001411264BC0B2C010C0011844FFF799FF9E
:102FB00010BD2DE9F8418DB004000E0015001F0072
:102FC00034210022E8464046FFF70EFFF6B2002EFD
:102FD0000ED1FFB2002F02D0022F03D005E00F2048
:102FE00001900DE0082001900AE00820019007E020
:102FF000FFB2042F02D10F20019001E00E200190BA
:103000002000C0B2C0280FD02100C9B208206A46F3
:1030100091FBF0F300FB131108482300DBB2DB1037
:10302000DB01184400F0D9F92900C9B22000C0B270
:10303000FFF765FF0EB0BDE8F081000000003140F1
:10304000022801D301200FE00B00DBB2042B01DBCF
:10305000012009E0954B03EB8000C9B2405C82423D
:1030600001D3012000E000207047F8B506000F00F2
:1030700015001C00022E01D301201CE02A0039009B
:10308000C9B23000FFF7DCFF012801D1012012E0B6
:103090003800C0B2002811D1B4F5807F0CD284482A
:1030A0007603304400EB850010F58050016864F32E
:1030B0000F2101600020F2BD0120FCE7FFB2012FCB
:1030C00010D1B4F5803F0BD279487603304400EB41
:1030D000850010F5A050016864F317210160E9E74D
:1030E0000120E8E70120E6E700B20012C0B2704715
:1030F000F8B505000E001700280000B2FFF7F4FF36
:1031000004002000C0B2022801D3012023E03A00CD
:103110003100C9B22000C0B2FFF792FF012801D1EF
:10312000012018E062492000C0B2400308442A0090
:10313000D2B200EB8200D0F8000CF6B266F30920A0
:1031400067F30700E4B264032144EDB201EB8501AB
:10315000C1F8000C0020F2BD70B504000D0016008F
:10316000022C01D301201CE032002900C9B220004A
:10317000FFF766FF012801D1012012E04C496003EE
:10318000085850F0004050F0407050F47F00EDB20D
:1031900065F3092066F30700620388506403085949
:1031A000002070BDF8B504004FF4FA504443414D7F
:1031B000414E00212878C001304400F07EFC14E02C
:1031C0002878C001304400F07AFCB842F8D33B4F75
:1031D0003C192878C001304400F071FC3F183900D8
:1031E0002878C001304400F068FC4CF25137BC42F2
:1031F000E6D22878C001304400F061FC8442F8D265
:10320000F1BD38B594B0502100226C462000FFF784
:10321000EBFD2B4C00220121B4F90000FFF768FF01
:10322000B4F90000FFF760FF092300220121C0B2BA
:10323000FFF71BFFB4F90000FFF756FF0022012142
:10324000C0B2FFF789FF5FF0FF30009000208DF8DB
:10325000040000208DF8050000208DF806000020F5
:103260008DF8080003208DF8440001201290012001
:103270008DF807000F4C104D69462078C001284496
:1032800000F056FB2078C001284400F011FC00211A
:103290002078C001284400F010FC2078C0012844A8
:1032A00000F01DFC15B030BD00000000746F281048
:1032B000000004402107082800005940B03CFFFFEF
:1032C0001C07082830B4614B1818C009604C14EB77
:1032D000001404290DD223681F25C8008540AB4384
:1032E000D2B212F01F02C90012FA01F11943216093
:1032F0000CE0091F63681F25C8008540AB43D2B2AC
:1033000012F01F02C9008A401A43626030BC704745
:10331000002A04D1012212FA01F1416003E00122E6
:1033200012FA01F18160704710B48900436C0F24D8
:103330008C40A34312F00F0212FA01F119434164C9
:1033400010BC704710B4836C01248C40A34312F06E
:10335000010212FA01F11943816410BC704710B4E4
:10336000C36C01248C40A34312F0010212FA01F154
:103370001943C16410BC704710B449001031C36CCC
:1033800003248C40A34312F0030212FA01F1194303
:10339000C16410BC70474269012212FA01F1416117
:1033A0004069704710B4836901248C40A34312F034
:1033B000010212FA01F11943816110BC704710B487
:1033C0004900036C03248C40A34312F0030212FA59
:1033D00001F11943016410BC7047F8B505000E00F7
:1033E00014000027002D2ED0002C2CD02268310094
:1033F0002800FFF78DFF227A31002800FFF762FFD7
:10340000626931002800FFF79DFFA26931002800A2
:10341000FFF7A5FFE26931002800FFF7ADFF626802
:1034200031002800FFF780FFE26831002800FFF735
:10343000C6FF31002800FFF7AEFF226931002800E7
:10344000FFF7B0FF00E0034F3800F2BD0000CFBF30
:103450000000304001005A002DE9F041DFF8D03182
:103460001C00DFF8D051D5F800C0DFF8CC512D6832
:10347000DFF8C8613668DFF8C8713F685FF0000E9A
:103480005FF0000E002800F0D080002900F0CD8011
:103490004C68002C01D18C6805E04C68022C01D1ED
:1034A000002400E00224D1F810E0D1F81480C645D1
:1034B00002D3D1F810E001E0D1F814E0BEF1090F19
:1034C00008D23CF4404C91F82130002B12D05CF42F
:1034D000807C11E0BEF1110F03D2012363F38F3C16
:1034E000F1E7BEF1210F03D2022363F38F3CEAE739
:1034F00018009BE03CF4807CCB685B1E13F00F034C
:103500005FEA1C1C5FEA0C1C53EA0C0C012363F3FA
:10351000196CC0F800C00B7F002B01D0002300E025
:10352000012363F300054B681B0963F34105CB7E60
:1035300063F304154B7E63F345150B68012B01D132
:10354000012300E0002363F3DF7523005B0863F3CE
:10355000820564F3C3054B7F63F308258B7F63F318
:103560004925CB7F63F38A2591F8203063F3CB257F
:103570000B7913F0030363F3196505620B7E63F3A4
:1035800008278B7E63F349270B695B1E13F01F032B
:103590007F097F011F43C0F8007391F8243003F0C6
:1035A000FF0310F5417425682D0A2D022B4323607B
:1035B0000B7E63F308264B695B1E13F01F0376092D
:1035C00076011E43C0F8006291F82C3003F0FF032F
:1035D00010F5017425682D0A2D022B4323600B6B17
:1035E000C0F8883F8B6AC0F8C83F91F8383010F5B2
:1035F0007064256863F34925256091F8391010F54A
:1036000074631C6861F3CB241C600021C0F8C81EE1
:10361000002A09D000201060002090610020D060B6
:103620000020D0610748106200242000BDE8F0812E
:103630000140AA009C6F2810A06F2810A46F2810CA
:10364000A86F2810EFCDAB00C0F840127047D0F83B
:103650000802C005C00D7047D0F80802C0F3C030A2
:10366000704738B505002800FFF7F1FF0400280077
:10367000FFF7F2FF0419002C01D1012000E0002027
:10368000C0B232BD38B50400DFF83C50C9B22000EA
:10369000C0B255F82000FFF7D7FF2000C0B255F8A0
:1036A0002000FFF7DEFF0028F7D031BD38B5040059
:1036B0000D0005E029782000C0B2FFF7E3FF6D1C84
:1036C00028780028F6D131BD000708280CB430B5A1
:1036D00083B00A4606A9029104460025019400958C
:1036E00002AB01A9084878441E30FCF7CCFC019AD3
:1036F000157000284EBF04460198041B204603B0F5
:1037000030BC5DF80CFB00BFBBD8FFFF010009B265
:10371000002908D4012210F01F018A401B4900B281
:10372000400941F820207047010009B2002908D45F
:10373000012210F01F018A40154900B2400941F8EA
:1037400020207047020012B2002A04D44901114A15
:1037500000B2115407E049010F4A00B210F00F0007
:10376000104400F8041C7047002800D162B60B48D2
:103770000168491C0160704772B608490868002852
:1037800002D00868401E08600868704700E100E049
:1037900080E200E000E400E018ED00E02CBA082828
:1037A00080B5FFF7E9FF00F0A1F901BD80B5C9B20E
:1037B00000B2FFF7C7FF01BD70B504000D00160091
:1037C000200000F0A3F92900B4F9000000F0DDF9B1
:1037D0003100C9B2B4F90200FFF7E8FFB4F9020002
:1037E000FFF7A2FFB4F90200FFF790FF70BD0000E1
:1037F00010B50446AFF30080204600F005F80446FB
:10380000AFF30080204610BDF8B500F10F04E408C6
:10381000E400A0422BD2082C04D2082402E0083095
:1038200000F047F8DFF800211368190005D10020E7
:1038300007E00568A5420DD2011D08680028F8D1EF
:103840001868111D00E0191D0B6883420BD01D681C
:10385000A542F8D359B10B6818680838A04208D2BD
:10386000586808600FE000F0A7F90028D7D10020C1
:10387000F2BD181908601D1D586828511E680F6890
:10388000361B3E601C60096800291DBF486800287F
:10389000081D0020106003F10800F2BD10B50400FF
:1038A00006D0AFF30080204600F003F8AFF30080AD
:1038B00010BD002800D1704770B4A0F10802136851
:1038C000072B2ED913F0070F2BD1DFF85C4061686E
:1038D00009B18A4203D25160626015E0014648682E
:1038E00008B19042FAD308680E18B24219D3964232
:1038F00003D11B180B600A4606E0486810B1134458
:1039000098420ED350604A60506850B11368D51881
:10391000854206D1002626600168CB1813604068F6
:10392000506070BC7047000008BA0828FFF7B6BFA7
:1039300010B4012291F84C30052B03D291F84D3090
:10394000052B01D31000A7E0002800F0A480002977
:1039500000F0A180514A12684B7963F392428B794F
:1039600013F0030363F311420B7A13F0070363F3BD
:103970001A62CB7963F39E720B7D63F3000291F8B8
:10398000243063F3410202600A7910F130031C68AD
:1039900062F307041C604A79012A0BD18A79002A54
:1039A00002D10022826007E08A79012A04D10A68E4
:1039B000826001E001228260CA6802610A69426194
:1039C000CA6982610A6AC2610A680262344A12687C
:1039D0000B7E03F0FF03120A12021A4391F83030F3
:1039E00003F0FF0363F3174291F8403003F0FF0345
:1039F00063F31F6291F8483003F0FF0363F30F2273
:103A00004264284A126891F8383003F0FF03120A22
:103A100012021A4391F8283003F0FF0363F30F22D8
:103A20008264214A12688B7D13F00303920892008E
:103A30001A4391F8253013F0030363F38B2291F8B6
:103A40002C3013F0030363F3051291F8343013F0B4
:103A5000030363F3092291F83C3013F0030363F38B
:103A6000871291F8443013F0030363F38302C264B6
:103A70000E4A126891F84C3013F00703D208D200B6
:103A80001A4391F84D3013F0070363F306124265B1
:103A9000497D81670022100010BC7047B46F281068
:103AA000B86F2810BC6F2810C06F2810C46F281082
:103AB000016851F000410160704781607047806883
:103AC00070477830016851F001010160704710F1D2
:103AD00070010A6852F001020A60006F70474030BE
:103AE000016851F01001016070470000002007E0FC
:103AF0000549C2018A5822F00042C301CA50401C45
:103B00003F28F5DB704700000000584030B400212A
:103B1000234A1368234A1468002832D0224A1568C1
:103B2000C5F303250E2D0FD01268C2F303220D2A10
:103B300028D1827812F00F0224092401144302795B
:103B4000002A15D0012214E0827812F00F021B091E
:103B50001B0113430279002A01D0012200E0002258
:103B600062F3DF73114AB0F9000042F8203009E037
:103B7000002262F3DF740E4AB0F9000042F82040E0
:103B800000E00649080030BC70470A4B1A68002A5A
:103B900003D01A6800B242F82010704701005600A6
:103BA000AC6F2810B06F28100000204000A020400B
:103BB00000C02040EC0608280749086808B100202A
:103BC00070470648C008C00008600549C908C90018
:103BD000091A0160704700BF48BA082807DC0B28A3
:103BE00000E00B28DFF8C4110868C0F3400000288B
:103BF00001D0022002E0086810F001007047DFF8F1
:103C0000B001006810F0010070470000C21E022AD7
:103C100001D3012002E0C01E0860002070471CB5DF
:103C2000FF246946FFF7F2FFC0B2002802D020004F
:103C3000C0B207E0DFF8FC01009950F8210010F055
:103C40000100C0B216BD0000002801D0032801D336
:103C5000012002E0401E0860002070471CB5FF24D0
:103C60006946FFF7F1FFC0B2002802D02000C0B2C1
:103C700008E0DFF8C401009909010844C06810F0A9
:103C80000100C0B216BD0000DFF8BC01006880086A
:103C900010F00100704738B504002000C0B20828B9
:103CA00011D3DFF898511822DFF89411280000F0A2
:103CB0000DFC0020E87540F65B00DFF88811086015
:103CC000002000F03BFCDFF8CC112000C0B251F81E
:103CD0002000C0F30020002805D0E4B251F82400F1
:103CE00010F00F0000E0FF2032BD38B504002000C6
:103CF000C0B2082811D3DFF844511822DFF8401170
:103D0000280000F0E3FB0020E8754FF40960DFF8BD
:103D100034110860002000F011FCDFF87801E4B2F3
:103D200050F82400C0F30110C0B232BDDFF86821A2
:103D30001368C3F3072303601068C0F3C40008606E
:103D40007047DFF858211368C3F307230360106836
:103D5000C0F3C4000860704738B50400072C11D3C5
:103D6000DFF8D8501822DFF8C411280000F0AEFBAD
:103D70000020E8754FF4CE70DFF8C810086000200E
:103D800000F0DCFBDFF8A00150F8240010F0070081
:103D9000010009B2042907D1DFF8880150F8240096
:103DA00010F01F0050F4807000B232BD2415264080
:103DB00040152640DFF8B01209688A03920B0260B2
:103DC000090E11F00101C171DFF8A01209680A00A3
:103DD000D204D20C82800A00120C02F0FF0202818F
:103DE000090C01F0FF014181DFF84411096811F06D
:103DF0000F0202730A00C2F3031242730A00120A8E
:103E0000D204D20CC281090F11F003010174DFF852
:103E1000641309680A00120A12F0070282710A008C
:103E2000120CD205D20D4282890F11F001010175E9
:103E3000704700004016264000192640CCB90828DB
:103E40009C6A281010BA0828100027401CB50C00E6
:103E50006946FFF7DBFE0100C9B2002901D0C0B2FC
:103E600017E0DFF8B404009950F8210010F07F014A
:103E70002160C0F304216160C0F30441A16001002E
:103E8000090F11F003016173C00E10F001002073DF
:103E9000002016BD401226400800204008042040A3
:103EA0001CB50C006946FFF7CFFE0100C9B200291E
:103EB00001D0C0B235E0DFF81015009800010858B5
:103EC00000F0FF022260C0F304226260C0F30442EB
:103ED000A260000F10F00300207300980001084456
:103EE00042681000C00F6073C2F30270002801D056
:103EF000012000E00020A07322F07F4222610098A0
:103F00000001084480680100C90F21750100090EF5
:103F100011F001016175A075000C10F00700E0754B
:103F2000002016BD0001264000122640106B28100C
:103F30003815264080B50100DFF868051822FDF726
:103F4000BDF80120DFF860150870002002BDDFF821
:103F50005C150968C90F002908D0DFF84C150978ED
:103F6000002907D100210160032070470021016072
:103F70000320FAE7DFF82C15096801600020F4E758
:103F800010B50400FFF72EFE002803D100202060AA
:103F900003200DE0DFF810050078002805D0DFF8D9
:103FA000040580682060002002E0002020600320DB
:103FB00010BD0000DFF8F0140978002905D0DFF803
:103FC000E41449680160002002E000210160032040
:103FD0007047DFF8DC140968C90F002908D0DFF842
:103FE000C8140978002907D1002101600320704717
:103FF000002101600320FAE7DFF8A814C968016016
:104000000020F4E7DFF8AC140968C90F002908D0D4
:10401000DFF894140978002907D1002101600320FA
:104020007047002101600320FAE7DFF8781409697E
:1040300001600020F4E710B50400FFF725FE00281A
:1040400003D10020206003200DE0DFF85C0400783D
:10405000002805D0DFF84C0440692060002002E011
:1040600000202060032010BD301526403415264066
:1040700010B50C00C0B2FFF76FFE00280ED001286B
:1040800010D0022812D0B0F5887F13D040F2111161
:10409000884213D0B0F58A7F14D017E02000FFF7D4
:1040A00056FF16E02000FFF785FF12E02000FFF723
:1040B00067FF0EE02000FFF78CFF0AE02000FFF70B
:1040C000BAFF06E02000FFF79DFF02E0002020601D
:1040D000032010BD80B501000020FFF7C9FF02BD1D
:1040E00080B50322D2B2824203D2002008600120B0
:1040F00003E0401CC0B2FFF7BBFF02BD18B587B09C
:1041000004006846FFF7E6FF0100C9B2002903D0AA
:1041100000212160C0B22BE001A8FFF74BFE9DF803
:104120001400022803D100982060002020E0DFF86E
:1041300088030068C00F002808D0FFF760FDC0B2F8
:10414000002807D100202060032011E000982060A3
:1041500000200DE0009901984143BDF80800B1FB33
:10416000F0F09DF80B10491CB0FBF1F0206000202E
:1041700008B010BD3C152640F0B58BB005000C0012
:1041800069462800C0B2FFF7ABFF0100C9B20029A1
:1041900003D000212160C0B2BCE02800C0B20228D8
:1041A0004CD307A92800C0B2401CFFF74FFEC0B295
:1041B000002811D0DFF804631822DFF80413300060
:1041C00000F084F90020F07540F66310DFF8F41277
:1041D0000860002000F0B2F94F482900C9B200EB96
:1041E000810050F8080CC00F002807D09DF8290066
:1041F000022807D10098206000208BE00098206002
:10420000002087E0EDB26D1C2800FFF708FD0100DB
:10421000C9B2002902D0C0B2FF2803D1002020601B
:10422000032077E00099079841430898B1FBF0F02C
:104230000999B0FBF1F0206000206BE001A9280093
:10424000C0B2401CFFF72CFEC0B2002811D0DFF82E
:104250006C621822DFF86812300000F037F9002095
:10426000F07540F67F10DFF85C120860002000F067
:1042700065F955482900C9B209014058C00F002806
:1042800007D09DF81000022807D100982060002078
:1042900040E00098206000203CE0EDB26D1C28005A
:1042A000FFF7DCFC0100C9B2002902D0C0B2FF2830
:1042B00003D10020206003202CE09DF8110001288C
:1042C0001DD1009A0023019E00273F0647EA1627CA
:1042D00036060598002136184F41A6FB020106FB61
:1042E000031107FB0211029A039BA3FB0223FDF7B4
:1042F0004FF8000E40EA0120090E206009E0009905
:10430000019841430298B1FBF0F00399B0FBF1F042
:10431000206000200BB0F0BD0016264010B503232E
:10432000421E0400E4B2002C03D10800FFF7E6FEB1
:104330000CE01400DBB2E4B2A34204D31000C0B21C
:10434000FFF71AFF02E0C0B2FFF792FE10BD38B5CA
:1043500005000C002800C0B2FFF79DFC0100C9B2A7
:10436000FF2904D12000FFF7F2FDC0B21BE069462F
:10437000C0B2FFF7D3FF0100C9B2002903D000216A
:104380002160C0B20FE02800C0B2FFF7AEFCC0B29F
:10439000002805D002280BD006D303280CD00FE04C
:1043A00000982060002032BD009840082060F9E7A6
:1043B000009880082060F5E70098C0082060F1E7C9
:1043C000002020600320EEE7001926401FB50400FE
:1043D00002A90120FFF7BBFF0100C9B2002903D0E9
:1043E00000212160C0B21AE0694601A8FFF79EFCD7
:1043F00001980021421C71F1FF335B0143EAD26353
:1044000052010098002112184B41029800214901E5
:1044100041EAD0614001FCF7BBFF2060002004B0FE
:1044200010BD1FB5040002A90120FFF790FF010095
:10443000C9B2002903D000212160C0B21AE0694648
:1044400001A8FFF77EFC01980021421C71F1FF33A7
:104450005B0143EAD26352010098002112184B41DC
:1044600002980021490141EAD0614001FCF790FF28
:104470002060002004B010BD80B5DFF84C100A6841
:10448000C2F303220E2A07D00968C1F303210D29C4
:1044900005D1FFF7C6FF02BDFFF798FFFBE701203C
:1044A000F9E70000B4B9082850BA082818152640C2
:1044B000081526400C15264030152640CCB9082892
:1044C000106B281010BA08280000204001B58B0797
:1044D0001AD1830724D1121F21D351F8043BA3F131
:1044E000013C2CEA030C1CF0803C04BF40F8043B68
:1044F000F1E79CFA8CFCBCFA8CF1C1F118018B40FD
:10450000CB4040F8043B13E0042A09D311F8013BE7
:10451000521E00F8013B5BB18B07F7D1D9E7121DA2
:104520005AB111F8013B521E00F8013B03B1F8D11A
:1045300011001CBF0022FEF75BFC01BD01BEFEE7BF
:1045400080B5234A23490B6893423ED00A60224A31
:1045500012684A62214A8A6202684A6042688A6036
:104560008268CA60C2680A6102694A6142698A61F6
:104570008269CA61C2690A62F1EE102A12F0900FD4
:1045800023D0174A8A62026ACA62426A0A63826A4E
:104590004A63C26A8A63026BCA63426B0A64826BB3
:1045A0004A64C26B8A64026CCA64426C0A65826C9B
:1045B0004A65C26C8A65026DCA65426D0A66826D83
:1045C0004A66C26D8A66006EC86600F00BF801BDCF
:1045D000FAF9F8F744B9082828ED00E0A4A3A2A14D
:1045E000ABAAA9A8FEE7000070B504000D00DFF833
:1045F00034682A0092B2120AD2B22100C9B2300045
:1046000000F080FE2A00D2B2F021300000F07AFEE5
:1046100070BD2DE9F04704000D00012600275FF072
:1046200000085FF00A09484640B2002836D04846E4
:1046300040B2052190FBF1F201FB1200002810D1DD
:10464000DFF8E0A72A0092B2120AD2B22100C9B262
:10465000504600F057FE2A00D2B2F021504600F03A
:1046600051FEDFF8C0A72100C9B2504600F072FE2B
:104670000700F021504600F06DFE8046280080B211
:104680003900C9B24246D2B252EA0122904202D166
:104690000020060002E0B9F10109C4E7300040B291
:1046A000BDE8F08770B50400DFF878672100C9B273
:1046B000300000F04FFE0500F021300000F04AFE0F
:1046C000EDB2C0B250EA052080B270BDF8B504006A
:1046D000002500260127DFF84C075C210172E16804
:1046E000C16021680160616841600020FFF7DAFF66
:1046F0000600300041F2243180B288420BD03000F5
:1047000041F2113180B2884205D0300041F21331BC
:1047100080B2884202D10020070004E06D1C28000E
:10472000C0B21528E1DB3800C0B2F2BD2DE9F14F6F
:104730008AB05FF0000A00240020ADF820000025B8
:104740000020ADF806000020ADF81E000020ADF8F6
:104750001C0000265FF0000800270A98C088ADF80A
:1047600008000A984089ADF80A000A98C089ADF897
:104770000C000A98408AADF80E000A98C08AADF87D
:1047800010000A98408BADF812000A98C08BADF863
:1047900014000A98408CADF816000A98C08CADF849
:1047A0001A004BF6EF61FE20FFF71EFF03210C20DD
:1047B000FFF71AFF0020FFF775FF070041F22439C9
:1047C0003800494680B288420BD0380041F211319E
:1047D00080B2884205D0380041F2133180B288425D
:1047E00000D109E018F101084046C0B2142802DBEC
:1047F0000120060000E0DDE73000C0B2002840F0F4
:104800000C83BDF81000792807DABDF8100080008D
:10481000ADF806005AF0020A15E0BDF81000F128C4
:1048200007DABDF810004000ADF806005AF0010AA2
:1048300009E0BDF8100040F2E111884203DABDF84A
:104840001000ADF80600BDF80E00BD2806DABDF870
:104850000E00800005005AF0080A15E0BDF80E00B1
:1048600040F27911884206DABDF80E0040000500DA
:104870005AF0040A08E0BDF80E0040F2F121884227
:1048800002DABDF80E000500DFF89CB540F24E31AB
:10489000280080B2091ACBF800103800494680B2CF
:1048A00088427AD148F288310720FFF7B2FE80199A
:1048B0000600DFF87815BDF81020921C2B009BB283
:1048C000DBF80000C3185A43121D91FBF2F00400FC
:1048D000200080B240F2F511884202DB4FF4FA70FA
:1048E00004002000BDF80C1080B2884201D2ADF85F
:1048F0000C40DFF83C15DFF83405BDF80C2090FBC8
:10490000F2F2121F2B009BB2DBF80000C31892FBDF
:10491000F3F2BDF81000121A0A6047F621600A6827
:10492000824202DA0A68022A0EDA0A68022A02DAE7
:104930000220086008E00A68824203DB47F6206034
:10494000086001E008680860DFF8E004BDF80C20AA
:1049500090FBF2F2121F0968BDF81000411892FB9B
:10496000F1F1280080B2091ACBF80010DBF8000042
:104970003D2803DA3D20CBF8000081E0DBF80000A1
:10498000B0F5806F04DB40F2FF30CBF8000077E039
:10499000DBF80000CBF8000072E0DFF89014BDF8FF
:1049A0001020121D2B009BB2DBF80000C3185A43E5
:1049B000121D91FBF2F00400200080B240F2F511CC
:1049C000884202DB4FF4FA7004002000BDF80C109E
:1049D00080B2884201D2ADF80C40DFF85414DFF801
:1049E0004C04BDF80C2090FBF2F2121F2B009BB27E
:1049F000DBF80000C31892FBF3F2BDF81000121AA6
:104A00000A6040F6B9300A68824202DA0A68042A6B
:104A10000EDA0A68042A02DA0420086008E00A684C
:104A2000824203DB40F6B830086001E008680860A5
:104A3000DFF8F803BDF80C2090FBF2F2121F0968B2
:104A4000BDF81000411892FBF1F1280080B2091A5C
:104A5000CBF80010DBF800002B2803DA2B20CBF872
:104A600000000DE0DBF80000B0F5806F04DB40F2E1
:104A7000FF30CBF8000003E0DBF80000CBF80000CB
:104A8000DFF8AC030168BDF810004118891EBDF8BD
:104A90000A00814208DADFF898030168BDF81000C7
:104AA0004118881EADF80A00280080B2D0F53C708D
:104AB000022190FBF1F0BDF91210020012B2D142B6
:104AC00003DA010009B2494209E00100BDF91220F0
:104AD00009B2914201DA010001E0BDF91210ADF80E
:104AE0001210401CBDF91210411AADF81E10BDF88D
:104AF0000610D1F5F071022291FBF2F1BDF91420FC
:104B00000B001BB2DA4203DA080000B2404209E0AF
:104B10000800BDF9142000B2904201DA080001E05B
:104B2000BDF91400ADF81400091DADF82010BDF951
:104B30002010BDF914004118ADF81C1001211B20F4
:104B4000FFF767FD80198DF804009DF804000090C0
:104B5000BDF81E100120FFF75CFD009940188DF88C
:104B600004009DF804000090BDF81C100220FFF71F
:104B700050FD009940188DF804009DF80400009045
:104B8000BDF806100320FFF744FD009940188DF88A
:104B900004009DF804000090290089B20420FFF76A
:104BA00038FD009940188DF804009DF8040000902D
:104BB000DBF80000010089B20520FFF72AFD00990B
:104BC00040188DF804009DF804B099480068010071
:104BD00089B20620FFF71DFD10EB0B0B8DF804B01A
:104BE0009DF804B04FF4B2710A20FFF712FD10EBEC
:104BF0000B0B8DF804B09DF804B040F2BB110820F7
:104C0000FFF707FD10EB0B0B8DF804B09DF804B017
:104C100040F2D9110920FFF7FCFC10EB0B0BBDF89B
:104C20000800002807D1BDF80A100B20FFF7F1FC9F
:104C300010EB0B0083465AF44C7189B20D20FFF73C
:104C4000E8FC10EB0B008DF804009DF804602721B0
:104C50003120FFF7DEFC86198DF804609DF80460B2
:104C60001A213220FFF7D5FC86198DF804609DF8D3
:104C7000046005213320FFF7CCFC8619BDF816101F
:104C80003520FFF7C6FC80198DF80400380080B28B
:104C9000484529D1504680B2042801DB012100E0BB
:104CA00000219DF80460C9B2090189B27220FFF7A2
:104CB000B0FC86198DF804609DF8049040F2011153
:104CC0000F20FFF7A6FC10EB090981214720FFF711
:104CD000A0FC83461BEB090BEC214820FFF799FC55
:104CE000060016EB0B0615E09DF8049011210F202D
:104CF000FFF78FFC10EB090981214720FFF789FCA2
:104D000083461BEB090BE7214820FFF782FC0600D6
:104D100016EB0B064FF462710720FFF77AFC80193F
:104D20008DF804009DF804B040F203311C20FFF719
:104D300070FC10EB0B0B03212C20FFF76AFC814663
:104D400019EB0B09BDF80800002807D10021AF209E
:104D5000FFF75FFC060016EB09064DE0BDF80810F2
:104D6000A520FFF756FC060016EB09060221A62037
:104D7000FFF74FFC83461BEB060B0221A820FFF731
:104D800048FC10EB0B008DF80400BDF80E10BDF8C8
:104D900010004143042091FBF0F0B0F5803F08DAA9
:104DA000BDF80E10BDF810004143042091FBF0F156
:104DB00001E04FF6FF719DF8046089B2B020FFF763
:104DC00028FC86198DF804609DF804901421AE200B
:104DD000FFF71FFC10EB090940F20111AF20FFF7AC
:104DE00018FC83461BEB090BBDF80A10AD20FFF73A
:104DF00010FC060016EB0B06BDF808000D49086014
:104E0000BDF80A000C490860BDF810000B490860A5
:104E10004DF6AD61FE20FFF7E7FB3000C0B20BB0EE
:104E2000BDE8F08FF8B9082838BA0828C0FC9B0103
:104E300034BA08283CBA082840BA082844BA0828D6
:104E40001CB50400002C01D0012000E0002041220C
:104E5000DFF8A414C0B2FDF756FFDFF8A00401216B
:104E60002278D21010EBC212237813F0070311FA44
:104E700003F313602279D21010EBC210227912F0E2
:104E8000070211FA02F20260E06800900098421EE8
:104E900000920028FAD1DFF868242079C01012EBC4
:104EA000C010237913F0070311FA03F30360E068DD
:104EB00000900098431E00930028FAD12078C0107B
:104EC00012EBC012207810F0070081401160E068FA
:104ED00000900098411E00910028FAD113BD1CB526
:104EE0000400002C01D0012000E000205522DFF852
:104EF0000814C0B2FDF707FFDFF80404012122798E
:104F0000D21010EBC212237913F0070311FA03F346
:104F100013602278D21010EBC210227812F0070230
:104F200011FA02F20260E06800900098421E0092BE
:104F30000028FAD1DFF8C4232078C01012EBC0108B
:104F4000237813F0070311FA03F30360E06800907D
:104F50000098431E00930028FAD12079C01012EB6C
:104F6000C012207910F0070081401160E0680090C5
:104F70000098411E00910028FAD113BD38B50400F5
:104F80000D00002C01D0012000E000206A22DFF893
:104F90006813C0B2FDF7B7FEDFF864130122207872
:104FA000C01011EBC010237813F0070312FA03F3BB
:104FB0000360EDB2002D0CD02079C010DFF83C3337
:104FC00013EBC013207910F0070012FA00F01860FC
:104FD00009E02079C01011EBC010237913F007030A
:104FE00012FA03F30360E06800900098431E0093F8
:104FF0000028FAD1DFF804332078C01013EBC0107A
:10500000257815F0070512FA05F50560E0680090AF
:105010000098451E00950028FAD12078C01011EBA9
:10502000C011207810F0070012FA00F00860207913
:10503000C01013EBC013207910F0070082401A60F3
:1050400031BD2DE9FC410400002C01D0012000E01D
:1050500000208622DFF8A012C0B2FDF754FE002522
:10506000DFF8EC6201272078C01016EBC010217821
:1050700011F0070117FA01F10160DFF88082207951
:10508000C01018EBC010217911F0070117FA01F1D7
:105090000160002200216068C0B2FDF763FFE06894
:1050A00000900098411E00910028FAD12078C0108D
:1050B00018EBC018207810F0070017FA00F0C8F8B5
:1050C0000000E06800900098411E00910028FAD18D
:1050D0006068C0B2FDF735FF002800D001252078B8
:1050E000C01016EBC016207810F00700874037601C
:1050F000032201216068C0B2FDF734FFE068009030
:105100000098411E00910028FAD12800C0B2BDE8E5
:10511000F6817CB504000D00002C01D0012000E0D8
:105120000020A822DFF8D011C0B2FDF7ECFD8021ED
:105130000800C0B200284ED02800C0B208420CD0EF
:105140000120227912F0070290402279D210DFF874
:10515000AC3113EBC21318600BE00120227912F07E
:10516000070290402279D210DFF8E43113EBC2132A
:105170001860C9B24908E068400800900098421ED3
:1051800000920028FAD10122207810F0070012FACC
:1051900000F02378DB10DFF8646116EBC316306093
:1051A000E06800900098431E00930028FAD1207810
:1051B00010F0070082402078C010DFF8943113EB24
:1051C000C0131A60E068400800900098421E0092E8
:1051D0000028FAD1ACE72000FFF733FF012801D106
:1051E000002000E00120C0B276BD2DE9FC4704009C
:1051F0000D00002C01D0012000E00020C222DFF8C9
:10520000F810C0B2FDF77FFD00260827DFF8F08018
:105210005FF001092078C01018EBC010217811F060
:10522000070119FA01F10160E06800900098411E41
:1052300000910028FAD1DFF8C4A02079C0101AEB41
:10524000C010217911F0070119FA01F10160002263
:1052500000216068C0B2FDF785FE27E02078C0100D
:1052600018EBC010217811F0070119FA01F1016063
:10527000E06800900098411E00910028FAD1207843
:10528000C0101AEBC010217811F0070119FA01F1D2
:105290000160E06800900098411E00910028FAD15A
:1052A0006068C0B2FDF74DFE50EA46063800471E62
:1052B000C0B20028D2D12078C01018EBC0182078D6
:1052C00010F0070019FA00F9C8F800900322012134
:1052D0006068C0B2FDF746FEE06800900098411E8D
:1052E00000910028FAD12900C9B22000FFF746FE3C
:1052F0003000C0B2BDE8F687EC6B281008003140E2
:105300000400314070B504000D001600002C01D0DF
:10531000012000E0002040F28D224749C0B2FDF795
:10532000F2FC2000FFF78CFD217A4900C9B2200071
:10533000FFF7EFFE2900C9B22000FFF7EAFE3100B7
:10534000C9B22000FFF7E5FE2000FFF7C8FD70BDE1
:105350000400314038B504000D00002C01D00120BC
:1053600000E0002040F29F223349C0B2FDF7CBFCA1
:1053700000202000FFF764FD217A4900C9B2200017
:10538000FFF7C7FE2900C9B22000FFF7C2FE2000C8
:10539000FFF7A5FD2000FFF753FD217A490051F0EA
:1053A0000101C9B22000FFF7B4FE01212000FFF780
:1053B0001CFF05002000FFF792FD2800C0B232BD9F
:1053C0002DE9F843040088461700002C01D0012085
:1053D00000E00020089D1E00DFF85C9040F2BA2239
:1053E0004946C0B2FDF78FFC30002900C0B2C9B2F7
:1053F000884201D0012000E0002040F2BB22494653
:10540000C0B2FDF780FC3000C0B220602800C0B2FE
:10541000606084F80880E7600323012201213000E6
:10542000C0B2FDF7C6FD0323012201212800C0B24E
:10543000FDF7BFFDBDE8F183EC6B28100000000014
:10544000000000000000000000000000000000F864
:1054500000000000000000333000000000100C06C7
:10546000100C0600000000000000000040C0784062
:10547000C0784000043F04043F040400007088FC2E
:1054800008300000001820FF211E0000F008F00086
:10549000E018000000211C031E211E0000F00888F7
:1054A000700000001E2123241927211010160E0061
:1054B000000000000000000000000000000000E00C
:1054C0001804020000000007182040000002041821
:1054D000E00000000040201807000000404080F07D
:1054E000804040000202010F01020200000000F0B3
:1054F000000000000101011F010101000000000087
:105500000000000080B070000000000000000000FB
:105510000000000000010101010101010000000084
:10552000000000000030300000000000000000001B
:1055300080601804006018060100000000E01008F8
:105540000810E000000F102020100F00001010F8CD
:10555000000000000020203F20200000007008080C
:10556000088870000030282422213000003008888C
:10557000884830000018202020110E000000C020B4
:1055800010F8000000070424243F240000F80888D5
:10559000880808000019212020110E0000E0108862
:1055A00088180000000F112020110E000038080894
:1055B000C83808000000003F0000000000708808A4
:1055C00008887000001C222121221C0000E0100825
:1055D0000810E0000000312222110F00000000C07E
:1055E000C00000000000003030000000000000801B
:1055F000000000000000806000000000000080400B
:105600002010080000010204081020004040404023
:105610004040400004040404040404000008102076
:1056200040800000002010080402010000704808BB
:105630000808F0000000003036010000C030C82823
:10564000E810E0000718272423140B000000C038DE
:10565000E0000000203C23020227382008F8888858
:1056600088700000203F202020110E00C030080864
:1056700008083800071820202010080008F808083B
:105680000810E000203F202020100F0008F8888834
:10569000E8081000203F20202320180008F8888800
:1056A000E8081000203F200003000000C030080878
:1056B0000838000007182020221E020008F8080001
:1056C0000008F808203F210101213F20000808F8C8
:1056D000080800000020203F2020000000000808EB
:1056E000F8080800C08080807F00000008F888C0AB
:1056F00028180800203F20012638200008F808005C
:1057000000000000203F20202020300008F8F80092
:10571000F8F80800203F003F003F200008F830C0A4
:105720000008F808203F200007183F00E010080894
:105730000810E0000F10202020100F0008F80808C3
:105740000808F000203F210101010000E0100808D6
:105750000810E0000F18242438504F0008F88888FB
:1057600088887000203F2000030C302000708808DB
:10577000080838000038202121221C00180808F8E9
:10578000080818000000203F2000000008F808006A
:105790000008F808001F202020201F00087888003B
:1057A00000C83808000007380E010000F80800F8AB
:1057B0000008F800033C0700073C03000818688055
:1057C0008068180820302C03032C30200838C800CB
:1057D000C83808000000203F20000000100808081A
:1057E000C83808002038262120201800000000FEBC
:1057F000020202000000007F40404000000C30C068
:1058000000000000000000010638C0000002020293
:10581000FE000000004040407F0000000000040245
:105820000202040000000000000000000000000070
:105830000000000080808080808080800002020460
:105840000000000000000000000000000000808058
:10585000808000000019242222223F2008F80080C6
:1058600080000000003F112020110E000000008089
:1058700080800000000E1120202011000000008018
:105880008088F800000E112020103F20000080804A
:1058900080800000001F222222221300008080F05E
:1058A000888888180020203F202000000000808089
:1058B00080808000006B94949493600008F80080CE
:1058C00080800000203F210000203F200080989829
:1058D000000000000020203F202000000000008089
:1058E0009898000000C08080807F000008F80000C9
:1058F00080808000203F24022D302000000808F81E
:10590000000000000020203F2020000080808080D8
:1059100080808000203F20003F20003F808000806A
:1059200080800000203F210000203F200000808078
:1059300080800000001F202020201F008080008029
:105940008000000080FFA12020110E0000000080D8
:1059500080808000000E112020A0FF8080808000C9
:105960008080800020203F212000010000008080F6
:10597000808080000033242424241900008080E0EB
:10598000808000000000001F2020000080800000B8
:1059900000808000001F202020103F208080800099
:1059A0000080808000010E300806010080800080A9
:1059B000008080800F300C030C300F0000808000CE
:1059C000808080000020312E0E31200080808000F9
:1059D0000080808080818E701806010000808080A9
:1059E000808080000021302C222130000000000047
:1059F000807C020200000000003F404000000000E8
:105A0000FF00000000000000FF0000000002027C18
:105A1000800000000040403F00000000000601013F
:105A2000020204040000000000000000022801D36C
:105A3000012010E00B00DBB2042B01DB01200AE0A7
:105A4000DFF8B43303EB8000C9B2405C824201D37B
:105A5000012000E000207047F8B506000F00150097
:105A60001C00022E01D301201DE02A003900C9B21A
:105A70003000FFF7DBFF012801D1012013E03800DF
:105A8000C0B2002812D1B4F5807F0DD2DFF86C03CC
:105A90007603304400EB850010F58050016864F314
:105AA0000F2101600020F2BD0120FCE7FFB2012FB1
:105AB00010D1B4F5803F0BD2D0487603304400EBD0
:105AC000850010F5A050016864F317210160E9E733
:105AD0000120E8E70120E6E700B20012C0B27047FB
