:020000041008E2
:100000000000082839760810B17D0810AD7B081073
:10001000B57D0810B97D0810BD7D081000000000F6
:10002000000000000000000000000000417C0810FB
:10003000C17D081000000000C57D0810C97D0810B2
:1000400013720810397208105F7208108572081058
:10005000AB720810D1720810F77208101D730810E7
:10006000CD7D0810D17D0810D57D0810D97D0810F0
:10007000DD7D0810E17D0810E57D0810E97D0810A0
:1000800040F0200070472DE9F14FB0B09246049146
:100090000DF142013A9A2B9199464A7000200AE0EC
:1000A0001AF8011B0498309A90470028049000F039
:1000B00034860D98401C0D909AF8000050B1252808
:1000C000EED1002100220791089209910A920B912A
:1000D0000C9204E00D9800F022BE41F001011AF8E4
:1000E000010F2028F9D023280CD02B2804D02D284C
:1000F00005D0302809D00BE041F00201EFE741F0D4
:100100000401ECE741F00801E9E741F01001E6E7FE
:100110002A280FD1D9F8002052F8040BC9F8002082
:1001200000280F9003D540420F9041F004010AF1DE
:10013000010A14E00F92DFF8EC3B0AE00F989842B6
:1001400005DA00EB800402EB4402303A0F920AF128
:10015000010A9AF80020A2F130000A28EED39AF89A
:1001600000002E2803D04FF0FF320E9229E01AF83B
:10017000010F2A2809D1D9F8000050F8042BC9F83A
:1001800000000E920AF1010A1BE02D280CBF0AF1B3
:10019000010A002000220E92DFF8884B0BE040B9E4
:1001A0000E9AA24205DA02EB820503EB4503303BCF
:1001B0000E930AF1010A9AF80030A3F130020A2ADC
:1001C000EDD3ADF840100FF660309AF8001000F053
:1001D000EDFE08B11AF8010B8DF842009DF84200BF
:1001E000682805D19AF8000068280CD1622106E041
:1001F0006C2804BF9AF800006C2804D171218DF896
:1002000042100AF1010A12A806901AF801BBBBF1CC
:1002100025012CD01C3900F09481091F022940F2DD
:100220009081133900F0AB84093900F08A81891E6E
:1002300000F04085491E00F0ED84491E022940F27D
:100240008081091F00F0E684491F00F0EF80491EFD
:1002500000F09584491E00F0D780C91E0CD0891E7D
:1002600000F08D84C91E00F08A8400F02EBD0123A9
:100270000793252100F026BDD9F8000050F8044B63
:10028000C9F80000002C059440F0AB802B99487809
:10029000002800F0A1804FF0FF340FF6942000F00A
:1002A00095FE241A40F0398500F01BBD01236A46F3
:1002B00002A9304600F000FE002840F02E85641EA2
:1002C000F4D13096079C12AF74B1309E17F8011B21
:1002D0000498B0470028049000F01F850D98401C3A
:1002E000641E0D90F2D130960A9C3021002C8DF8BE
:1002F00000100CDD309E01236A4602A9304600F052
:10030000DBFD002840F00985641EF4D13096059F7E
:10031000089C74B1309E17F8011B0498B047002860
:10032000049000F0FA840D98401C641E0D90F2D1E8
:1003300030960B9C3021002C8DF800100CDD309E87
:1003400001236A4602A9304600F0B6FD002840F0BD
:10035000E484641EF4D1309605980899099C4718E6
:1003600074B1309E17F8011B0498B0470028049020
:1003700000F0D3840D98401C641E0D90F2D130968D
:100380000C9C3021002C8DF800100CDD309E0123D8
:100390006A4602A9304600F08FFD002840F0BD8477
:1003A000641EF4D130969DF8400041077FF584AE7D
:1003B0002020002D8DF800007FF77EAE309C0123B9
:1003C0006A4602A9204600F077FD002840F0A58487
:1003D0006D1EF4D130946FE60FF63C30059000F0BE
:1003E00080BC0E9D002D04D5204600F00FFE044673
:1003F00007E02A46204600F025FE002814BF041B13
:100400002C46089400F06DBCD9F8001051F8040B8C
:10041000C9F8001020F00004002121F0FF35CDE9DB
:10042000024512AB0593782100F040BC2B99487827
:1004300020B14FF0FF340FF6B02030E79DF84200B6
:10044000622860D0682817D06A283FD06C2806D070
:10045000712847D074282CD07A281DD062E0D9F8B2
:10046000001051F8040BC9F80010002866D14FF0B5
:10047000FF340FF68C2012E7D9F8001051F8040B66
:10048000C9F8001020B94FF0FF340FF6742006E7CA
:100490000D99018000F025BCD9F8001051F8040B2B
:1004A000C9F80010002849D14FF0FF340FF6502052
:1004B000F5E6D9F8001051F8040BC9F8001000282F
:1004C0003CD14FF0FF340FF63820E8E6D9F80010A1
:1004D00051F8040BC9F8001080B94FF0FF340FF643
:1004E0002020DCE6D9F8001051F8040BC9F8001000
:1004F00020B94FF0FF340FF60820D0E60D9AD3173D
:10050000C0E90023EDE3D9F8001051F8040BC9F855
:10051000001020B94FF0FF340FF6E410BFE60D993C
:100520000170DEE3D9F8001051F8040BC9F800108F
:1005300020B94FF0FF340FF6C810B0E60D990160F6
:10054000CFE39DF842004C2807BFD9F80010CA1D20
:10055000D9F80000C21D22F00702C9F80020D2E934
:1005600000010832C9F80020CDE90201C80F02D00D
:1005700007982D210AE0BDF84000810702D50798B1
:100580002B2103E0C00705D50798202112AA11549A
:10059000401C079012A807994BF0200300EB010CB8
:1005A000DDE90201CDE92C01612BCDF814C021ACAD
:1005B0000BD00E98002848BF062105D404BF4BF08D
:1005C0002000672801D101210E91DDE902014F00D1
:1005D00047EAD0777E15FF174FF0FF32974208BFEA
:1005E000964210D1090341EA10510003002908BFC7
:1005F000002808D0ABF1610503211A2D089118D30A
:100600000FF61C1110E0DDE902014A00521512F14B
:10061000010F11D108030FD1ABF1610503211A2D90
:1006200008911FD30FF600110322604600F036FD3B
:1006300057E30FF6E801F7E7DDE902016A4600F04B
:1006400081FDCDE902014BF02000612811D1059810
:1006500030210170821C0592BBF1610F0CBF782123
:10066000582102E00FF6BC01DEE741700798801CBC
:100670000790DDE9020120F0000231F0004308BFDD
:10068000002A02D10026002542E14BF02008B8F1F3
:10069000610F40F092800E98002847BF2121019100
:1006A000401C0190019FDDE92C017F1C00220023EA
:1006B000DDE9024500F07EFD38BF85F00045009978
:1006C0008DF88420091F002F00910DF1850632DD81
:1006D000204629460022002300F086FD2BD21C2252
:1006E00000F09CFD04460D4600F01AFEFF1F002F8F
:1006F000804609DD00F01BFE02460B4620462946D7
:1007000000F01CFE04460D46F01D0721B8F1000F55
:100710000CDD491E5EBF08F00F0200F8012D4FEA04
:100720002818F3D502E0002200F8012D491EFAD561
:10073000C61D002FCCDC0DF18500361A01980DF195
:1007400085048642D8BF304600282FD4B04206DA4E
:100750000DF185010A5C082AA8BF0F2100DA0021EB
:10076000024621AB134400E0401E13F80159521E0B
:100770008D42F9D00F2904D10DF185018B5C5B1CF2
:100780008B54002A04D50099091D21AC401C00910E
:10079000411E0BD4621813783033DDB23A2DA4BF5A
:1007A0005B443A3B491E02F80139F4D50E99002901
:1007B00040F1AC80421E0E92A8E00099DFF8E826D6
:1007C00047F29750414391FBF2F20092DDE92C454C
:1007D000C2F10702002A25F0004504DD2046294623
:1007E00000F03EFB0BE052420020DFF8C01600F0A4
:1007F00037FB02460B462046294600F0A8FD04467A
:100800000D46B8F1660F06BF009F0A3706270E98FF
:100810003F18142FC8BF142730208DF884000DF125
:100820008506002F34DD2046294600F099FD01465B
:100830000A4606F1080304200A26B2FBF6F606EB88
:10084000860EA2EB4E02303203F8012C0A22B6FBD0
:10085000F2F202EB820EA6EB4E063036401E03F893
:10086000026DE9D1083F002F03F10806D9DD0846E3
:1008700000F07DFD02460B462046294600F05EFD55
:100880000022DFF82C3600F079FD04460D46CAE759
:100890000DF18500361A0DF1850404E00098401E24
:1008A000761E0090641C20783028F7D0B8F1660FCF
:1008B00002D10098401C04E0B8F1650F0CBF012084
:1008C00000200E9940188642B8BF701E00281DD423
:1008D000B04204DA215C3429C8BF392100DC302160
:1008E0000246631E9D1800E0401E15F80169521E65
:1008F0008E42F9D0392902D1A15C491CA154002AA9
:1009000004D50099491C1C46401C00910646009DD8
:100910000E9F30B2002802DC01260FF210644BF06B
:100920002000662808BF6D1C15D067280FFA85F8CF
:1009300041D118F1040F44DBB84542DA9DF840007C
:100940006D1C010703D430B2B842D8BF074628B2A5
:100950003F1A48BF00270FFA85F8B8F1000F00F3DF
:10096000AF800898411C0891302205990A54002F45
:1009700003DC9DF84000010705D50898411C08914B
:100980002E2205990A5417EB080FB8BF7D422DB2ED
:100990006842ED1932B20B909542B8BF2E46059BC6
:1009A000089836B2099632462146184400F076FB84
:1009B000AD1B0C95CCE0BBF1610F15D14FF0700B66
:1009C00017E030B2B84204DA9DF840100A0758BF69
:1009D00007467F1E48BF0027BBF1670F14BF4FF0CB
:1009E000450B4FF0650B04E0BBF1410F08BF4FF022
:1009F000500B0898411C0891002F059914F8012B01
:100A00000A5403DC9DF84000010719D50898411CE1
:100A100008912E2205990A54002F11DD761E30B25E
:100A20008742B8BF3E460598089B32B2214618441B
:100A300000F034FB089836B23018BF1B08900B97B3
:100A4000059808990844B8F1000F80F800B003D465
:100A50002B224270821C04E02D2145464170821CED
:100A60006D4200212CAB28460AE004460A2094FB84
:100A7000F0F000EB8005A4EB450403F8014B491CA2
:100A800000B20028F1DC012906DC4BF020006528CB
:100A900004BF302002F8010B00292CAB08D1302014
:100AA00002F8010B06E0491E585C303002F8010BD9
:100AB0000029F8DC059908980844121A099247E0C1
:100AC00030B229B288421BDA0598089B32B221461F
:100AD000184400F0E3FA089936B271180891A8EBAF
:100AE0000600002F0B9003DC9DF84000020705D59F
:100AF000059A2E2050540999491C09910C9727E01A
:100B00000598089B2AB22146184400F0C7FA0898B5
:100B1000761B4044002F089003DC9DF840100A0724
:100B200004D5411C08912E2205990A5430B28742FF
:100B3000B8BF3E460598089B32B204EB0801184442
:100B400000F0ACFA089836B23018BE1B08900B962D
:100B50009DF8400000F01400102840F0C280079A71
:100B600008980B99821809988A1882180C980F997E
:100B70008018884280F2B580081A0A90B1E09DF88A
:100B80004200622808D068280ED06A2814D06C2849
:100B90001FD0712810D01CE0D9F8001051F8040BB8
:100BA000C9F80010C0B21AE0D9F8001051F8040BCF
:100BB000C9F8001080B212E0D9F80000C21D22F07E
:100BC0000702C9F80020D2E900010832C9F8002064
:100BD00006E0D9F8001051F8040BC9F80010002104
:100BE000CDE902019DF8400001075AD5DDE9022355
:100BF000002B08BF002A54D04BF02000782850D199
:100C0000079812A930220A54401C431C079301F88C
:100C100000B046E09DF84200622808D068280ED057
:100C20006A2814D06C281FD0712810D01CE0D9F885
:100C3000001051F8040BC9F8001040B21AE0D9F8BE
:100C4000001051F8040BC9F8001000B212E0D9F8F6
:100C50000000C21D22F00702C9F80020D2E90001FD
:100C60000832C9F8002006E0D9F8001051F8040B4A
:100C7000C9F80010C117CDE90201002902D5079873
:100C80002D210AE0BDF84000810702D507982B21ED
:100C900003E0C00705D50798202112AA1154401C73
:100CA000079012A8079901440591594602A800F03F
:100CB0004DF816E001200790D9F8000050F8041B09
:100CC000C9F800008DF848100BE001212522BBF186
:100CD000000F07918DF8482003D0022207928DF86B
:100CE00049B00F9D07990A986D1A08992D1A0B980B
:100CF0006D1A09992D1A0C986D1A9DF840102D1A2D
:100D000048073FF5DFAA2021002D8DF800107FF75E
:100D1000D9AA309E2C46FFF7C9BA4FF0FF3031B048
:100D2000BDE8F08FCBCCCC0C686A6C747A4C0000B8
:100D30007072696E74665F733A2062616420257315
:100D400020617267756D656E740000002DE9FC47C7
:100D500007468A463C6950466F2808BF082505D0DB
:100D6000FFF78EF9782814BF0A251025D7E900016E
:100D70003C2680468946BAF1640F18BFBAF1690F64
:100D800005D1002903D5D8F1000869EB4909B9F16B
:100D9000000F08BFB8F1000F0CD1386B50B9082D07
:100DA0003AD197F83800010736D530223B2684F82F
:100DB0003B2031E08DF800A0404649462A46EB171B
:100DC00000F0E6FA3032D0B2761E3A2801960EDAFA
:100DD000A255404649462A46EB1700F0D9FA80460C
:100DE0005FEA010908BFB8F1000F05D108E09DF8DE
:100DF00000001218513AEBE7F868A1198842DBD3DA
:100E0000082D09D197F83800010705D5A05D3028D5
:100E100002D0761E3020A055C6F13C03BB61A1195B
:100E2000F960386B834208DAC31A3B624FF6EF7001
:100E3000398F01403987BDE8F38700280ED597F830
:100E4000380000F01400102808D17A6B7969386AEC
:100E5000521A121AD21A002AC8BF3A62BDE8F387A2
:100E60002DE9D04306460F4614464FF00008DFF840
:100E7000449012E0E00707D542464B4630463946DB
:100E800000F07CFA06460F464046494642464B462D
:100E900000F074FA641080468946002CEAD130468E
:100EA0003946BDE8D0830000A08601000000F03F75
:100EB00084D7974100002440F8B505460E461746F2
:100EC0001C4600205CB117F8011BB068A847B06051
:100ED00030B1F06A401CF0620020641EF3D1F2BD14
:100EE0004FF0FF30F2BD00007072696E74665F7380
:100EF0003A20256E20646973616C6C6F77656400BD
:100F00007072696E74663A2062616420256E206199
:100F10007267756D656E7400000000006E616E0092
:100F20004E414E00696E6600494E46003000F0B4F6
:100F30000246106895681318506803EB5004C00708
:100F400048BF4D44A3422DD013F8016B16F00300A7
:100F500004BF13F8010BC01C31090F2907D113F886
:100F6000011B0F3103E013F8017B05F8017B401EE4
:100F7000F9D10029E6D013F8010BC6F38106032E40
:100F800008BF13F8016B00EB0620404228440026FE
:100F9000B71E8F421EBF10F8017B05F8017B761C3F
:100FA000F6D1CFE7F0BC02F10C007047C9B202786D
:100FB0008A421AB11CBF10F8012FF9E718BF0020B0
:100FC00070470268531C03601170704780B500B908
:100FD00006A005490B681BB122220021984701E0B9
:100FE00000F0EEFA222002BDB41B0328636F6E737B
:100FF000747261696E742068616E646C65723A2007
:10100000626164206D6573736167650000F10103BF
:10101000810704D010F8011B820781B1FAD1026860
:10102000A2F10131914311F0803104BF50F8042F37
:10103000F6E709BAB1FA81F100EBD100401CC01A01
:1010400070470000C9B2830706D0521E22D310F8A1
:10105000013B9942F7D11FE0083A13D302F1040291
:1010600041EA012141EA014150F8043B121F21BF2E
:101070004B40A3F1013C2CEA030C1CF0803FF3D061
:10108000C9B2001F083210F8013B521E28BF91EA76
:10109000030FF8D818BF0120401E704762B38B07BA
:1010A00008D0521E11F8013B00F8013B00F02480EB
:1010B0008B07F6D1830740F0208000BF103A07D39A
:1010C00030B4B1E83810103AA0E83810F9D230BC8A
:1010D000530724BFB1E80810A0E8081044BF51F836
:1010E000043B40F8043BD20724BF31F8022B20F820
:1010F000022B44BF0B7803707047121F17D35B009D
:1011000009D151F8043B20F8023B1B0C121F20F8B8
:10111000023BF6D20BE051F8043B00F8013B1B0AFE
:1011200020F8023B1B0C121F00F8013BF3D238BF22
:10113000121D521E24BF11F8013B00F8013BF8D8E4
:101140007047000010B5144600F002F8226010BD90
:10115000C1F30A5343B14A0012F5001F28D2A3F28B
:10116000FE32A1EB0251704750EA410C20D001F051
:10117000004C31EA0C01B1FA81F204BFB0FA80F3FD
:10118000D2180B3AB2F120032CBF00FA03F19140C0
:1011900041EA0C013EBFC2F1200C20FA0CF31943C6
:1011A0009040524240F2FD33D21A01EB0351704796
:1011B0000022704741EA030C50EA4C0C52EA0C0C36
:1011C0004FF4001C09D307D01CEB410F9CBF1CEB54
:1011D000430F8B4208BF824270471CEB430FFBD882
:1011E000994208BF9042704741EA030C50EA4C0C08
:1011F00052EA0C0C4FF4001C09D307D01CEB410F32
:101200009CBF1CEB430F994208BF904270471CEBF8
:10121000410FFBD88B4208BF8242704700B541ECBA
:10122000100B104600F004F851EC100B00BD00BF8D
:10123000020030EE101B40F2FF7C37D41CEA115341
:1012400013D063456BD09B18634504D201EB025168
:1012500020EE101B704701F0004141EA0C510020C4
:1012600041EC100BAFF30080704710EE100B50EA0A
:10127000410054D0B2F57F7F08D202EB5C01090532
:10128000002041EC110B20EE010B70474FF0FE41A6
:10129000002341EC113B20EE010BB2F57E7230EEE3
:1012A000101B4FEA410342EB5353CDE752421CEA75
:1012B000115316D0634532D09A4204D2A1EB0251A9
:1012C00020EE101B70475B1ED21AA1EB035120EEDB
:1012D000101B372A0CD3002001F0004141EC100B09
:1012E000C0E710EE100B50EA410018D0372AF2D2B6
:1012F000C2EB5C021105002041EC110BF1EE100A6B
:1013000020F01F0121F4F851E1EE101A20EE010B3C
:10131000F1EE101AE1EE100A11F0080FA2D1704799
:1013200041EC100BBDEEC00B10EE100A704700EE42
:10133000100AB8EEC00B51EC100B704741EC100BCB
:1013400043EC112B30EE410B51EC100B704741EC8C
:10135000100B43EC112B80EE010B51EC100B70477E
:1013600041EC100BBCEEC00B10EE100A704700EE03
:10137000100AB8EE400B51EC100B704741EC100B0B
:1013800043EC112B20EE010B51EC100B70470000C9
:10139000BBBBE1B1B2F5803F80F07E80022A1ED94E
:1013A0008C46B1FBF2F102FB11C31B0443EA10436C
:1013B000B3FBF2FC02FB1C3380B240EA0343B3FBF5
:1013C000F2F002FB103240EA0C4000237047022A80
:1013D00005D98446B0FBF2F002FB10C270474AB157
:1013E00005D100F0010249085FEA30007047002291
:1013F0000023704700F0E8B80B0002000021002035
:101400007047904271EB030CF6D3B3F5803F2FD2B7
:10141000F0B5B3FA83F7B1FA81F4A7F10F0E3D1BD3
:101420005340CEF1200602FA0EF2F3415340B5F1DB
:101430000F0746D80F3C2C444140C4F12006A04081
:10144000F1414140B1FBF3F603FB1611A2FB064547
:10145000001BA94102D2761E8018594180EA010280
:1014600021FA0EF362FA0EF200215A403046F0BD26
:1014700030B4B1FBF3FC03FB1C11A2FB0C45001BB9
:10148000A94103D2ACF1010C8018594130BC02468D
:101490000B46604600217047B2F1807F65D3F0B5FE
:1014A000B2FA82F7B1FA81F4C7F10F063D1B22FAB6
:1014B00006F307F1110EF24120355A40B5F10F073E
:1014C000B8D94140C4F12006A040F1414140B1FBF0
:1014D000F3FC03FB1C11A2FB0C45001BA94103D22A
:1014E000BCF1010C801859410F2F12D30F3FC903D3
:1014F00041EA5041B1FBF3F603FB1611A2FB06458E
:10150000D4EBC030A94102D2761E8018594146EA78
:10151000CC3C07B34140C7F12006B840F1414140FF
:10152000B1FBF3F603FB1611A2FB0645001BA94114
:1015300002D2761E8018594180EA010221FA0EF388
:10154000C7F1200462FA0EF20CFA07F05A402CFAA6
:1015500004F13043F0BD80EA010221FA0EF30021CC
:1015600062FA0EF260465A40F0BD8C46B1FBF2F1D1
:1015700002FB11C31B0243EA1063B3FBF2FC02FB44
:101580001C331B024CEA002043EA1063B3FBF2FC5D
:1015900002FB1C331B024CEA002043EA1063B3FB3E
:1015A000F2FC02FB1C331B024CEA002043EA1063EE
:1015B000B3FBF2FC02FB1C324CEA00200023704714
:1015C000012000F003B800007047000080B5AFF3C1
:1015D0000080024A11001820ABBEFBE72600020083
:1015E00080B501000820DFF888251060C9B201200D
:1015F00000F038FF0820DFF88815086001BD2DE9EC
:10160000F047060015001F00DFF868853000B8F8C5
:10161000002080B2904201D2012000E000200C00A6
:10162000DFF85495B0224946C0B201F00EFBDFF856
:101630004CA52000BAF8001080B2884201D20120E7
:1016400000E00020B1224946C0B201F0FEFA2800B5
:10165000B8F8001080B2884201D2012000E00020DA
:10166000B2224946C0B201F0F0FA3800BAF80010D0
:1016700080B2884201D2012000E00020B322494616
:10168000C0B201F0E2FADFF8FC040078002805D0CF
:10169000022847D024D3032866D086E02A20FFF70B
:1016A0009FFF2836310089B2012000F030FF283535
:1016B000290089B2012000F02AFF2B20FFF790FFBC
:1016C0003434210089B2012000F021FF3437390081
:1016D00089B2012000F01BFF2C20FFF781FF64E09E
:1016E0002A20FFF77DFF2836310089B2012000F063
:1016F0000EFF2835290089B2012000F008FF2B20B9
:10170000FFF76EFF3534210089B2012000F0FFFEA3
:101710003537390089B2012000F0F9FE2C20FFF79F
:101720005FFF42E02A20FFF75BFF3436310089B2C9
:10173000012000F0ECFE3435290089B2012000F0D0
:10174000E6FE2B20FFF74CFF2834210089B2012050
:1017500000F0DDFE2837390089B2012000F0D7FE05
:101760002C20FFF73DFF20E02A20FFF739FF353618
:10177000310089B2012000F0CAFE3535290089B256
:10178000012000F0C4FE2B20FFF72AFF283421009F
:1017900089B2012000F0BBFE2837390089B2012050
:1017A00000F0B5FE2C20FFF71BFFBDE8F08700B569
:1017B00085B0684601F067FA0120ADF80000DFF857
:1017C000B4030088ADF80200DFF8B0030088ADF87C
:1017D0000400DFF80C050078002803D002280FD0A1
:1017E00007D30DE006208DF8060008208DF80700CD
:1017F00006E008208DF8060010208DF80700FFE7AE
:101800000FF2C12003900FF211000490684601F01E
:101810004AFA05B000BD0000F8B5DFF8584320884B
:10182000400001F093FA0500002000200820DFF8B6
:10183000B4140860DFF844633088431E9BB22088EC
:10184000421E92B200210020FFF7D9FE002005E0E1
:10185000DFF89414098825F81010401C218888426C
:10186000F6D3002705E022882900012000F0A4FE1D
:101870007F1C30888742F6D30820DFF87014086098
:10188000280001F06CFAF1BDDFF8F8120870087852
:101890000028012803D9801E012809D910E0F02072
:1018A000DFF8D01208808720DFF8D012088007E028
:1018B0008720DFF8C0120880F020DFF8C01208800F
:1018C0007047DFF82C241080DFF81C04018070477B
:1018D000F8B5D8B005000E0014002800DFF8941207
:1018E000098880B2884201D2012000E00020DFF8A0
:1018F00088724FF4EA723900C0B201F0A6F93000E4
:10190000DFF87812098880B2884201D2012000E015
:10191000002040F2D5123900C0B201F096F9002043
:1019200000200820DFF8BC130860DFF8B40300785B
:10193000002804D0022800F0BF8046D3BCE0F31D8D
:101940009BB26A1D92B2310089B2280080B2FFF7C3
:1019500056FE002000E0401C0100C9B206292EDA24
:101960000621DFF890232300DBB24B431A44030027
:10197000DBB21A4412F8C02C00230BE040AD1E006D
:10198000F6B24E4356FA80F6DFF85C733F8825F8CE
:10199000167010E01D00EDB2082DDCDAD507EDD58C
:1019A00040AD1E00F6B24E4356FA80F6DFF84073A3
:1019B0003F8825F81670D2B252085B1CEAE7302245
:1019C00040A9012000F0F8FD76E016F10F039BB26C
:1019D000EA1D92B2310089B2280080B2FFF70FFEF3
:1019E000002000E0401C0100C9B208295EDADFF8DF
:1019F00008232100C9B2090111440300DBB21944D4
:101A0000B1F5007109782300DBB21B011A44030011
:101A1000DBB21A44B2F5FC72127800231BE06D466B
:101A20001E00F6B2F60056FA80F6DFF8BC723F8868
:101A300025F816700CE0CD07F1D56D461E00F6B204
:101A4000F60056FA80F6DFF8A8723F8825F816707F
:101A5000C9B249085B1C1D00EDB2082DEBDB00216B
:101A60000DE06B460D00EDB2ED0055FA80F503EB8D
:101A70004503DFF874522D88A3F8805012E00B0064
:101A8000DBB2082BAEDAD307EBD56B460D00EDB217
:101A9000ED0055FA80F503EB4503DFF854522D882D
:101AA000A3F88050D2B25208491CE8E78022694668
:101AB000012000F081FDFFE70820DFF8C014086076
:101AC00059B0F0BDF8B504000E0015002000DFF895
:101AD000A410098880B2884201D2012000E00020D1
:101AE000DFF8947040F22B223900C0B201F0ADF85B
:101AF0003000DFF88810098880B2884201D20120C6
:101B000000E000204FF40B723900C0B201F09DF8E4
:101B100000270EE00CE0380080B22A5C310089B268
:101B2000380080B2C00010FA84F080B2FFF7D0FE17
:101B30007F1C380080B2285C002817D0DFF8BC0179
:101B40000078002803D00228E4D0E4D3F0E738007E
:101B500080B22A5C310089B23B009BB2062043432D
:101B600013FA84F080B2FFF7B3FEE1E7F1BD0000A5
:101B7000040B314074BF0228B479081076BF0228E4
:101B8000080B3140C11B03282DE9F84F8046140093
:101B90009A464046DFF8EC23128880B2904201D288
:101BA000012000E000200F00DFF8DC934FF43F72CB
:101BB0004946C0B201F049F83800DFF8C41309887B
:101BC00080B2884201D2012000E0002040F2FD22D4
:101BD0004946C0B201F039F8002C01D0012000E0E4
:101BE00000200C9D0B9E40F2FE224946C0B201F03F
:101BF0002CF80020002000200020300080B240009F
:101C000001F0A4F88146082036490860E819431E0F
:101C10009BB216EB0800421E92B2390089B24046D0
:101C200080B2FFF7ECFC5FF0000B0A9FDDF8348018
:101C300007E0320092B24946012000F0BDFC1BF1E2
:101C4000010B280080B2834541D2380080B200FBEE
:101C50000BF0290089B2B0FBF1F1504680B241434C
:101C6000214400220EE04FF6FF7029F8120008E030
:101C70004346DBB280B29BB29842F4D2002029F8EE
:101C80001200521C300080B28242D2D2504680B242
:101C900000FB02F033009BB2B0FBF3F0085C43465C
:101CA000DBB2002BE4D10300DBB2DB08DBB2DB02EA
:101CB00084465FFA8CFC5FEA9C0C5FFA8CFC53EA6A
:101CC0004C13C0F3C400034329F81230D9E70820AD
:101CD000DFF8A8120860484601F041F8BDE8F18F2E
:101CE0007FBF0228040631407ABF0228080631402F
:101CF00078BF0228686C0810606208107FBF022855
:101D00001FB50820029004200190012000900123BB
:101D1000A14A0021012000F0B7FC03230022012189
:101D2000B32001F096F8032300220121B42001F032
:101D300090F8032301220121632001F08AF8032394
:101D400001220121582001F084F8944C2078FFF7FB
:101D50009BFD8F4801888F480088FFF7B2FD102057
:101D60008F490860052001F06DF910208D49086049
:101D7000782001F067F90820844908601120FFF7F6
:101D80002FFC3620FFF72CFC2078002805D00228F5
:101D90000DD007D303280FD012E0A021012000F0BE
:101DA00061FB0DE07021012000F05CFB08E00021E8
:101DB000012000F057FB03E0C021012000F052FB9E
:101DC0003A20FFF70DFC0521012000F04BFBB2206B
:101DD000FFF706FC0C21012000F044FB0C21012040
:101DE00000F040FB0021012000F03CFB33210120EA
:101DF00000F038FB3321012000F034FBB720FFF75F
:101E0000EFFB3521012000F02DFBBB20FFF7E8FBA5
:101E10003721012000F026FBC020FFF7E1FB2C2139
:101E2000012000F01FFBC220FFF7DAFB0121012097
:101E300000F018FBC320FFF7D3FB1221012000F0B4
:101E400011FBC420FFF7CCFB2021012000F00AFB8E
:101E5000C620FFF7C5FB0F21012000F003FBD020B7
:101E6000FFF7BEFBA421012000F0FCFAA121012014
:101E700000F0F8FAE020FFF7B3FBD021012000F0DA
:101E8000F1FA0421012000F0EDFA0D21012000F00B
:101E9000E9FA1121012000F0E5FA1321012000F0F8
:101EA000E1FA2B21012000F0DDFA3F21012000F0B2
:101EB000D9FA5421012000F0D5FA4C21012000F07C
:101EC000D1FA1821012000F0CDFA0D21012000F0F7
:101ED000C9FA0B21012000F0C5FA1F21012000F0F2
:101EE000C1FA2321012000F0BDFAE120FFF778FBC1
:101EF000D021012000F0B6FA0421012000F0B2FA4E
:101F00000C21012000F0AEFA1121012000F0AAFA04
:101F10001321012000F0A6FA2C21012000F0A2FAE2
:101F20003F21012000F09EFA4421012000F09AFA9E
:101F30005121012000F096FA2F21012000F092FAA1
:101F40001F21012000F08EFA1F21012000F08AFAE3
:101F50002021012000F086FA2321012000F082FADE
:101F60002120FFF73DFB2920FFF73AFB082003491A
:101F70000860FFF751FCFFF71AFC1FBD080631404F
:101F800076BF022874BF0228B479081004063140D5
:101F90007ABF022878BF022880C3C901C11B032869
:101FA000040B3140080B3140C0F840127047D0F8A4
:101FB0000802C005C00D7047D0F80802C0F3C03059
:101FC000704738B505002800FFF7F1FF040028002E
:101FD000FFF7F2FF0419002C01D1012000E00020DE
:101FE000C0B232BD0068C0F38130002801D180202A
:101FF00000E040207047016851F0004101607047E7
:102000002030026861F39B6202607047022801D3AE
:10201000012010E00B00DBB2042B01DB01200AE001
:10202000DFF84C3603EB8000C9B2405C824201D33A
:10203000012000E000207047F8B504000F001500F3
:102040001E00022C01D301202AE02A003900C9B267
:102050002000FFF7DBFF012801D1012020E00698D6
:102060003900C9B202291ED1B6F5803F19D2202805
:1020700017D24FF4C052DFF8FC1563030B4403EB97
:10208000850313441F6866F317271F606403214408
:1020900001EB850111440A6860F3C7020A60002061
:1020A000F2BD0120FCE7FFB2032F1FD1B6F1807F04
:1020B0001AD2202818D24FF4E052DFF8B815630383
:1020C0000B4403EB850313441F6807F0FF0757EA2F
:1020D00006271F606403214401EB850111440A684F
:1020E00060F3C7020A60DAE70120D9E70120D7E7E9
:1020F00000B20012C0B27047F8B505000E0017001C
:10210000280000B2FFF7F4FF04002000C0B202284C
:1021100001D3012024E03A003100C9B22000C0B24E
:10212000FFF774FF012801D1012019E0DFF8441501
:102130002000C0B2400308442A00D2B200EB820063
:10214000D0F8000CF6B266F3092067F30700E4B29A
:1021500064032144EDB201EB8501C1F8000C0020BD
:10216000F2BD70B504000D001600022C01D3012051
:102170001DE032002900C9B22000FFF747FF012807
:1021800001D1012013E0DFF8EC146003085850F08F
:10219000004050F0407050F47F00EDB265F309202C
:1021A00066F307006203885064030859002070BD7D
:1021B0000100C020C9B2002905D0022907D004D3EC
:1021C000032906D006E0122004E0622002E07A2013
:1021D00000E01A20C0B270470100C020C9B2002937
:1021E00005D0022907D004D3032906D006E0112028
:1021F00004E0612002E0792000E01920C0B27047BD
:102200000100C020C9B2002905D0022907D004D39B
:10221000032906D006E0102004E0602002E07820C8
:1022200000E01820C0B270470100C020C9B20029E8
:102230000BD002290DD00AD304290ED00BD30629C6
:102240000FD00CD307290ED00EE013200CE0142081
:102250000AE0632008E0642006E07B2004E02920F7
:1022600002E01B2000E01C20C0B2704701000020EB
:10227000C9B2002905D0022907D004D3032906D00A
:1022800006E0132004E0132002E0132000E01320F6
:10229000C0B2704701000020C9B2002905D0022950
:1022A00007D004D3032906D006E0132004E013204E
:1022B00002E0132000E01320C0B2704701000020AC
:1022C000C9B2002905D0022907D004D3032906D0BA
:1022D00006E0132004E0132002E0132000E01320A6
:1022E000C0B2704701000020C9B200290BD00229FA
:1022F0000DD00AD304290ED00BD306290FD00CD34E
:1023000007290ED00EE013200CE013200AE0132062
:1023100008E0132006E0132004E0132002E013205D
:1023200000E01320C0B27047C9B2082902D01029BA
:1023300046D096E0DFF840130200D2B251F82220D6
:10234000126832F440420300DBB251F823301A60C5
:102350000200D2B251F82220D2F8002252095201D2
:102360000300DBB251F82330C3F800220200D2B2DE
:1023700051F82220D2F8002252F007020300DBB20B
:1023800051F82330C3F800220200D2B251F82220C3
:10239000D2F80023520952010300DBB251F8233076
:1023A000C3F800230200D2B251F82220D2F8002351
:1023B00052F00702C0B251F82000C0F8002350E0EC
:1023C000DFF8B4120200D2B251F82220126832F4BF
:1023D00040420300DBB251F823301A600200D2B24F
:1023E00051F82220126852F480420300DBB251F807
:1023F00023301A600200D2B251F82220D2F8002213
:10240000520952010300DBB251F82330C3F8002215
:102410000200D2B251F82220D2F8002252F00F026C
:102420000300DBB251F82330C3F800220200D2B21D
:1024300051F82220D2F80023520952010300DBB2E6
:1024400051F82330C3F800230200D2B251F8222001
:10245000D2F8002352F00F02C0B251F82000C0F8A9
:1024600000237047F8B504000E0008212000C0B218
:10247000FFF75AFFDFF804522000C0B2285C08289A
:102480000FD02000C0B2285CC010DFF8F41111EBAF
:10249000C01101202200D2B2AA5C12F007029040C3
:1024A0000860DFF8D471F6B231002000C0B257F8EE
:1024B0002000FFF779FD2000C0B257F82000FFF799
:1024C00091FD06002000C0B257F82000FFF76FFD15
:1024D0008642F0D02000C0B257F82000FFF771FD0F
:1024E0000028F7D02000C0B2285C08280ED02000B9
:1024F000C0B2285CC010DFF88C1111EBC0110120B4
:10250000E4B22A5D12F0070290400860F1BDF8B510
:1025100004000E0010212000C0B2FFF705FFDFF815
:102520005C512000C0B2285C08280FD02000C0B247
:10253000285CC010DFF8481111EBC0110120220007
:10254000D2B2AA5C12F0070290400860DFF828714E
:10255000B6B231002000C0B257F82000FFF724FDCA
:102560002000C0B257F82000FFF73CFD0600200015
:10257000C0B257F82000FFF71AFD8642F0D02000C5
:10258000C0B257F82000FFF71CFD0028F7D020004C
:10259000C0B2285C08280ED02000C0B2285CC01051
:1025A000DFF8E01011EBC0110120E4B22A5D12F057
:1025B000070290400860F1BD2DE9F84307000D00C7
:1025C000140010213800C0B2FFF7AEFEDFF8AC6097
:1025D0003800C0B2305C08280FD03800C0B2305C80
:1025E000C010DFF89C1011EBC01101203A00D2B2EC
:1025F000B25C12F0070290400860DFF87C80298806
:102600003800C0B258F82000FFF7CEFCAD1C3800EF
:10261000C0B258F82000FFF7E5FC81463800C0B290
:1026200058F82000FFF7C3FC8145F0D0641E002C51
:10263000E3D13800C0B258F82000FFF7C2FC0028F0
:10264000F7D03800C0B2305C08280ED03800C0B2D5
:10265000305CC010DFF82C1011EBC0110120FFB26C
:10266000F25D12F0070290400860BDE8F1830000BF
:10267000347D0810000004403CBF0228981B03284A
:1026800004003140080031402DE9F04F9DB00400B6
:102690000D001E0092000023A1480021FEF778FEE5
:1026A0000700342100220DF10408404600F05AFDD5
:1026B0003C2100220DF13808404600F053FD200077
:1026C0003100C0B2C9B2884201D1012000E000202F
:1026D000DDF89890DFF84CA24FF464725146C0B216
:1026E00000F0B3FA30004946C0B2C9B2884201D105
:1026F000012000E00020DDF89C8040F2913251463C
:10270000C0B200F0A2FA062002904846C0B2FFF71D
:10271000C1FD8DF80C004846C0B2FFF75DFD824652
:102720005FF0080B4846C0B2FFF756FDDFF8F8919E
:1027300001AA9AFBFBF10BFB11AA5146C0B2C010D3
:10274000C001484400F0CDFD062002903000C0B228
:10275000FFF78CFD8DF80C003000C0B2FFF728FDAC
:1027600082465FF0080B3000C0B2FFF721FD01AADE
:102770009AFBFBF10BFB11AA5146C0B2C010C0017D
:10278000484400F0AEFD4046C0B204281ED00820E8
:1027900002904046C0B2FFF791FD8DF80C00404614
:1027A000C0B2FFF72DFD06005FF0080A4046C0B238
:1027B000FFF726FD01AA96FBFAF10AFB116631002C
:1027C000C0B2C010C001484400F08BFD289E30000C
:1027D000C0B208281ED0062002903000C0B2FFF719
:1027E00081FD8DF80C003000C0B2FFF71DFD804662
:1027F0005FF0080A3000C0B2FFF716FD01AA98FB8F
:10280000FAF10AFB11884146C0B2C010C001484429
:1028100000F067FD2000C0B2032803D22000C0B240
:10282000401C00E000202200D2B2521D032110F50E
:102830008F7000B2FFF760FC2000C0B2032803D203
:102840002000C0B2401C00E0002010F58F7000B2E4
:10285000FFF74EFC17F01F010091C7F3571322003A
:10286000D2B2521D0321C0B2FFF7E6FB2000C0B276
:10287000032803D22000C0B2401C00E0002010F565
:102880008F7000B2FFF734FC2200D2B2521D032138
:10289000C0B2FFF766FCEDB2002D05D0022D09D0C5
:1028A00005D3032D09D00AE00020109007E0012095
:1028B000109004E00220109001E00320109001200D
:1028C0000E9000200F9004201190082012900820F4
:1028D000139001208DF8500001208DF853000F4D0A
:1028E00000220EA92000C0B255F8200000F038FDEB
:1028F00000212000C0B255F82000FFF781FB200026
:10290000C0B255F82000FFF776FB0348E4B2065545
:102910001DB0BDE8F08F0000981B03283CBF0228C3
:1029200000809698187A08100000314082B000208C
:102930000190002000900020019009E00098401CC8
:1029400000900098B0F5005FF8D30198401C01900A
:102950000198B0F5805F02D200200090F1E702B04C
:10296000704780B50100002000F0D7FF01BD2DE9C0
:10297000F043ADF5137D0700884616001C000020CB
:10298000ADF802000020ADF8000000200290002009
:10299000ADF804000020ADF806004046FEF736FB17
:1029A0000290DFF870532888002801D028698047FA
:1029B000DFF864030078002800F0338128880028BD
:1029C00000F01181BDF90600411CADF806103A0077
:1029D000010089B20020EB68984747464046FEF761
:1029E00015FB02906888A97990FBF1F0ADF804001E
:1029F0003800471C00780028FAD10020ADF800000C
:102A00000EE07F1E38782F2802D038785C2804D159
:102A1000BDF80000401CADF800000298401E029076
:102A2000BDF80000022802DA02980028E9D50298D1
:102A3000002806D47A1CDFF8E41253A801F08CF9C0
:102A40000EE0BDF80000002805D13A00B44953A8B3
:102A500001F082F904E03A00B04953A801F07CF992
:102A60000020ADF8020042E0BDF80010BDF80020E3
:102A7000BDF8023053AF9BB2BDF90400434313FAD3
:102A800082F0385C43AA89B25054BDF80000401C63
:102A9000ADF80000BDF8000080B2BDF90410884216
:102AA0000EDA53A8FEF7B2FABDF80020BDF80230E6
:102AB0009BB2BDF904104B4313FA82F18842D3D282
:102AC000002043A9BDF800208854BDF90600411C30
:102AD000ADF8061043AAE97911FB00F189B2002094
:102AE000EB689847BDF80200401CADF80200BDF845
:102AF000027053A8FEF78AFABDF90410B0FBF1F09A
:102B0000401CBFB2874203D20020ADF80000C1E7ED
:102B10003200844953A801F01FF9BDF90600411C99
:102B2000ADF8061053AAE97911FB00F189B2002033
:102B3000EB689847002C74D00020ADF8020041E00B
:102B4000BDF80010BDF80020BDF802309BB2BDF901
:102B50000400434313FA82F0205C43AA89B2505424
:102B6000BDF80000401CADF80000BDF8000080B2C8
:102B7000BDF9041088420EDA2000FEF747FABDF8CE
:102B80000020BDF802309BB2BDF904104B4313FA8C
:102B900082F18842D4D2002043A9BDF80020885495
:102BA000BDF90600411CADF8061043AAE97911FBF6
:102BB00000F189B20020EB689847BDF80200401C84
:102BC000ADF80200BDF802602000FEF71FFABDF963
:102BD0000410B0FBF1F0401CB6B2864221D20020B6
:102BE000ADF80000C1E74FF4807100220DF10C092F
:102BF000484600F0B7FA3800A9688847002C07D08B
:102C0000009433004246484903A801F0A5F805E0C6
:102C100033004246454903A801F09EF803A8A9687D
:102C200088470DF5137DBDE8F08310B53A4800786C
:102C3000002809D03F4C2100002000F07CFE01223A
:102C400021003B4801F00DF910BD38B50C0015000E
:102C5000C0B2002803D138480078002800D131BD27
:102C600036490878002800D0FEE70878401C087034
:102C700001F000FB00232A0021003148FFF777FE16
:102C8000FFF754FEF6E7002101804FF6FF71418007
:102C90008180FF218171C171002181600021C160AB
:102CA0000021016170471B4902880A8042884A80DE
:102CB00082888A8082798A71C279CA7182688A60C0
:102CC000C268CA6000690861012013490870704732
:102CD00000B585B06846FFF7D6FF1A4802906846EF
:102CE000FFF7E1FF05B000BD80B5FFF7F1FF00235E
:102CF00000225FF4E131002000F043FF4023124A3C
:102D000000210B4801F04DFA0121002000F0BAFE2D
:102D100001BD00004C1B0328B91B0328107D0810BF
:102D2000F07C08101C7D0810247C0810A87C08107A
:102D30001C1B0328BA1B03287EBF0228BB1B0328C9
:102D4000007D081063290810AC1A032810B501F0A3
:102D5000B9FA040008BFFEF733FC204610BD01F0AD
:102D60004FBB00000069C84010F00100704701220D
:102D700012FA01F181607047012212FA01F14160FB
:102D8000704710B48900436C0F248C40A34312F0A9
:102D90000F0212FA01F11943416410BC704780B56B
:102DA000C9B200290ED00100C9B2082291FBF2F38A
:102DB00002FB1311494AC0B2C010C0011044FFF712
:102DC000D6FF0DE00100C9B2082291FBF2F302FB2D
:102DD0001311424AC0B2C010C0011044FFF7CCFF2B
:102DE00001BD80B50100C9B2082291FBF2F302FBDC
:102DF00013113A4AC0B2C010C0011044FFF7B2FF2D
:102E0000C0B202BD10B5C9B200290BD1D2B2002A9E
:102E100002D0022A02D003E00F220BE00B2209E0CD
:102E20000A2207E0D2B2042A01D10C2200E00E22CD
:102E300012F007020100C9B2082391FBF3F403FB6F
:102E40001411264BC0B2C010C0011844FFF799FFFF
:102E500010BD2DE9F8418DB004000E0015001F00D3
:102E600034210022E846404600F07CF9F6B2002EFC
:102E70000ED1FFB2002F02D0022F03D005E00F20A9
:102E800001900DE0082001900AE00820019007E081
:102E9000FFB2042F02D10F20019001E00E2001901B
:102EA0002000C0B2C0280FD02100C9B208206A4655
:102EB00091FBF0F300FB131108482300DBB2DB1099
:102EC000DB01184400F00DFA2900C9B22000C0B29D
:102ED000FFF765FF0EB0BDE8F08100000000314053
:102EE000022801D301200FE00B00DBB2042B01DB31
:102EF000012009E0954B03EB8000C9B2405C82429F
:102F000001D3012000E000207047F8B506000F0053
:102F100015001C00022E01D301201CE02A003900FC
:102F2000C9B23000FFF7DCFF012801D1012012E017
:102F30003800C0B2002811D1B4F5807F0CD284488B
:102F40007603304400EB850010F58050016864F38F
:102F50000F2101600020F2BD0120FCE7FFB2012F2C
:102F600010D1B4F5803F0BD279487603304400EBA2
:102F7000850010F5A050016864F317210160E9E7AE
:102F80000120E8E70120E6E700B20012C0B2704776
:102F9000F8B505000E001700280000B2FFF7F4FF97
:102FA00004002000C0B2022801D3012023E03A002F
:102FB0003100C9B22000C0B2FFF792FF012801D151
:102FC000012018E062492000C0B2400308442A00F2
:102FD000D2B200EB8200D0F8000CF6B266F3092002
:102FE00067F30700E4B264032144EDB201EB85010D
:102FF000C1F8000C0020F2BD70B504000D001600F1
:10300000022C01D301201CE032002900C9B22000AB
:10301000FFF766FF012801D1012012E04C4960034F
:10302000085850F0004050F0407050F47F00EDB26E
:1030300065F3092066F307006203885064030859AA
:10304000002070BDF8B504004FF4FA504443414DE0
:10305000414E00212878C001304401F098FA14E074
:103060002878C001304401F094FAB842F8D33B4FBD
:103070003C192878C001304401F08BFA3F18390020
:103080002878C001304401F082FA4CF25137BC423A
:10309000E6D22878C001304401F07BFA8442F8D2AD
:1030A000F1BD38B594B0502100226C46200000F0EC
:1030B00059F82B4C00220121B4F90000FFF768FFFA
:1030C000B4F90000FFF760FF092300220121C0B21C
:1030D000FFF71BFFB4F90000FFF756FF00220121A4
:1030E000C0B2FFF789FF5FF0FF30009000208DF83D
:1030F000040000208DF8050000208DF80600002057
:103100008DF8080003208DF8440001201290012062
:103110008DF807000F4C104D69462078C0012844F7
:1031200001F070F92078C001284401F02BFA002149
:103130002078C001284401F02AFA2078C0012844F0
:1031400001F037FA15B030BD00000000347D0810E2
:103150000000044080BF022800005940B03CFFFF3F
:103160007CBF022862F30F2262F31F42401810F066
:10317000030308D0C91A1FD3DB0748BF00F8012D8D
:1031800028BF20F8022D130030B41446154610391C
:1031900028BF20E93C00FAD8490728BF20E90C00E5
:1031A00048BF40F8042D890028BF20F8022D48BFF1
:1031B00000F8012D30BC7047C91818BF00F8012D68
:1031C000CB0728BF00F8012D7047000030B4614BD9
:1031D0001818C009604C14EB001404290DD22368A0
:1031E0001F25C8008540AB43D2B212F01F02C900B0
:1031F00012FA01F1194321600CE0091F63681F25D1
:10320000C8008540AB43D2B212F01F02C9008A4009
:103210001A43626030BC7047002A04D1012212FABE
:1032200001F1416003E0012212FA01F1816070476F
:1032300010B48900436C0F248C40A34312F00F029A
:1032400012FA01F11943416410BC704710B4836C49
:1032500001248C40A34312F0010212FA01F1194338
:10326000816410BC704710B4C36C01248C40A3432C
:1032700012F0010212FA01F11943C16410BC704747
:1032800010B449001031C36C03248C40A34312F0E6
:10329000030212FA01F11943C16410BC704742697C
:1032A000012212FA01F141614069704710B483694B
:1032B00001248C40A34312F0010212FA01F11943D8
:1032C000816110BC704710B44900036C03248C402A
:1032D000A34312F0030212FA01F11943016410BC76
:1032E0007047F8B505000E0014000027002D2ED001
:1032F000002C2CD0226831002800FFF78DFF227AA5
:1033000031002800FFF762FF626931002800FFF7F3
:103310009DFFA26931002800FFF7A5FFE269310097
:103320002800FFF7ADFF626831002800FFF780FF3B
:10333000E26831002800FFF7C6FF31002800FFF7E0
:10334000AEFF226931002800FFF7B0FF00E0034F15
:103350003800F2BD0000CFBF0000304001005A002D
:103360002DE9F041DFF8D0311C00DFF8D051D5F85D
:1033700000C0DFF8CC512D68DFF8C8613668DFF88F
:10338000C8713F685FF0000E5FF0000E002800F08B
:10339000D080002900F0CD804C68002C01D18C68D1
:1033A00005E04C68022C01D1002400E00224D1F891
:1033B00010E0D1F81480C64502D3D1F810E001E046
:1033C000D1F814E0BEF1090F08D23CF4404C91F85A
:1033D0002130002B12D05CF4807C11E0BEF1110F83
:1033E00003D2012363F38F3CF1E7BEF1210F03D237
:1033F000022363F38F3CEAE718009BE03CF4807CF7
:10340000CB685B1E13F00F035FEA1C1C5FEA0C1C09
:1034100053EA0C0C012363F3196CC0F800C00B7F56
:10342000002B01D0002300E0012363F300054B686B
:103430001B0963F34105CB7E63F304154B7E63F3F5
:1034400045150B68012B01D1012300E0002363F334
:10345000DF7523005B0863F3820564F3C3054B7FCC
:1034600063F308258B7F63F34925CB7F63F38A25BC
:1034700091F8203063F3CB250B7913F0030363F34A
:10348000196505620B7E63F308278B7E63F349277A
:103490000B695B1E13F01F037F097F011F43C0F8F8
:1034A000007391F8243003F0FF0310F54174256890
:1034B0002D0A2D022B4323600B7E63F308264B69F4
:1034C0005B1E13F01F03760976011E43C0F80062ED
:1034D00091F82C3003F0FF0310F5017425682D0AD4
:1034E0002D022B4323600B6BC0F8883F8B6AC0F81A
:1034F000C83F91F8383010F57064256863F34925AA
:10350000256091F8391010F574631C6861F3CB24C1
:103510001C600021C0F8C81E002A09D000201060DD
:10352000002090610020D0600020D0610748106228
:1035300000242000BDE8F0810140AA005C7D081055
:10354000607D0810647D0810687D0810EFCDAB0029
:10355000022801D3012010E00B00DBB2042B01DBB9
:1035600001200AE0DFF8AC3703EB8000C9B2405C11
:10357000824201D3012000E000207047F8B504002A
:103580000F0015001E00022C01D301202AE02A00A2
:103590003900C9B22000FFF7DBFF012801D101206B
:1035A00020E006983900C9B202291ED1B6F5803F45
:1035B00019D2202817D24FF4C052DFF85C176303EA
:1035C0000B4403EB850313441F6866F317271F6042
:1035D0006403214401EB850111440A6860F3C702CA
:1035E0000A600020F2BD0120FCE7FFB2032F1FD1CB
:1035F000B6F1807F1AD2202818D24FF4E052DFF8BB
:10360000181763030B4403EB850313441F6807F08B
:10361000FF0757EA06271F606403214401EB850179
:1036200011440A6860F3C7020A60DAE70120D9E7AB
:103630000120D7E700B20012C0B27047F8B505000C
:103640000E001700280000B2FFF7F4FF040020006E
:10365000C0B2022801D3012024E03A003100C9B2EF
:103660002000C0B2FFF774FF012801D1012019E04A
:10367000DFF8A4162000C0B2400308442A00D2B2EA
:1036800000EB8200D0F8000CF6B266F3092067F375
:103690000700E4B264032144EDB201EB8501C1F8F7
:1036A000000C0020F2BD70B504000D001600022CC5
:1036B00001D301201DE032002900C9B22000FFF72C
:1036C00047FF012801D1012013E0DFF84C16600309
:1036D000085850F0004050F0407050F47F00EDB2B8
:1036E00065F3092066F307006203885064030859F4
:1036F000002070BDD0F840037047D0F80803C00523
:10370000C00D7047C0F840127047D0F80802C005DD
:10371000C00D7047D0F80802C0F3C030704738B50C
:1037200005002800FFF7F1FF04002800FFF7F2FF73
:103730000419002C01D1012000E00020C0B232BDEC
:10374000C0F8C81F7047D0F8C80F7047C0F8881F6E
:103750007047D0F8880F7047016851F00041016050
:10376000704738B504001500C9B2002906D00229F7
:103770001ED010D3042935D027D340E0DFF89C05B4
:10378000A06001202073112060734FF48C70E081E1
:103790001220208239E0DFF88805A0600120207324
:1037A0001120607340F21D10E0816B2020822CE01C
:1037B000DFF87005A06001202073112060734FF4C2
:1037C0008E70E0816A2020821FE0DFF85C05A06037
:1037D000022020731120607340F21B10E0816920E9
:1037E000208212E0DFF84405A0600120207313203E
:1037F00060734FF48D70E0816820208205E07C22A8
:10380000DFF82C150020FFF720FAEDB2002D06D0CE
:10381000022D1ED010D3042D35D027D340E0DFF881
:10382000FC04206000202071112060714FF48C7026
:10383000E0811220208239E0DFF8E40420600020DB
:1038400020711120607140F21D10E0816B202082F8
:103850002CE0DFF8D004206000202071112060717E
:103860004FF48E70E0816A2020821FE0DFF8B804F8
:103870002060012020711120607140F21B10E08156
:103880006920208212E0DFF8A4042060002020716B
:10389000132060714FF48D70E0816820208205E074
:1038A000A822DFF88C140020FFF7CFF931BD10B546
:1038B000C0B2002806D002280AD006D304280DD0B2
:1038C00009D30EE0DFF86C4411E0DFF86C440EE041
:1038D000DFF868440BE0DFF8684408E0DFF8644490
:1038E00005E0BD22DFF848140020FFF7AEF9200004
:1038F00010BD38B50400DFF85054C9B22000C0B282
:1039000055F82000FFF7FEFE2000C0B255F8200059
:10391000FFF705FF0028F7D031BD38B504000D00D2
:1039200005E029782000C0B2FFF7E3FF6D1C28787E
:103930000028F6D131BD70B504000D000020DFF87D
:1039400008642000C0B256F82000FFF7D6FE002819
:1039500007D0E4B256F82400FFF7CCFE287001200F
:1039600000E00020C0B270BD70B505000C00DFF8AB
:10397000D8632800C0B256F82000FFF7EAFE4008DE
:10398000400001002800C0B256F82000FFF7DEFE1C
:103990002800C0B256F82000FFF7DBFE30F002002E
:1039A00001002800C0B256F82000FFF7CFFE280023
:1039B000C0B256F82000FFF7CCFE30F02000010026
:1039C0002800C0B256F82000FFF7C0FE2800C0B2A1
:1039D00056F82000FFF7BDFE30F04000010028003F
:1039E000C0B256F82000FFF7B1FE2800C0B256F86A
:1039F0002000FFF7AEFE30F0100001002800C0B23A
:103A000056F82000FFF7A2FE2800C0B256F82000AA
:103A1000FFF79FFE30F4807001002800C0B256F816
:103A20002000FFF793FE2800C0B256F82000FFF7F1
:103A300090FE30F4806001002800C0B256F82000EB
:103A4000FFF784FE002C0ED02800C0B256F82000EC
:103A5000FFF779FE50F400700100EDB256F8250032
:103A6000FFF774FE0DE02800C0B256F82000FFF703
:103A70006AFE30F400700100EDB256F82500FFF741
:103A800065FE70BD70B505000C00DFF8BC62280053
:103A9000C0B256F82000FFF756FE40084000010073
:103AA0002800C0B256F82000FFF74AFE2800C0B236
:103AB00056F82000FFF747FE30F00800010028000C
:103AC000C0B256F82000FFF73BFE2800C0B256F8FF
:103AD0002000FFF738FE30F0200001002800C0B2BF
:103AE00056F82000FFF72CFE2800C0B256F8200040
:103AF000FFF729FE30F4807001002800C0B256F8AC
:103B00002000FFF71DFE2800C0B256F82000FFF786
:103B10001AFE30F4007001002800C0B256F82000F0
:103B2000FFF70EFE2800C0B256F82000FFF70BFE8C
:103B300030F4006001002800C0B256F82000FFF702
:103B4000FFFD002C0ED02800C0B256F82000FFF771
:103B5000FAFD50F004000100EDB256F82500FFF721
:103B6000EFFD0DE02800C0B256F82000FFF7EBFD96
:103B700030F004000100EDB256F82500FFF7E0FD3B
:103B800070BD2DE9F841A7B005000F001600280010
:103B90003100C0B2C9B2884201D1012000E000204A
:103BA0001C00DFF88C814FF4CE724146C0B2FFF7A3
:103BB0004CF828002100C0B2C9B2884201D10120CE
:103BC00000E0002040F29D124146C0B2FFF73DF8F0
:103BD00002A8142100F0F4FC342100220DF1680841
:103BE0004046FFF7BFFA4C2100220DF11C08404669
:103BF000FFF7B8FAFF003A00002354480021FDF710
:103C0000C7FB07002200D2B23100C9B202A8FFF7F9
:103C1000A8FD08201B909DF80D008DF870001AAAD1
:103C20009DF80C100298FFF75CFB06201B909DF896
:103C30000D008DF870001AAA9DF814100498FFF773
:103C400050FB0020079008200890082009900220CF
:103C50000B9000200C9000201290002014903A4C01
:103C60002800C0B254F8200000F0F0FD38492A00C6
:103C7000D2B2382042430A4407A92800C0B254F8FF
:103C8000200000F0A1FC2800C0B254F82000FFF78B
:103C900063FD2A00D2B20321BDF91600FFF7CEFC66
:103CA000BDF91600FFF7C6FC17F01F010091C7F31E
:103CB00057132A00D2B20321C0B2FFF75FFCBDF94F
:103CC0001600FFF7B7FC2A00D2B20321C0B2FFF7FB
:103CD000EAFCBDF91800ADF800000320ADF80200C1
:103CE00001208DF8040007221A482900C9B250F8B3
:103CF0002110684600F0CAFA00212800C0B2FFF780
:103D0000C1FE00212800C0B2FFF72EFE28B0BDE89A
:103D1000F0810000347D08100000044000003140B4
:103D20000002314000053140800831400007314039
:103D30007C7A08100000604000006540000064408C
:103D4000000063400000624060BF02280080969837
:103D5000A41703284CBF02280CB430B583B00A4620
:103D600006A90291044600250194009502AB01A921
:103D7000084878441E30FCF786F9019A157000282F
:103D80004EBF04460198041B204603B030BC5DF8CA
:103D90000CFB00BF2FD2FFFF82688918816003E00F
:103DA00082684169521A8260816842699142F7D201
:103DB0007047C2688918C16003E0C2684169521A3D
:103DC000C260C16842699142F7D2704770B5040081
:103DD000002C01D0012000E000205422DFF8FC1369
:103DE000C0B2FEF732FF0025207850F001002070AD
:103DF0000020A0600020E0606069206160780028F9
:103E000003D0022810D007D315E06169002266684C
:103E10003000FFF7A7F90EE06169490000226668EB
:103E20003000FFF79FF906E06169890000226668AB
:103E30003000FFF797F9002020702800C0B270BD55
:103E400010B50400002C01D0012000E000207022F9
:103E5000DFF88813C0B2FEF7F8FE60692169401AE6
:103E600010BD2DE9F84305001600002D01D00120FA
:103E700000E000200C00AA22DFF86013C0B2FEF7B9
:103E8000E4FE00270020002C01D10327B5E02878AC
:103E900010F0050F01D00427AFE0287850F004009F
:103EA00028702869B042C0F0A380D5F81480A868B3
:103EB000B8EB0008B04567D26878002803D0022824
:103EC00041D01FD390E0424621006868AB6800EB08
:103ED00003094846FDF7E2F841462800FFF75CFF7A
:103EE000B6EB080204EB08016868AB6800EB03045A
:103EF0002000FDF7D3F8B6EB080841462800FFF78D
:103F00004BFF71E05FEA480221006868AB6800EB94
:103F100043094846FDF7C2F841462800FFF73CFF39
:103F2000B6EB0802520004EB48016868AB6800EB8E
:103F300043042000FDF7B2F8B6EB0808414628001C
:103F4000FFF72AFF50E05FEA880221006868AB684B
:103F500000EB83094846FDF7A1F841462800FFF72A
:103F60001BFFB6EB0802920004EB88016868AB689F
:103F700000EB83042000FDF791F8B6EB08084146FA
:103F80002800FFF709FF2FE06878002803D00228F7
:103F90001DD00ED328E0320021006868AB6800EB2A
:103FA00003042000FDF77AF831002800FFF7F4FE43
:103FB0001AE0720021006868AB6800EB430420003F
:103FC000FDF76CF831002800FFF7E6FE0CE0B200C8
:103FD00021006868AB6800EB83042000FDF75EF801
:103FE00031002800FFF7D8FE2869861B2E6100E00B
:103FF0000527287810F0FB0028703800C0B2BDE813
:10400000F2832DE9F04705000E001F00002D01D0BE
:10401000012000E000201400DFF8C08140F25B12B4
:104020004146C0B2FEF711FE002C01D0012000E095
:1040300000204FF4AE724146C0B2FEF706FE5FF0BC
:10404000000800200020002E02D15FF003088BE062
:10405000297811F0030F03D020605FF006089CE080
:104060002800FFF7EDFE2168884209D220605FF04A
:104070000708002804D1287810F0F70028708CE099
:10408000287850F008002870D5F81490E868B9EB4B
:1040900000092068814522D36878002803D00228CF
:1040A00013D008D35CE022686868E96801443000F6
:1040B000FCF7F4FF54E0226852006868E96800EBFE
:1040C00041013000FCF7EAFF4AE02268920068688C
:1040D000E96800EB81013000FCF7E0FF40E0687820
:1040E000002803D0022827D011D339E04A46686857
:1040F000E9680144B2465046FCF7D0FF2268B2EBB3
:10410000090269684E443000FCF7C8FF28E05FEA06
:1041100049026868E96800EB4101B2465046FCF785
:10412000BDFF2268B2EB09025200696806EB49063E
:104130003000FCF7B3FF13E05FEA89026868E968C2
:1041400000EB8101B2465046FCF7A8FF2268B2EBB3
:1041500009029200696806EB89063000FCF79EFFB1
:10416000287810F0F7002870FFB2002F15D12878BA
:104170000B2802D15FF002080FE0287850F002000F
:10418000287021682800FFF714FE2969206841186B
:104190002961287810F0FD0028704046C0B2BDE8C3
:1041A000F087F8B504000E0017001D00002C01D0A8
:1041B000012000E000204FF407720849C0B2FEF76A
:1041C00044FD002067600021217066700021A1601D
:1041D0000021E16025616561C0B2F2BD507908102F
:1041E000010009B2002908D4012210F01F018A4001
:1041F0001B4900B2400941F820207047010009B274
:10420000002908D4012210F01F018A40154900B28C
:10421000400941F820207047020012B2002A04D45D
:104220004901114A00B2115407E049010F4A00B296
:1042300010F00F00104400F8041C7047002800D153
:1042400062B60B480168491C0160704772B60849A4
:104250000868002802D00868401E08600868704797
:1042600000E100E080E200E000E400E018ED00E0A2
:10427000941B032880B5FFF7E9FF00F02FFB01BD79
:1042800080B5C9B200B2FFF7C7FF01BD70B5040029
:104290000D001600200000F031FB2900B4F90000E9
:1042A00000F06BFB3100C9B2B4F90200FFF7E8FF80
:1042B000B4F90200FFF7A2FFB4F90200FFF790FF84
:1042C00070BD000010B50446AFF30080204600F03A
:1042D00005F80446AFF30080204610BDF8B500F1A4
:1042E0000F04E408E400A0422BD2082C04D20824D6
:1042F00002E0083000F047F8DFF8002113681900E9
:1043000005D1002007E00568A5420DD2011D08680F
:104310000028F8D11868111D00E0191D0B688342B0
:104320000BD01D68A542F8D359B10B68186808383E
:10433000A04208D2586808600FE000F035FB002862
:10434000D7D10020F2BD181908601D1D58682851EA
:104350001E680F68361B3E601C60096800291DBF7F
:1043600048680028081D0020106003F10800F2BD15
:1043700010B5040006D0AFF30080204600F003F82B
:10438000AFF3008010BD002800D1704770B4A0F1D9
:1043900008021368072B2ED913F0070F2BD1DFF873
:1043A0005C40616809B18A4203D25160626015E0E5
:1043B0000146486808B19042FAD308680E18B24224
:1043C00019D3964203D11B180B600A4606E04868D1
:1043D00010B1134498420ED350604A60506850B1F7
:1043E0001368D518854206D1002626600168CB18CF
:1043F00013604068506070BC70470000701B032859
:10440000FFF7B6BF10B4012291F84C30052B03D250
:1044100091F84D30052B01D31000A7E0002800F0E3
:10442000A480002900F0A180514A12684B7963F3FF
:1044300092428B7913F0030363F311420B7A13F06A
:10444000070363F31A62CB7963F39E720B7D63F308
:10445000000291F8243063F3410202600A7910F1FE
:1044600030031C6862F307041C604A79012A0BD1EF
:104470008A79002A02D10022826007E08A79012A23
:1044800004D10A68826001E001228260CA68026188
:104490000A694261CA6982610A6AC2610A68026283
:1044A000344A12680B7E03F0FF03120A12021A4309
:1044B00091F8303003F0FF0363F3174291F8403076
:1044C00003F0FF0363F31F6291F8483003F0FF032A
:1044D00063F30F224264284A126891F8383003F0DF
:1044E000FF03120A12021A4391F8283003F0FF0367
:1044F00063F30F228264214A12688B7D13F0030359
:10450000920892001A4391F8253013F0030363F3E5
:104510008B2291F82C3013F0030363F3051291F80A
:10452000343013F0030363F3092291F83C3013F0A5
:10453000030363F3871291F8443013F0030363F32A
:104540008302C2640E4A126891F84C3013F00703DC
:10455000D208D2001A4391F84D3013F0070363F3E9
:1045600006124265497D81670022100010BC704729
:104570009C7D0810A07D0810A47D0810A87D08105F
:10458000AC7D0810016851F0004101607047816006
:104590007047806870477830016851F00101016010
:1045A000704710F170010A6852F001020A60006F52
:1045B00070474030016851F0100101607047000001
:1045C000002200F007BA00002DE9F44FDFF8D822EE
:1045D000DFF8D8321B68DFF8D8422468DFF8D452FD
:1045E0002D68DFF8D4623668DFF8D0723F68DFF8F4
:1045F000D0C2DCF800C0DFF8CCE2DEF800E0DFF883
:10460000C882D8F80080DFF8C492D9F80090DFF8AB
:10461000C0A2DAF800A0002800F01581002900F0FF
:1046200012810A68022A06D191F82620002A02D1B6
:104630005FF0000B03E0D1F804B0BBF1010B91F87F
:104640002420002A01D0012200E0002262F310435E
:1046500033F440436BF30303022262F319630360F4
:104660000A7812F0030262F31964046491F82520B9
:10467000002A01D0012200E0002262F38615CA7EE2
:10468000002A01D0012200E0002262F38A254A7E3E
:10469000002A01D0012200E0002262F308258A7E70
:1046A000002A01D0012200E0002262F349258A6B32
:1046B000521E12F00F0262F313450A69521E12F0E5
:1046C0000702ED08ED0015434A6962F304154A69D3
:1046D000520862F3451585640A7B002A01D0012245
:1046E00000E0002262F308260A7E002A01D001229F
:1046F00000E0002262F349268A68521E12F01F026F
:10470000760976011643C0F800630A7F02F0FF02C3
:104710003F0A3F02174391F8202002F0FF0262F3A4
:104720001747C0F8107391F82720002A01D0012202
:1047300000E0002262F3082C0A69521E12F0070200
:104740005FEADC0C5FEACC0C52EA0C0C4A6962F3BB
:10475000041C4A69520862F3451CC0F844C00A7B35
:10476000002A01D0012200E0002262F3082E8A68AC
:10477000521E12F01F025FEA5E1E5FEA4E1E52EAF0
:104780000E0E0A68012A01D1012200E0002262F324
:10479000104EC0F800E291F83C2002F0FF025FEA00
:1047A00018285FEA082852EA0808C0F8048391F83C
:1047B0002820002A01D0012200E0002262F359697A
:1047C000CA6A012A01D1012200E0002262F31869BD
:1047D0004A6B012A01D1012300E00023009A63F310
:1047E000104991F8303003F0FF035FEA19295FEABE
:1047F000092953EA0909C0F8509091F8443003F0B0
:10480000FF035FEA1A2A5FEA0A2A53EA0A0AC0F893
:1048100004A28B6CC0F8883F096CC0F8C81F002A3E
:1048200010D0002050600020106000209060002018
:10483000D060002010620020D06200201063DFF8FA
:104840009400506300221000BDE8F28FDFF888105A
:1048500001605FF4401101640021816440F207119E
:10486000C0F800130022C0F804230022C0F810236F
:1048700000224264C0F800120021C0F80412002196
:1048800001650021C0F8C81E0021C0F8881E002163
:10489000C0F8C81F0021C0F8881F0021C0F8081FF9
:1048A0000021C0F8481F70470160AA006C7D081005
:1048B000707D0810747D0810787D08107C7D0810CC
:1048C000807D0810847D0810887D08108C7D08107C
:1048D000907D0810EFCDAB000F000003002007E033
:1048E0000549C2018A5822F00042C301CA50401C47
:1048F0003F28F5DB704700000000584030B400212D
:10490000234A1368234A1468002832D0224A1568C3
:10491000C5F303250E2D0FD01268C2F303220D2A12
:1049200028D1827812F00F0224092401144302795D
:10493000002A15D0012214E0827812F00F021B0920
:104940001B0113430279002A01D0012200E000225A
:1049500062F3DF73114AB0F9000042F8203009E039
:10496000002262F3DF740E4AB0F9000042F82040E2
:1049700000E00649080030BC70470A4B1A68002A5C
:1049800003D01A6800B242F82010704701005600A8
:10499000947D0810987D08100000204000A0204061
:1049A00000C0204030BF02280749086808B1002035
:1049B00070470648C008C00008600549C908C9001A
:1049C000091A0160704700BFB01B032807DC0728E5
:1049D00000E0072800B500BF130096469446103942
:1049E00028BFA0E80C50FAD85FEA417C28BF0CC071
:1049F00048BF40F8042BC90728BF20F8022B48BF46
:104A000000F8012B00BD0000DFF8C4110868C0F3F6
:104A10004000002801D0022002E0086810F00100E8
:104A20007047DFF8B001006810F001007047000027
:104A3000C21E022A01D3012002E0C01E086000202D
:104A400070471CB5FF246946FFF7F2FFC0B200288B
:104A500002D02000C0B207E0DFF8FC01009950F856
:104A6000210010F00100C0B216BD0000002801D0E6
:104A7000032801D3012002E0401E08600020704797
:104A80001CB5FF246946FFF7F1FFC0B2002802D031
:104A90002000C0B208E0DFF8C40100990901084411
:104AA000C06810F00100C0B216BD0000DFF8BC0104
:104AB0000068800810F00100704738B5040020003D
:104AC000C0B2082811D3DFF898511822DFF89411EA
:104AD000280000F00DFC0020E87540F65B00DFF8D0
:104AE00088110860002000F03BFCDFF8CC112000AA
:104AF000C0B251F82000C0F30020002805D0E4B275
:104B000051F8240010F00F0000E0FF2032BD38B54E
:104B100004002000C0B2082811D3DFF84451182245
:104B2000DFF84011280000F0E3FB0020E8754FF4A7
:104B30000960DFF834110860002000F011FCDFF894
:104B40007801E4B250F82400C0F30110C0B232BDC5
:104B5000DFF868211368C3F3072303601068C0F30C
:104B6000C40008607047DFF858211368C3F30723B7
:104B700003601068C0F3C4000860704738B50400D3
:104B8000072C11D3DFF8D8501822DFF8C411280001
:104B900000F0AEFB0020E8754FF4CE70DFF8C810CF
:104BA0000860002000F0DCFBDFF8A00150F82400D2
:104BB00010F00700010009B2042907D1DFF88801CD
:104BC00050F8240010F01F0050F4807000B232BD85
:104BD0002415264040152640DFF8B01209688A03E4
:104BE000920B0260090E11F00101C171DFF8A012F1
:104BF00009680A00D204D20C82800A00120C02F06A
:104C0000FF020281090C01F0FF014181DFF844112C
:104C1000096811F00F0202730A00C2F30312427313
:104C20000A00120AD204D20CC281090F11F003014A
:104C30000174DFF8641309680A00120A12F007020F
:104C400082710A00120CD205D20D4282890F11F036
:104C500001010175704700004016264000192640EA
:104C6000041B032800780810781B03281000274035
:104C70001CB50C006946FFF7DBFE0100C9B2002934
:104C800001D0C0B217E0DFF8B404009950F8210059
:104C900010F07F012160C0F304216160C0F3044182
:104CA000A1600100090F11F003016173C00E10F043
:104CB00001002073002016BD40122640080020404D
:104CC000080420401CB50C006946FFF7CFFE010028
:104CD000C9B2002901D0C0B235E0DFF81015009844
:104CE0000001085800F0FF022260C0F30422626055
:104CF000C0F30442A260000F10F00300207300987C
:104D00000001084442681000C00F6073C2F30270D3
:104D1000002801D0012000E00020A07322F07F4293
:104D2000226100980001084480680100C90F2175C4
:104D30000100090E11F001016175A075000C10F061
:104D40000700E075002016BD000126400012264035
:104D5000747808103815264080B50100DFF8680522
:104D60001822FCF7ABF90120DFF86015087000206D
:104D700002BDDFF85C150968C90F002908D0DFF80B
:104D80004C150978002907D10021016003207047E4
:104D9000002101600320FAE7DFF82C1509680160A3
:104DA0000020F4E710B50400FFF72EFE002803D121
:104DB0000020206003200DE0DFF8100500780028B7
:104DC00005D0DFF8040580682060002002E00020A4
:104DD0002060032010BD0000DFF8F01409780029DE
:104DE00005D0DFF8E41449680160002002E00021EA
:104DF000016003207047DFF8DC140968C90F00293F
:104E000008D0DFF8C8140978002907D10021016013
:104E100003207047002101600320FAE7DFF8A8149F
:104E2000C96801600020F4E7DFF8AC140968C90F15
:104E3000002908D0DFF894140978002907D100214F
:104E4000016003207047002101600320FAE7DFF8CA
:104E50007814096901600020F4E710B50400FFF739
:104E600025FE002803D10020206003200DE0DFF89C
:104E70005C040078002805D0DFF84C04406920600D
:104E8000002002E000202060032010BD30152640E5
:104E90003415264010B50C00C0B2FFF76FFE002895
:104EA0000ED0012810D0022812D0B0F5887F13D080
:104EB00040F21111884213D0B0F58A7F14D017E068
:104EC0002000FFF756FF16E02000FFF785FF12E0F5
:104ED0002000FFF767FF0EE02000FFF78CFF0AE0DD
:104EE0002000FFF7BAFF06E02000FFF79DFF02E079
:104EF00000202060032010BD80B501000020FFF7D6
:104F0000C9FF02BD80B50322D2B2824203D2002083
:104F10000860012003E0401CC0B2FFF7BBFF02BDE8
:104F200018B587B004006846FFF7E6FF0100C9B274
:104F3000002903D000212160C0B22BE001A8FFF7B7
:104F40004BFE9DF81400022803D100982060002039
:104F500020E0DFF888030068C00F002808D0FFF7C2
:104F600060FDC0B2002807D100202060032011E0BE
:104F70000098206000200DE0009901984143BDF8A1
:104F80000800B1FBF0F09DF80B10491CB0FBF1F0EC
:104F90002060002008B010BD3C152640F0B58BB055
:104FA00005000C0069462800C0B2FFF7ABFF010006
:104FB000C9B2002903D000212160C0B2BCE02800A2
:104FC000C0B202284CD307A92800C0B2401CFFF78A
:104FD0004FFEC0B2002811D0DFF804631822DFF8BA
:104FE0000413300000F084F90020F07540F66310DF
:104FF000DFF8F4120860002000F0B2F94F482900F1
:10500000C9B200EB810050F8080CC00F002807D08F
:105010009DF82900022807D10098206000208BE02D
:1050200000982060002087E0EDB26D1C2800FFF79B
:1050300008FD0100C9B2002902D0C0B2FF2803D187
:1050400000202060032077E00099079841430898EA
:10505000B1FBF0F00999B0FBF1F0206000206BE0AB
:1050600001A92800C0B2401CFFF72CFEC0B20028E6
:1050700011D0DFF86C621822DFF86812300000F0FF
:1050800037F90020F07540F67F10DFF85C120860F9
:10509000002000F065F955482900C9B209014058BF
:1050A000C00F002807D09DF81000022807D10098F3
:1050B0002060002040E00098206000203CE0EDB23D
:1050C0006D1C2800FFF7DCFC0100C9B2002902D0EA
:1050D000C0B2FF2803D10020206003202CE09DF8FF
:1050E000110001281DD1009A0023019E00273F06D0
:1050F00047EA162736060598002136184F41A6FBC9
:10510000020106FB031107FB0211029A039BA3FB9A
:105110000223FCF73DF9000E40EA0120090E206051
:1051200009E00099019841430298B1FBF0F003991E
:10513000B0FBF1F0206000200BB0F0BD001626405F
:1051400010B50323421E0400E4B2002C03D1080072
:10515000FFF7E6FE0CE01400DBB2E4B2A34204D396
:105160001000C0B2FFF71AFF02E0C0B2FFF792FED4
:1051700010BD38B505000C002800C0B2FFF79DFC3B
:105180000100C9B2FF2904D12000FFF7F2FDC0B22F
:105190001BE06946C0B2FFF7D3FF0100C9B2002986
:1051A00003D000212160C0B20FE02800C0B2FFF799
:1051B000AEFCC0B2002805D002280BD006D30328CD
:1051C0000CD00FE000982060002032BD009840080D
:1051D0002060F9E7009880082060F5E70098C00893
:1051E0002060F1E7002020600320EEE70019264050
:1051F0001FB5040002A90120FFF7BBFF0100C9B2DF
:10520000002903D000212160C0B21AE0694601A83C
:10521000FFF79EFC01980021421C71F1FF335B01F6
:1052200043EAD26352010098002112184B410298C0
:105230000021490141EAD0614001FCF7A9F8206052
:10524000002004B010BD1FB5040002A90120FFF723
:1052500090FF0100C9B2002903D000212160C0B233
:105260001AE0694601A8FFF77EFC01980021421C64
:1052700071F1FF335B0143EAD263520100980021D0
:1052800012184B4102980021490141EAD0614001C6
:10529000FCF77EF82060002004B010BD80B5DFF878
:1052A0004C100A68C2F303220E2A07D00968C1F322
:1052B00003210D2905D1FFF7C6FF02BDFFF798FFB7
:1052C000FBE70120F9E70000EC1A0328B81B0328CC
:1052D00018152640081526400C1526403015264086
:1052E000041B032874780810781B03280000204052
:1052F00001B58B071AD1830724D1121F21D351F88E
:10530000043BA3F1013C2CEA030C1CF0803C04BFDD
:1053100040F8043BF1E79CFA8CFCBCFA8CF1C1F13B
:1053200018018B40CB4040F8043B13E0042A09D31A
:1053300011F8013B521E00F8013B5BB18B07F7D11E
:10534000D9E7121D5AB111F8013B521E00F8013B7A
:1053500003B1F8D111001CBF0022FDF707FF01BD0A
:1053600001BEFEE780B5234A23490B6893423ED035
:105370000A60224A12684A62214A8A6202684A60C6
:1053800042688A608268CA60C2680A6102694A61CA
:1053900042698A618269CA61C2690A62F1EE102AB1
:1053A00012F0900F23D0174A8A62026ACA62426AD8
:1053B0000A63826A4A63C26A8A63026BCA63426B87
:1053C0000A64826B4A64C26B8A64026CCA64426C6F
:1053D0000A65826C4A65C26C8A65026DCA65426D57
:1053E0000A66826D4A66C26D8A66006EC86600F003
:1053F0000BF801BDFAF9F8F73C1A032828ED00E094
:10540000A4A3A2A1ABAAA9A8FEE7000070B504005E
:105410000D00DFF834682A0092B2120AD2B22100DD
:10542000C9B2300000F080FE2A00D2B2F021300074
:1054300000F07AFE70BD2DE9F04704000D00012652
:1054400000275FF000085FF00A09484640B20028D4
:1054500036D0484640B2052190FBF1F201FB120024
:10546000002810D1DFF8E0A72A0092B2120AD2B2C7
:105470002100C9B2504600F057FE2A00D2B2F021F6
:10548000504600F051FEDFF8C0A72100C9B25046D7
:1054900000F072FE0700F021504600F06DFE8046DD
:1054A000280080B23900C9B24246D2B252EA012283
:1054B000904202D10020060002E0B9F10109C4E7E0
:1054C000300040B2BDE8F08770B50400DFF87867BF
:1054D0002100C9B2300000F04FFE0500F02130007D
:1054E00000F04AFEEDB2C0B250EA052080B270BDB5
:1054F000F8B50400002500260127DFF84C075C21E1
:105500000172E168C160216801606168416000204A
:10551000FFF7DAFF0600300041F2243180B2884202
:105520000BD0300041F2113180B2884205D03000FA
:1055300041F2133180B2884202D10020070004E01A
:105540006D1C2800C0B21528E1DB3800C0B2F2BDE6
:105550002DE9F14F8AB05FF0000A00240020ADF879
:10556000200000250020ADF806000020ADF81E0048
:105570000020ADF81C0000265FF0000800270A9804
:10558000C088ADF808000A984089ADF80A000A986A
:10559000C089ADF80C000A98408AADF80E000A9850
:1055A000C08AADF810000A98408BADF812000A9836
:1055B000C08BADF814000A98408CADF816000A981C
:1055C000C08CADF81A004BF6EF61FE20FFF71EFF0E
:1055D00003210C20FFF71AFF0020FFF775FF0700DB
:1055E00041F224393800494680B288420BD0380055
:1055F00041F2113180B2884205D0380041F21331B6
:1056000080B2884200D109E018F101084046C0B2DA
:10561000142802DB0120060000E0DDE73000C0B204
:10562000002840F00C83BDF81000792807DABDF897
:1056300010008000ADF806005AF0020A15E0BDF82F
:105640001000F12807DABDF810004000ADF80600A0
:105650005AF0010A09E0BDF8100040F2E111884259
:1056600003DABDF81000ADF80600BDF80E00BD2845
:1056700006DABDF80E00800005005AF0080A15E0B1
:10568000BDF80E0040F27911884206DABDF80E002E
:10569000400005005AF0040A08E0BDF80E0040F290
:1056A000F121884202DABDF80E000500DFF89CB552
:1056B00040F24E31280080B2091ACBF800103800B1
:1056C000494680B288427AD148F288310720FFF7F4
:1056D000B2FE80190600DFF87815BDF81020921C84
:1056E0002B009BB2DBF80000C3185A43121D91FB3C
:1056F000F2F00400200080B240F2F511884202DB93
:105700004FF4FA7004002000BDF80C1080B28842FB
:1057100001D2ADF80C40DFF83C15DFF83405BDF8D8
:105720000C2090FBF2F2121F2B009BB2DBF8000062
:10573000C31892FBF3F2BDF81000121A0A6047F684
:1057400021600A68824202DA0A68022A0EDA0A68CE
:10575000022A02DA0220086008E00A68824203DBBB
:1057600047F62060086001E008680860DFF8E004A0
:10577000BDF80C2090FBF2F2121F0968BDF8100072
:10578000411892FBF1F1280080B2091ACBF8001001
:10579000DBF800003D2803DA3D20CBF8000081E073
:1057A000DBF80000B0F5806F04DB40F2FF30CBF88F
:1057B000000077E0DBF80000CBF8000072E0DFF8D3
:1057C0009014BDF81020121D2B009BB2DBF80000D6
:1057D000C3185A43121D91FBF2F00400200080B25E
:1057E00040F2F511884202DB4FF4FA700400200009
:1057F000BDF80C1080B2884201D2ADF80C40DFF841
:105800005414DFF84C04BDF80C2090FBF2F2121F88
:105810002B009BB2DBF80000C31892FBF3F2BDF83B
:105820001000121A0A6040F6B9300A68824202DAA1
:105830000A68042A0EDA0A68042A02DA04200860D8
:1058400008E00A68824203DB40F6B830086001E0F5
:1058500008680860DFF8F803BDF80C2090FBF2F24E
:10586000121F0968BDF81000411892FBF1F12800E1
:1058700080B2091ACBF80010DBF800002B2803DAFD
:105880002B20CBF800000DE0DBF80000B0F5806FB6
:1058900004DB40F2FF30CBF8000003E0DBF800004F
:1058A000CBF80000DFF8AC030168BDF81000411828
:1058B000891EBDF80A00814208DADFF89803016802
:1058C000BDF810004118881EADF80A00280080B20B
:1058D000D0F53C70022190FBF1F0BDF912100200EE
:1058E00012B2D14203DA010009B2494209E00100D3
:1058F000BDF9122009B2914201DA010001E0BDF9BF
:105900001210ADF81210401CBDF91210411AADF87A
:105910001E10BDF80610D1F5F071022291FBF2F1D4
:10592000BDF914200B001BB2DA4203DA080000B202
:10593000404209E00800BDF9142000B2904201DAAB
:10594000080001E0BDF91400ADF81400091DADF820
:105950002010BDF92010BDF914004118ADF81C103D
:1059600001211B20FFF767FD80198DF804009DF8C9
:1059700004000090BDF81E100120FFF75CFD0099A7
:1059800040188DF804009DF804000090BDF81C102C
:105990000220FFF750FD009940188DF804009DF893
:1059A00004000090BDF806100320FFF744FD0099A5
:1059B00040188DF804009DF804000090290089B279
:1059C0000420FFF738FD009940188DF804009DF879
:1059D00004000090DBF80000010089B20520FFF709
:1059E0002AFD009940188DF804009DF804B09948EC
:1059F0000068010089B20620FFF71DFD10EB0B0BBC
:105A00008DF804B09DF804B04FF4B2710A20FFF78E
:105A100012FD10EB0B0B8DF804B09DF804B040F2B2
:105A2000BB110820FFF707FD10EB0B0B8DF804B03E
:105A30009DF804B040F2D9110920FFF7FCFC10EBEF
:105A40000B0BBDF80800002807D1BDF80A100B2089
:105A5000FFF7F1FC10EB0B0083465AF44C7189B24E
:105A60000D20FFF7E8FC10EB0B008DF804009DF80B
:105A7000046027213120FFF7DEFC86198DF80460D1
:105A80009DF804601A213220FFF7D5FC86198DF8A5
:105A900004609DF8046005213320FFF7CCFC8619D3
:105AA000BDF816103520FFF7C6FC80198DF80400EC
:105AB000380080B2484529D1504680B2042801DB25
:105AC000012100E000219DF80460C9B2090189B2FA
:105AD0007220FFF7B0FC86198DF804609DF80490E1
